{
	"data": {
		"bytecode": {
			"linkReferences": {},
			"object": "60c060405262015180600b556658d15e17628000600c55670a688906bd8b0000600d556611c37937e08000601e55348015610038575f80fd5b50338061005e57604051631e4fbdf760e01b81525f600482015260240160405180910390fd5b610067816101e9565b5060065f815461007690610238565b9190508190556080818152505060405180610100016040528060805181526020015f1981526020015f1981526020015f19815260200160648152602001600181526020015f1981526020015f151581525060115f60805181526020019081526020015f205f820151815f01556020820151816001015560408201518160020155606082015181600301556080820151816004015560a0820151816005015560c0820151816006015560e0820151816007015f6101000a81548160ff0219169083151502179055509050506040518060c0016040528060048152602001601c81526020015f1981526020015f1515815260200160028152602001600281525060125f60075f815461018590610238565b9182905550815260208082019290925260409081015f20835181559183015160018301558201516002820155606082015160038201805460ff19169115159190911790556080820151600482015560a091820151600590910155600754905261025c565b5f80546001600160a01b038381166001600160a01b0319831681178455604051919092169283917f8be0079c531659141344cd1fd0a4f28419497f9722a3daafe3b4186f6b6457e09190a35050565b5f6001820161025557634e487b7160e01b5f52601160045260245ffd5b5060010190565b60805160a05161392a6102ae5f395f818161075d01528181611b4d01528181612259015261282b01525f8181610d0d0152818161174b015281816119710152818161219e015261274c015261392a5ff3fe6080604052600436106103be575f3560e01c806377da8f51116101f4578063a9f8d18111610113578063df1e3b7f116100a8578063e92820e611610078578063e92820e614610cdd578063ea26fa2d14610cfc578063ebf778cd14610d2f578063eef3b2d014610d4e578063f2fde38b14610d63575f80fd5b8063df1e3b7f14610c0b578063e0d152af14610c2a578063e2b15d8c14610c89578063e5e6317814610cc8575f80fd5b8063d1471296116100e3578063d147129614610b12578063d518ed7e14610b31578063d9ba62b314610b50578063dd6a4c6514610b6f575f80fd5b8063a9f8d18114610a91578063c243589414610aa6578063c51a2bba14610ac5578063ca18117014610ae4575f80fd5b80638da5cb5b116101895780639618b31c116101595780639618b31c14610a0a578063970707b214610a1f5780639ca423b314610a3e5780639f715f6014610a72575f80fd5b80638da5cb5b146109645780638dfc39331461099457806394fc19e4146109d2578063960ac229146109eb575f80fd5b806384ae2bc6116101c457806384ae2bc6146108f65780638685e3f21461090b57806386b3cd261461092a5780638819973314610945575f80fd5b806377da8f5114610883578063787a08a6146108975780637e08b5b3146108ac578063811c5089146108d7575f80fd5b80634658a2cc116102e05780635d5df7b7116102755780636d12ff52116102455780636d12ff5214610826578063713494d71461083b578063715018a61461085a57806372779cba1461086e575f80fd5b80635d5df7b7146107b35780635fd9491d146107d25780636756a1c7146107e857806369f0ee3314610807575f80fd5b8063542f9e6a116102b0578063542f9e6a146106c157806359058ad11461074c5780635a5ccef01461077f5780635c7421e314610794575f80fd5b80634658a2cc14610643578063476e2e661461066e57806348cd4cb11461068d5780634fc3f41a146106a2575f80fd5b806330775a94116103565780633ccfd60b116103265780633ccfd60b146105c55780633e89bb13146105d957806340f5da9e146105ec57806341a0894d14610617575f80fd5b806330775a941461055d57806331d7a26214610573578063372500ab146105925780633a8ee01e146105a6575f80fd5b80631e57057d116103915780631e57057d146104c8578063234f3f1b146104f357806324b4464e1461051e5780632fc96ce614610549575f80fd5b806310d96759146103c25780631116a59f14610448578063157e204c146104715780631a267cd21461049d575b5f80fd5b3480156103cd575f80fd5b506104146103dc36600461346d565b60126020525f908152604090208054600182015460028301546003840154600485015460059095015493949293919260ff9091169186565b6040805196875260208701959095529385019290925215156060840152608083015260a082015260c0015b60405180910390f35b348015610453575f80fd5b506104636722b1c8c1227a000081565b60405190815260200161043f565b34801561047c575f80fd5b5061049061048b36600461349f565b610d82565b60405161043f91906134cf565b3480156104a8575f80fd5b506104636104b7366004613562565b601d6020525f908152604090205481565b3480156104d3575f80fd5b506104636104e2366004613562565b60136020525f908152604090205481565b3480156104fe575f80fd5b5061046361050d366004613562565b600e6020525f908152604090205481565b348015610529575f80fd5b5061046361053836600461346d565b60186020525f908152604090205481565b348015610554575f80fd5b50610463610f21565b348015610568575f80fd5b50610571610f95565b005b34801561057e575f80fd5b5061046361058d366004613562565b6112c5565b34801561059d575f80fd5b506105716114c3565b3480156105b1575f80fd5b506105716105c036600461357b565b6116fa565b3480156105d0575f80fd5b506105716119d4565b6105716105e7366004613562565b611a55565b3480156105f7575f80fd5b50610463610606366004613562565b600f6020525f908152604090205481565b348015610622575f80fd5b50610636610631366004613562565b611c20565b60405161043f919061359b565b34801561064e575f80fd5b5061046361065d366004613562565b60106020525f908152604090205481565b348015610679575f80fd5b506105716106883660046135db565b611c93565b348015610698575f80fd5b5061046360035481565b3480156106ad575f80fd5b506105716106bc36600461346d565b61208e565b3480156106cc575f80fd5b506107176106db366004613562565b60156020525f90815260409020805460018201546002830154600384015460048501546005860154600690960154949593949293919290919087565b604080519788526020880196909652948601939093526060850191909152608084015260a083015260c082015260e00161043f565b348015610757575f80fd5b506104637f000000000000000000000000000000000000000000000000000000000000000081565b34801561078a575f80fd5b5061046360095481565b34801561079f575f80fd5b506105716107ae36600461357b565b61209b565b3480156107be575f80fd5b506105716107cd36600461346d565b6120f3565b3480156107dd575f80fd5b506104636240164081565b3480156107f3575f80fd5b5061057161080236600461357b565b612171565b348015610812575f80fd5b5061057161082136600461357b565b61222c565b348015610831575f80fd5b5061046360075481565b348015610846575f80fd5b5061057161085536600461346d565b6122de565b348015610865575f80fd5b50610571612314565b348015610879575f80fd5b5061046360065481565b34801561088e575f80fd5b50610463612327565b3480156108a2575f80fd5b50610463600b5481565b3480156108b7575f80fd5b506104636108c6366004613562565b601a6020525f908152604090205481565b3480156108e2575f80fd5b506104636108f1366004613562565b612374565b348015610901575f80fd5b50610463600c5481565b348015610916575f80fd5b50610571610925366004613611565b6123da565b348015610935575f80fd5b50610463670de0b6b3a764000081565b348015610950575f80fd5b5061046361095f366004613562565b612586565b34801561096f575f80fd5b505f546001600160a01b03165b6040516001600160a01b03909116815260200161043f565b34801561099f575f80fd5b506109c26109ae366004613562565b60176020525f908152604090205460ff1681565b604051901515815260200161043f565b3480156109dd575f80fd5b506004546109c29060ff1681565b3480156109f6575f80fd5b50610571610a05366004613562565b6125fa565b348015610a15575f80fd5b50610463600d5481565b348015610a2a575f80fd5b50610571610a39366004613562565b612624565b348015610a49575f80fd5b5061097c610a58366004613562565b601b6020525f90815260409020546001600160a01b031681565b348015610a7d575f80fd5b50610571610a8c366004613660565b61264e565b348015610a9c575f80fd5b5061046360085481565b348015610ab1575f80fd5b50610571610ac036600461369e565b612742565b348015610ad0575f80fd5b50610571610adf36600461346d565b6127eb565b348015610aef575f80fd5b506109c2610afe366004613562565b60166020525f908152604090205460ff1681565b348015610b1d575f80fd5b50610571610b2c36600461369e565b612821565b348015610b3c575f80fd5b5060015461097c906001600160a01b031681565b348015610b5b575f80fd5b50610571610b6a36600461346d565b6128ca565b348015610b7a575f80fd5b50610bce610b8936600461346d565b60146020525f90815260409020805460018201546002830154600384015460048501546005860154600687015460079097015495969495939492939192909160ff1688565b604080519889526020890197909752958701949094526060860192909252608085015260a084015260c0830152151560e08201526101000161043f565b348015610c16575f80fd5b50610571610c2536600461346d565b612ba8565b348015610c35575f80fd5b50610bce610c4436600461346d565b60116020525f90815260409020805460018201546002830154600384015460048501546005860154600687015460079097015495969495939492939192909160ff1688565b348015610c94575f80fd5b506109c2610ca336600461349f565b601960209081525f938452604080852082529284528284209052825290205460ff1681565b348015610cd3575f80fd5b50610463600a5481565b348015610ce8575f80fd5b5061097c610cf73660046136cc565b612bb5565b348015610d07575f80fd5b506104637f000000000000000000000000000000000000000000000000000000000000000081565b348015610d3a575f80fd5b5060025461097c906001600160a01b031681565b348015610d59575f80fd5b50610463601e5481565b348015610d6e575f80fd5b50610571610d7d366004613562565b612be9565b6001600160a01b0383165f908152601360205260408120606091610da582612c2b565b9050808510610de857604080515f8082526020820190925290610dde565b610dcb61342e565b815260200190600190039081610dc35790505b5092505050610f1a565b5f610df3868361371c565b90505f818611610e035785610e05565b815b90505f8167ffffffffffffffff811115610e2157610e216136f4565b604051908082528060200260200182016040528015610e5a57816020015b610e4761342e565b815260200190600190039081610e3f5790505b5090505f5b82811015610f125760145f610e7e610e77848d61372f565b8990612c35565b815260208082019290925260409081015f20815161010081018352815481526001820154938101939093526002810154918301919091526003810154606083015260048101546080830152600581015460a0830152600681015460c08301526007015460ff16151560e08201528251839083908110610eff57610eff613742565b6020908102919091010152600101610e5f565b509450505050505b9392505050565b5f6003545f03610f4457604051633017f16560e11b815260040160405180910390fd5b5f62401640610f53814361376a565b610f5e90600161372f565b610f68919061377d565b62401640600354610f799190613794565b610f83919061372f565b9050610f8f438261371c565b91505090565b335f9081526016602052604090205460ff16610fc4576040516306016a2760e11b815260040160405180910390fd5b335f90815260156020526040902080546007548103610ff6576040516372932dd360e01b815260040160405180910390fd5b600b54335f908152601a6020526040902054611012904261371c565b1015611031576040516341fde9ef60e01b815260040160405180910390fd5b5f60128161104084600161372f565b815260208082019290925260409081015f20815160c08101835281548152600182015493810193909352600281015491830191909152600381015460ff161515606083018190526004820154608084015260059091015460a08301529091506110bc576040516323e697d360e11b815260040160405180910390fd5b60408181015160015491516370a0823160e01b815233600482015290916001600160a01b0316906370a0823190602401602060405180830381865afa158015611107573d5f803e3d5ffd5b505050506040513d601f19601f8201168201806040525081019061112b91906137a7565b101561114d576040516001627a6f0d60e11b0319815260040160405180910390fd5b60015460408281015190516323b872dd60e01b815233600482015230602482015260448101919091526001600160a01b03909116906323b872dd906064016020604051808303815f875af11580156111a7573d5f803e3d5ffd5b505050506040513d601f19601f820116820180604052508101906111cb91906137be565b506001546040820151600d546001600160a01b03909216916342966c68916111f291612c40565b6040518263ffffffff1660e01b815260040161121091815260200190565b5f604051808303815f87803b158015611227575f80fd5b505af1158015611239573d5f803e3d5ffd5b5050845491508490505f61124c836137d9565b90915550508051600184015560208082015160038501556080820151600585015560a08201516006850155335f818152601a83526040908190204290558554818501519151918252927fe2dbc44c627e3876b04b29d12596a77c7d0fa585ccb754b9fcd92e48d813dd77910160405180910390a3505050565b6004545f9060ff166112d857505f919050565b6009545f0361131e576001600160a01b0382165f908152600f6020526040902054600c54611318919061131390670de0b6b3a764000061371c565b612c40565b92915050565b6008546003545f906240164090611335908461371c565b61133f919061376a565b61134a9060026138d4565b61135c906722b1c8c1227a000061376a565b600a549091505b43831015611427575f6240164061137a818661376a565b61138590600161372f565b61138f919061377d565b624016406003546113a09190613794565b6113aa919061372f565b90505f4382106113ba57436113bc565b815b6009549091501561140857600954670de0b6b3a76400006113dd878461371c565b6113e7908761377d565b6113f1919061377d565b6113fb919061376a565b611405908461372f565b92505b8094508185036114205761141d60028561376a565b93505b5050611363565b6001600160a01b0385165f908152601060205260409020546114ba90670de0b6b3a764000090611457908461371c565b6001600160a01b0388165f908152600e6020526040902054611479919061377d565b611483919061376a565b6001600160a01b0387165f908152600f60205260409020546114a5919061372f565b600c5461131390670de0b6b3a764000061371c565b95945050505050565b6114cc33612c6f565b335f908152600f6020526040812054908190036114fc5760405163037dc8f760e21b815260040160405180910390fd5b335f908152600f60205260408120819055600c5461151b908390612c40565b90505f611528828461371c565b6001546040516340c10f1960e01b8152336004820152602481018390529192506001600160a01b0316906340c10f19906044015f604051808303815f87803b158015611572575f80fd5b505af1158015611584573d5f803e3d5ffd5b5050335f908152601b60205260409020546001600160a01b0316915050801561163a576001546040516340c10f1960e01b81526001600160a01b03838116600483015260248201869052909116906340c10f19906044015f604051808303815f87803b1580156115f2575f80fd5b505af1158015611604573d5f803e3d5ffd5b505050506001600160a01b0381165f908152601d60205260408120805485929061162f90849061372f565b909155506116be9050565b6001546040516340c10f1960e01b8152306004820152602481018590526001600160a01b03909116906340c10f19906044015f604051808303815f87803b158015611683575f80fd5b505af1158015611695573d5f803e3d5ffd5b5050305f908152601d6020526040812080548794509092506116b890849061372f565b90915550505b60405184815233907ffc30cddea38e2bf4d6ea7d3f9ed3b6ad7f176419f4963bd81318067a4aee73fe906020015b60405180910390a250505050565b335f9081526017602052604090205460ff161561172a57604051633874d2ad60e11b815260040160405180910390fd5b335f818152601760209081526040808320805460ff191660019081179091557f0000000000000000000000000000000000000000000000000000000000000000845260118352818420825161010081018452815481529181015482850152600281015482840152600381015460608301526004810154608083015260058082015460a084015260068083015460c085015260079092015460ff16151560e08401529585526015909352922092830154908301549192916117ee918691869190612d1b565b1561180c57604051632a00382b60e21b815260040160405180910390fd5b80600301548260a001518260040154611825919061372f565b1115611844576040516303eff4bd60e61b815260040160405180910390fd5b6040820184905260608201839052600580545f90611861906137d9565b9182905550602080840191909152335f81815260198352604080822088835284528082208783528452808220805460ff191660011790556005549282526013909352919091206118b091612d67565b50600580545f90815260146020908152604080832086518155918601516001830155850151600280830191909155606086015160038301556080860151600483015560a08601519382019390935560c0850151600682015560e08501516007909101805460ff1916911515919091179055908201805491611930836137d9565b91905055508160a00151816004015f82825461194c919061372f565b9091555050600554604080515f815260208101929092528101859052606081018490527f00000000000000000000000000000000000000000000000000000000000000009033907f70a5d2d3258adcf9978a193a4dd8fa309ae83a9f1046a0a5ea99a133bf34f9a59060800160405180910390a36119ce338360800151612d72565b50505050565b6119dc612e74565b60025460405147915f916001600160a01b039091169083908381818185875af1925050503d805f8114611a2a576040519150601f19603f3d011682016040523d82523d5f602084013e611a2f565b606091505b5050905080611a5157604051631d42c86760e21b815260040160405180910390fd5b5050565b601e543414611a7757604051636956f2ab60e11b815260040160405180910390fd5b335f9081526016602052604090205460ff1615611aa7576040516311fcdefb60e31b815260040160405180910390fd5b336001600160a01b03821603611ad057604051630c22084560e31b815260040160405180910390fd5b335f908152601660205260409020805460ff191660011790556001600160a01b03811615611b4b57335f818152601b6020908152604080832080546001600160a01b0387166001600160a01b03199182168117909255908452601c835290832080546001810182559084529190922001805490911690911790555b7f00000000000000000000000000000000000000000000000000000000000000005f818152601260209081526040808320815160c0810183528154815260018083015482860190815260028401548386015260038085015460ff161515606085015260048501546080850190815260059586015460a0860190815233808b526015909952878a209a8b558551948b019490945591519089015551928701929092559051600686015590519093927fe424ed553a53c3a900c875ed34d63043e4dfb799427ee8ae0836b046a603c90e91a2505050565b6001600160a01b0381165f908152601c6020908152604091829020805483518184028101840190945280845260609392830182828015611c8757602002820191905f5260205f20905b81546001600160a01b03168152600190910190602001808311611c69575b50505050509050919050565b5f83815260116020908152604080832081516101008101835281548152600182015481850152600282015481840152600382015460608201526004820154608082015260058083015460a083015260068084015460c084015260079093015460ff16151560e083015233865260159094529190932091820154928201549092611d1f9186918691612d1b565b15611d3d57604051632a00382b60e21b815260040160405180910390fd5b8160e00151611d5f57604051631551537360e31b815260040160405180910390fd5b60c08201516001546040516370a0823160e01b81523360048201526001600160a01b03909116906370a0823190602401602060405180830381865afa158015611daa573d5f803e3d5ffd5b505050506040513d601f19601f82011682018060405250810190611dce91906137a7565b1015611df0576040516001627a6f0d60e11b0319815260040160405180910390fd5b80600301548260a001518260040154611e09919061372f565b1115611e28576040516303eff4bd60e61b815260040160405180910390fd5b60015460c08301516040516323b872dd60e01b815233600482015230602482015260448101919091526001600160a01b03909116906323b872dd906064016020604051808303815f875af1158015611e82573d5f803e3d5ffd5b505050506040513d601f19601f82011682018060405250810190611ea691906137be565b5060015460c0830151600d546001600160a01b03909216916342966c6891611ecd91612c40565b6040518263ffffffff1660e01b8152600401611eeb91815260200190565b5f604051808303815f87803b158015611f02575f80fd5b505af1158015611f14573d5f803e3d5ffd5b505050506040820184905260608201839052600580545f90611f35906137d9565b9182905550602080840191909152335f81815260198352604080822088835284528082208783528452808220805460ff19166001179055600554928252601390935291909120611f8491612d67565b50600580545f90815260146020908152604080832086518155918601516001830155850151600280830191909155606086015160038301556080860151600483015560a08601519382019390935560c0850151600682015560e08501516007909101805460ff1916911515919091179055908201805491612004836137d9565b91905055508160a00151816004015f828254612020919061372f565b909155505060c0820151600554604080519283526020830191909152810185905260608101849052859033907f70a5d2d3258adcf9978a193a4dd8fa309ae83a9f1046a0a5ea99a133bf34f9a59060800160405180910390a3612087338360800151612d72565b5050505050565b612096612e74565b600b55565b6120a3612e74565b5f82815260186020526040908190208290555182907f86257f0afab037798cc4548a6d86125f52c92410a1e29aff03d787d49dac20db906120e79084815260200190565b60405180910390a25050565b6120fb612e74565b60015460025460405163a9059cbb60e01b81526001600160a01b0391821660048201526024810184905291169063a9059cbb906044016020604051808303815f875af115801561214d573d5f803e3d5ffd5b505050506040513d601f19601f82011682018060405250810190611a5191906137be565b612179612e74565b60065482111561219c57604051633a6c77df60e01b815260040160405180910390fd5b7f000000000000000000000000000000000000000000000000000000000000000082036121dc576040516311c175a160e21b815260040160405180910390fd5b5f8281526011602090815260409182902060068101849055915183815284917ff920b24ea96b3814655944622f9eb86875e3193c5de1a9de018777e6c8705cee91015b60405180910390a2505050565b612234612e74565b60075482111561225757604051630d96812160e31b815260040160405180910390fd5b7f00000000000000000000000000000000000000000000000000000000000000008203612297576040516378fd0bb160e11b815260040160405180910390fd5b5f8281526012602090815260409182902060028101849055915183815284917ff721e9425607d38abda58b925d2a080b3aefa127d46973d2683875dc87cb9a6b910161221f565b6122e6612e74565b670de0b6b3a764000081111561230f576040516358d620b360e01b815260040160405180910390fd5b600c55565b61231c612e74565b6123255f612ea0565b565b6004545f9060ff1661233857505f90565b5f624016406003544361234b919061371c565b612355919061376a565b90506123628160026138d4565b610f8f906722b1c8c1227a000061376a565b600b546001600160a01b0382165f908152601a60205260408120549091429161239d919061372f565b10156123aa57505f919050565b600b546001600160a01b0383165f908152601a602052604090205442916123d09161372f565b611318919061371c565b6123e2612e74565b856123ed828461377d565b1461240b576040516311cba80760e21b815260040160405180910390fd5b6007545f9081526012602052604090206004015482108061243e57506007545f9081526012602052604090206005015481105b1561245c576040516311cba80760e21b815260040160405180910390fd5b6007545f9081526012602052604090206001015485101561249057604051630d2a50ed60e41b815260040160405180910390fd5b6040518060c0016040528087815260200186815260200185815260200184151581526020018381526020018281525060125f60075f81546124d0906137d9565b9182905550815260208082019290925260409081015f208351815583830151600182015583820151600282015560608085015160038301805460ff1916911515919091179055608080860151600484015560a09586015160059093019290925560075483518b81529485018a90528815159385019390935283018690528201849052917f6ae4a0e17ec15e82a1af6ff99411c44193a38f27f15c3ddd30b0f09ab1c5fd2c910160405180910390a2505050505050565b5f6009545f0361259757505f919050565b5f62401640600354436125aa919061371c565b6125b4919061376a565b6125bf9060026138d4565b6125d1906722b1c8c1227a000061376a565b6001600160a01b0384165f908152600e6020526040902054600954919250610f1a918390612eef565b612602612e74565b600280546001600160a01b0319166001600160a01b0392909216919091179055565b61262c612e74565b600180546001600160a01b0319166001600160a01b0392909216919091179055565b612656612e74565b60065f8154612664906137d9565b909155506040805161010081018252600680548083525f602080850182815285870183815260608088018581526080808a018f815260a08b018f815260c08c018f81528e151560e08e018181529b8b5260118a52998e90209c518d55965160018d0155945160028c0155915160038b0155905160048a01559151600589015591518787015593516007909601805460ff191696151596909617909555925485518a8152938401899052948301879052928201929092527fe0a2f8482bbba7e119c069eb63409ac33b15fc516cffed25aeabb6a9669e07c291016116ec565b61274a612e74565b7f0000000000000000000000000000000000000000000000000000000000000000821080612779575060065482115b1561279757604051633b87f10960e01b815260040160405180910390fd5b5f8281526011602090815260409182902060078101805460ff191685151590811790915592519283529184917fd0a7ceb410ade2d440d8ed59d6b338fe480f98025101655790e0de736edddabe910161221f565b6127f3612e74565b670de0b6b3a764000081111561281c576040516358d620b360e01b815260040160405180910390fd5b600d55565b612829612e74565b7f0000000000000000000000000000000000000000000000000000000000000000821080612858575060075482115b1561287657604051631dbb333f60e31b815260040160405180910390fd5b5f8281526012602090815260409182902060038101805460ff191685151590811790915592519283529184917f0bd772fd008a8dd5673c42a4f50f72220b2603eee55113cd6c38ff78d71e644f910161221f565b335f9081526013602052604090206128e29082612f14565b6128ff57604051633d9f63cb60e01b815260040160405180910390fd5b5f818152601460209081526040808320815161010081018352815480825260018084015483870152600284015483860152600384015460608401526004808501546080850152600585015460a0850152600685015460c085015260079094015460ff16151560e084015290865260189094529382902054925491516370a0823160e01b815230918101919091526001600160a01b03909116906370a0823190602401602060405180830381865afa1580156129bc573d5f803e3d5ffd5b505050506040513d601f19601f820116820180604052508101906129e091906137a7565b811115612a005760405163515d3e8160e01b815260040160405180910390fd5b335f9081526015602052604081206002810180549192612a1f836138df565b91905055508260a00151816004015f828254612a3b919061371c565b9091555050335f908152601360205260409020612a589085612f1f565b505f848152601460209081526040808320838155600181018490556002810184905560038101849055600481018490556005810184905560068101849055600701805460ff199081169091553380855260198452828520888401805187529085528386206060808b018051895291875296859020805490941690935588519051925184518981529586018b9052938501929092529383019190915291907f952aa29dabfc45e8c9bba19903b0a8bb9031c952db14a06ad48af137e5835b079060800160405180910390a3612b30338460800151612f2a565b81156119ce5760015460405163a9059cbb60e01b8152336004820152602481018490526001600160a01b039091169063a9059cbb906044016020604051808303815f875af1158015612b84573d5f803e3d5ffd5b505050506040513d601f19601f8201168201806040525081019061208791906137be565b612bb0612e74565b601e55565b601c602052815f5260405f208181548110612bce575f80fd5b5f918252602090912001546001600160a01b03169150829050565b612bf1612e74565b6001600160a01b038116612c1f57604051631e4fbdf760e01b81525f60048201526024015b60405180910390fd5b612c2881612ea0565b50565b5f61131882612fcf565b5f610f1a838361301d565b5f815f1904831115612c5f578115612c5f5763bac65e5b5f526004601cfd5b50670de0b6b3a764000091020490565b612c77613066565b6001600160a01b0381165f90815260106020526040902054600a54670de0b6b3a764000091612ca59161371c565b6001600160a01b0383165f908152600e6020526040902054612cc7919061377d565b612cd1919061376a565b6001600160a01b0382165f908152600f602052604081208054909190612cf890849061372f565b9091555050600a546001600160a01b039091165f90815260106020526040902055565b5f8285101580612d2b5750818410155b15612d3857506001612d5f565b50335f908152601960209081526040808320878452825280832086845290915290205460ff165b949350505050565b5f610f1a8383613184565b60045460ff16612dcf576004805460ff1916600117905543600381905560088190556040517fdaae9aa758637a0d349f036f099afd70aa88d8ac63fce096321de512ffebc16c91612dc69190815260200190565b60405180910390a15b612dd882612c6f565b8060095f828254612de9919061372f565b90915550506001600160a01b0382165f908152600e602052604081208054839290612e1590849061372f565b90915550506001600160a01b0382165f908152600e6020908152604080832054600f8352928190205481519384529183019190915233917fa051d58ced8df58040b29d2c939da70a826ae40290f77c9a66b38b8b85315f6591016120e7565b5f546001600160a01b031633146123255760405163118cdaa760e01b8152336004820152602401612c16565b5f80546001600160a01b038381166001600160a01b0319831681178455604051919092169283917f8be0079c531659141344cd1fd0a4f28419497f9722a3daafe3b4186f6b6457e09190a35050565b82820283158482048414178202612f0d5763ad251c275f526004601cfd5b0492915050565b5f610f1a83836132a0565b5f610f1a8383613328565b612f3382612c6f565b8060095f828254612f44919061371c565b90915550506001600160a01b0382165f908152600e602052604081208054839290612f7090849061371c565b90915550506001600160a01b0382165f908152600e6020908152604080832054600f8352928190205481519384529183019190915233917fe331ada0d0e61e9a4196bf4994f2519193d70a601daff346c4276d591664da9a91016120e7565b6318fb58646004525f818152602481208019548060011c9250806130165781545f935015613016576001925082820154156130165760029250828201541561301657600392505b5050919050565b6318fb58646004525f8281526024902081015468fbb67fda52d4bfb8bf8114150261304783612fcf565b821061131857604051634e23d03560e01b815260040160405180910390fd5b6009545f036130755743600855565b6008546003545f90624016409061308c908461371c565b613096919061376a565b6130a19060026138d4565b6130b3906722b1c8c1227a000061376a565b90505b4382101561317c575f624016406130cd818561376a565b6130d890600161372f565b6130e2919061377d565b624016406003546130f39190613794565b6130fd919061372f565b90505f43821061310d574361310f565b815b600954909150670de0b6b3a7640000613128868461371c565b613132908661377d565b61313c919061377d565b613146919061376a565b600a5f828254613156919061372f565b925050819055508093508184036131755761317260028461376a565b92505b50506130b6565b505043600855565b6318fb58646004525f8281526024812068fbb67fda52d4bfb8bf83036131b15763f5a267f15f526004601cfd5b826131c35768fbb67fda52d4bfb8bf92505b8019548160205280613267578154806131e3578483556001935050613298565b8481036131f05750613298565b60018301548061320b57856001850155600194505050613298565b858103613219575050613298565b6002840154806132355786600286015560019550505050613298565b86810361324457505050613298565b5f9283526040808420600190559183528183206002905582529020600390555060075b835f5260405f20805461329657600191821c8381018690558083019182905590821b8217831955909250613298565b505b505092915050565b6318fb58646004525f8281526024812068fbb67fda52d4bfb8bf83036132cd5763f5a267f15f526004601cfd5b826132df5768fbb67fda52d4bfb8bf92505b80195461331057805460019250831461332157600181015483146133215760028101548314613321575f9150613321565b80602052825f5260405f2054151591505b5092915050565b6318fb58646004525f8281526024812068fbb67fda52d4bfb8bf83036133555763f5a267f15f526004601cfd5b826133675768fbb67fda52d4bfb8bf92505b801954806133d05760019250838254036133945760018201805483556002830180549091555f9055613298565b836001830154036133b25760028201805460018401555f9055613298565b836002830154036133c8575f6002830155613298565b5f9250613298565b81602052835f5260405f208054806133e9575050613298565b60018360011c03925082600182031461341357828401548060018303860155805f52508060405f20555b5060018260011b178319555f81555060019250505092915050565b6040518061010001604052805f81526020015f81526020015f81526020015f81526020015f81526020015f81526020015f81526020015f151581525090565b5f6020828403121561347d575f80fd5b5035919050565b80356001600160a01b038116811461349a575f80fd5b919050565b5f805f606084860312156134b1575f80fd5b6134ba84613484565b95602085013595506040909401359392505050565b602080825282518282018190525f918401906040840190835b81811015613557578351805184526020810151602085015260408101516040850152606081015160608501526080810151608085015260a081015160a085015260c081015160c085015260e0810151151560e085015250610100830192506020840193506001810190506134e8565b509095945050505050565b5f60208284031215613572575f80fd5b610f1a82613484565b5f806040838503121561358c575f80fd5b50508035926020909101359150565b602080825282518282018190525f918401906040840190835b818110156135575783516001600160a01b03168352602093840193909201916001016135b4565b5f805f606084860312156135ed575f80fd5b505081359360208301359350604090920135919050565b8015158114612c28575f80fd5b5f805f805f8060c08789031215613626575f80fd5b863595506020870135945060408701359350606087013561364681613604565b9598949750929560808101359460a0909101359350915050565b5f805f8060808587031215613673575f80fd5b843593506020850135925060408501359150606085013561369381613604565b939692955090935050565b5f80604083850312156136af575f80fd5b8235915060208301356136c181613604565b809150509250929050565b5f80604083850312156136dd575f80fd5b6136e683613484565b946020939093013593505050565b634e487b7160e01b5f52604160045260245ffd5b634e487b7160e01b5f52601160045260245ffd5b8181038181111561131857611318613708565b8082018082111561131857611318613708565b634e487b7160e01b5f52603260045260245ffd5b634e487b7160e01b5f52601260045260245ffd5b5f8261377857613778613756565b500490565b808202811582820484141761131857611318613708565b5f826137a2576137a2613756565b500690565b5f602082840312156137b7575f80fd5b5051919050565b5f602082840312156137ce575f80fd5b8151610f1a81613604565b5f600182016137ea576137ea613708565b5060010190565b6001815b600184111561382c5780850481111561381057613810613708565b600184161561381e57908102905b60019390931c9280026137f5565b935093915050565b5f8261384257506001611318565b8161384e57505f611318565b8160018114613864576002811461386e5761388a565b6001915050611318565b60ff84111561387f5761387f613708565b50506001821b611318565b5060208310610133831016604e8410600b84101617156138ad575081810a611318565b6138b95f1984846137f1565b805f19048211156138cc576138cc613708565b029392505050565b5f610f1a8383613834565b5f816138ed576138ed613708565b505f19019056fea264697066735822122021dc7672063b3650f510e68379fbf9657c7b57d7b4e289be99f002d4e190eb7f64736f6c634300081a0033",
			"opcodes": "PUSH1 0xC0 PUSH1 0x40 MSTORE PUSH3 0x15180 PUSH1 0xB SSTORE PUSH7 0x58D15E17628000 PUSH1 0xC SSTORE PUSH8 0xA688906BD8B0000 PUSH1 0xD SSTORE PUSH7 0x11C37937E08000 PUSH1 0x1E SSTORE CALLVALUE DUP1 ISZERO PUSH2 0x38 JUMPI PUSH0 DUP1 REVERT JUMPDEST POP CALLER DUP1 PUSH2 0x5E JUMPI PUSH1 0x40 MLOAD PUSH4 0x1E4FBDF7 PUSH1 0xE0 SHL DUP2 MSTORE PUSH0 PUSH1 0x4 DUP3 ADD MSTORE PUSH1 0x24 ADD PUSH1 0x40 MLOAD DUP1 SWAP2 SUB SWAP1 REVERT JUMPDEST PUSH2 0x67 DUP2 PUSH2 0x1E9 JUMP JUMPDEST POP PUSH1 0x6 PUSH0 DUP2 SLOAD PUSH2 0x76 SWAP1 PUSH2 0x238 JUMP JUMPDEST SWAP2 SWAP1 POP DUP2 SWAP1 SSTORE PUSH1 0x80 DUP2 DUP2 MSTORE POP POP PUSH1 0x40 MLOAD DUP1 PUSH2 0x100 ADD PUSH1 0x40 MSTORE DUP1 PUSH1 0x80 MLOAD DUP2 MSTORE PUSH1 0x20 ADD PUSH0 NOT DUP2 MSTORE PUSH1 0x20 ADD PUSH0 NOT DUP2 MSTORE PUSH1 0x20 ADD PUSH0 NOT DUP2 MSTORE PUSH1 0x20 ADD PUSH1 0x64 DUP2 MSTORE PUSH1 0x20 ADD PUSH1 0x1 DUP2 MSTORE PUSH1 0x20 ADD PUSH0 NOT DUP2 MSTORE PUSH1 0x20 ADD PUSH0 ISZERO ISZERO DUP2 MSTORE POP PUSH1 0x11 PUSH0 PUSH1 0x80 MLOAD DUP2 MSTORE PUSH1 0x20 ADD SWAP1 DUP2 MSTORE PUSH1 0x20 ADD PUSH0 KECCAK256 PUSH0 DUP3 ADD MLOAD DUP2 PUSH0 ADD SSTORE PUSH1 0x20 DUP3 ADD MLOAD DUP2 PUSH1 0x1 ADD SSTORE PUSH1 0x40 DUP3 ADD MLOAD DUP2 PUSH1 0x2 ADD SSTORE PUSH1 0x60 DUP3 ADD MLOAD DUP2 PUSH1 0x3 ADD SSTORE PUSH1 0x80 DUP3 ADD MLOAD DUP2 PUSH1 0x4 ADD SSTORE PUSH1 0xA0 DUP3 ADD MLOAD DUP2 PUSH1 0x5 ADD SSTORE PUSH1 0xC0 DUP3 ADD MLOAD DUP2 PUSH1 0x6 ADD SSTORE PUSH1 0xE0 DUP3 ADD MLOAD DUP2 PUSH1 0x7 ADD PUSH0 PUSH2 0x100 EXP DUP2 SLOAD DUP2 PUSH1 0xFF MUL NOT AND SWAP1 DUP4 ISZERO ISZERO MUL OR SWAP1 SSTORE POP SWAP1 POP POP PUSH1 0x40 MLOAD DUP1 PUSH1 0xC0 ADD PUSH1 0x40 MSTORE DUP1 PUSH1 0x4 DUP2 MSTORE PUSH1 0x20 ADD PUSH1 0x1C DUP2 MSTORE PUSH1 0x20 ADD PUSH0 NOT DUP2 MSTORE PUSH1 0x20 ADD PUSH0 ISZERO ISZERO DUP2 MSTORE PUSH1 0x20 ADD PUSH1 0x2 DUP2 MSTORE PUSH1 0x20 ADD PUSH1 0x2 DUP2 MSTORE POP PUSH1 0x12 PUSH0 PUSH1 0x7 PUSH0 DUP2 SLOAD PUSH2 0x185 SWAP1 PUSH2 0x238 JUMP JUMPDEST SWAP2 DUP3 SWAP1 SSTORE POP DUP2 MSTORE PUSH1 0x20 DUP1 DUP3 ADD SWAP3 SWAP1 SWAP3 MSTORE PUSH1 0x40 SWAP1 DUP2 ADD PUSH0 KECCAK256 DUP4 MLOAD DUP2 SSTORE SWAP2 DUP4 ADD MLOAD PUSH1 0x1 DUP4 ADD SSTORE DUP3 ADD MLOAD PUSH1 0x2 DUP3 ADD SSTORE PUSH1 0x60 DUP3 ADD MLOAD PUSH1 0x3 DUP3 ADD DUP1 SLOAD PUSH1 0xFF NOT AND SWAP2 ISZERO ISZERO SWAP2 SWAP1 SWAP2 OR SWAP1 SSTORE PUSH1 0x80 DUP3 ADD MLOAD PUSH1 0x4 DUP3 ADD SSTORE PUSH1 0xA0 SWAP2 DUP3 ADD MLOAD PUSH1 0x5 SWAP1 SWAP2 ADD SSTORE PUSH1 0x7 SLOAD SWAP1 MSTORE PUSH2 0x25C JUMP JUMPDEST PUSH0 DUP1 SLOAD PUSH1 0x1 PUSH1 0x1 PUSH1 0xA0 SHL SUB DUP4 DUP2 AND PUSH1 0x1 PUSH1 0x1 PUSH1 0xA0 SHL SUB NOT DUP4 AND DUP2 OR DUP5 SSTORE PUSH1 0x40 MLOAD SWAP2 SWAP1 SWAP3 AND SWAP3 DUP4 SWAP2 PUSH32 0x8BE0079C531659141344CD1FD0A4F28419497F9722A3DAAFE3B4186F6B6457E0 SWAP2 SWAP1 LOG3 POP POP JUMP JUMPDEST PUSH0 PUSH1 0x1 DUP3 ADD PUSH2 0x255 JUMPI PUSH4 0x4E487B71 PUSH1 0xE0 SHL PUSH0 MSTORE PUSH1 0x11 PUSH1 0x4 MSTORE PUSH1 0x24 PUSH0 REVERT JUMPDEST POP PUSH1 0x1 ADD SWAP1 JUMP JUMPDEST PUSH1 0x80 MLOAD PUSH1 0xA0 MLOAD PUSH2 0x392A PUSH2 0x2AE PUSH0 CODECOPY PUSH0 DUP2 DUP2 PUSH2 0x75D ADD MSTORE DUP2 DUP2 PUSH2 0x1B4D ADD MSTORE DUP2 DUP2 PUSH2 0x2259 ADD MSTORE PUSH2 0x282B ADD MSTORE PUSH0 DUP2 DUP2 PUSH2 0xD0D ADD MSTORE DUP2 DUP2 PUSH2 0x174B ADD MSTORE DUP2 DUP2 PUSH2 0x1971 ADD MSTORE DUP2 DUP2 PUSH2 0x219E ADD MSTORE PUSH2 0x274C ADD MSTORE PUSH2 0x392A PUSH0 RETURN INVALID PUSH1 0x80 PUSH1 0x40 MSTORE PUSH1 0x4 CALLDATASIZE LT PUSH2 0x3BE JUMPI PUSH0 CALLDATALOAD PUSH1 0xE0 SHR DUP1 PUSH4 0x77DA8F51 GT PUSH2 0x1F4 JUMPI DUP1 PUSH4 0xA9F8D181 GT PUSH2 0x113 JUMPI DUP1 PUSH4 0xDF1E3B7F GT PUSH2 0xA8 JUMPI DUP1 PUSH4 0xE92820E6 GT PUSH2 0x78 JUMPI DUP1 PUSH4 0xE92820E6 EQ PUSH2 0xCDD JUMPI DUP1 PUSH4 0xEA26FA2D EQ PUSH2 0xCFC JUMPI DUP1 PUSH4 0xEBF778CD EQ PUSH2 0xD2F JUMPI DUP1 PUSH4 0xEEF3B2D0 EQ PUSH2 0xD4E JUMPI DUP1 PUSH4 0xF2FDE38B EQ PUSH2 0xD63 JUMPI PUSH0 DUP1 REVERT JUMPDEST DUP1 PUSH4 0xDF1E3B7F EQ PUSH2 0xC0B JUMPI DUP1 PUSH4 0xE0D152AF EQ PUSH2 0xC2A JUMPI DUP1 PUSH4 0xE2B15D8C EQ PUSH2 0xC89 JUMPI DUP1 PUSH4 0xE5E63178 EQ PUSH2 0xCC8 JUMPI PUSH0 DUP1 REVERT JUMPDEST DUP1 PUSH4 0xD1471296 GT PUSH2 0xE3 JUMPI DUP1 PUSH4 0xD1471296 EQ PUSH2 0xB12 JUMPI DUP1 PUSH4 0xD518ED7E EQ PUSH2 0xB31 JUMPI DUP1 PUSH4 0xD9BA62B3 EQ PUSH2 0xB50 JUMPI DUP1 PUSH4 0xDD6A4C65 EQ PUSH2 0xB6F JUMPI PUSH0 DUP1 REVERT JUMPDEST DUP1 PUSH4 0xA9F8D181 EQ PUSH2 0xA91 JUMPI DUP1 PUSH4 0xC2435894 EQ PUSH2 0xAA6 JUMPI DUP1 PUSH4 0xC51A2BBA EQ PUSH2 0xAC5 JUMPI DUP1 PUSH4 0xCA181170 EQ PUSH2 0xAE4 JUMPI PUSH0 DUP1 REVERT JUMPDEST DUP1 PUSH4 0x8DA5CB5B GT PUSH2 0x189 JUMPI DUP1 PUSH4 0x9618B31C GT PUSH2 0x159 JUMPI DUP1 PUSH4 0x9618B31C EQ PUSH2 0xA0A JUMPI DUP1 PUSH4 0x970707B2 EQ PUSH2 0xA1F JUMPI DUP1 PUSH4 0x9CA423B3 EQ PUSH2 0xA3E JUMPI DUP1 PUSH4 0x9F715F60 EQ PUSH2 0xA72 JUMPI PUSH0 DUP1 REVERT JUMPDEST DUP1 PUSH4 0x8DA5CB5B EQ PUSH2 0x964 JUMPI DUP1 PUSH4 0x8DFC3933 EQ PUSH2 0x994 JUMPI DUP1 PUSH4 0x94FC19E4 EQ PUSH2 0x9D2 JUMPI DUP1 PUSH4 0x960AC229 EQ PUSH2 0x9EB JUMPI PUSH0 DUP1 REVERT JUMPDEST DUP1 PUSH4 0x84AE2BC6 GT PUSH2 0x1C4 JUMPI DUP1 PUSH4 0x84AE2BC6 EQ PUSH2 0x8F6 JUMPI DUP1 PUSH4 0x8685E3F2 EQ PUSH2 0x90B JUMPI DUP1 PUSH4 0x86B3CD26 EQ PUSH2 0x92A JUMPI DUP1 PUSH4 0x88199733 EQ PUSH2 0x945 JUMPI PUSH0 DUP1 REVERT JUMPDEST DUP1 PUSH4 0x77DA8F51 EQ PUSH2 0x883 JUMPI DUP1 PUSH4 0x787A08A6 EQ PUSH2 0x897 JUMPI DUP1 PUSH4 0x7E08B5B3 EQ PUSH2 0x8AC JUMPI DUP1 PUSH4 0x811C5089 EQ PUSH2 0x8D7 JUMPI PUSH0 DUP1 REVERT JUMPDEST DUP1 PUSH4 0x4658A2CC GT PUSH2 0x2E0 JUMPI DUP1 PUSH4 0x5D5DF7B7 GT PUSH2 0x275 JUMPI DUP1 PUSH4 0x6D12FF52 GT PUSH2 0x245 JUMPI DUP1 PUSH4 0x6D12FF52 EQ PUSH2 0x826 JUMPI DUP1 PUSH4 0x713494D7 EQ PUSH2 0x83B JUMPI DUP1 PUSH4 0x715018A6 EQ PUSH2 0x85A JUMPI DUP1 PUSH4 0x72779CBA EQ PUSH2 0x86E JUMPI PUSH0 DUP1 REVERT JUMPDEST DUP1 PUSH4 0x5D5DF7B7 EQ PUSH2 0x7B3 JUMPI DUP1 PUSH4 0x5FD9491D EQ PUSH2 0x7D2 JUMPI DUP1 PUSH4 0x6756A1C7 EQ PUSH2 0x7E8 JUMPI DUP1 PUSH4 0x69F0EE33 EQ PUSH2 0x807 JUMPI PUSH0 DUP1 REVERT JUMPDEST DUP1 PUSH4 0x542F9E6A GT PUSH2 0x2B0 JUMPI DUP1 PUSH4 0x542F9E6A EQ PUSH2 0x6C1 JUMPI DUP1 PUSH4 0x59058AD1 EQ PUSH2 0x74C JUMPI DUP1 PUSH4 0x5A5CCEF0 EQ PUSH2 0x77F JUMPI DUP1 PUSH4 0x5C7421E3 EQ PUSH2 0x794 JUMPI PUSH0 DUP1 REVERT JUMPDEST DUP1 PUSH4 0x4658A2CC EQ PUSH2 0x643 JUMPI DUP1 PUSH4 0x476E2E66 EQ PUSH2 0x66E JUMPI DUP1 PUSH4 0x48CD4CB1 EQ PUSH2 0x68D JUMPI DUP1 PUSH4 0x4FC3F41A EQ PUSH2 0x6A2 JUMPI PUSH0 DUP1 REVERT JUMPDEST DUP1 PUSH4 0x30775A94 GT PUSH2 0x356 JUMPI DUP1 PUSH4 0x3CCFD60B GT PUSH2 0x326 JUMPI DUP1 PUSH4 0x3CCFD60B EQ PUSH2 0x5C5 JUMPI DUP1 PUSH4 0x3E89BB13 EQ PUSH2 0x5D9 JUMPI DUP1 PUSH4 0x40F5DA9E EQ PUSH2 0x5EC JUMPI DUP1 PUSH4 0x41A0894D EQ PUSH2 0x617 JUMPI PUSH0 DUP1 REVERT JUMPDEST DUP1 PUSH4 0x30775A94 EQ PUSH2 0x55D JUMPI DUP1 PUSH4 0x31D7A262 EQ PUSH2 0x573 JUMPI DUP1 PUSH4 0x372500AB EQ PUSH2 0x592 JUMPI DUP1 PUSH4 0x3A8EE01E EQ PUSH2 0x5A6 JUMPI PUSH0 DUP1 REVERT JUMPDEST DUP1 PUSH4 0x1E57057D GT PUSH2 0x391 JUMPI DUP1 PUSH4 0x1E57057D EQ PUSH2 0x4C8 JUMPI DUP1 PUSH4 0x234F3F1B EQ PUSH2 0x4F3 JUMPI DUP1 PUSH4 0x24B4464E EQ PUSH2 0x51E JUMPI DUP1 PUSH4 0x2FC96CE6 EQ PUSH2 0x549 JUMPI PUSH0 DUP1 REVERT JUMPDEST DUP1 PUSH4 0x10D96759 EQ PUSH2 0x3C2 JUMPI DUP1 PUSH4 0x1116A59F EQ PUSH2 0x448 JUMPI DUP1 PUSH4 0x157E204C EQ PUSH2 0x471 JUMPI DUP1 PUSH4 0x1A267CD2 EQ PUSH2 0x49D JUMPI JUMPDEST PUSH0 DUP1 REVERT JUMPDEST CALLVALUE DUP1 ISZERO PUSH2 0x3CD JUMPI PUSH0 DUP1 REVERT JUMPDEST POP PUSH2 0x414 PUSH2 0x3DC CALLDATASIZE PUSH1 0x4 PUSH2 0x346D JUMP JUMPDEST PUSH1 0x12 PUSH1 0x20 MSTORE PUSH0 SWAP1 DUP2 MSTORE PUSH1 0x40 SWAP1 KECCAK256 DUP1 SLOAD PUSH1 0x1 DUP3 ADD SLOAD PUSH1 0x2 DUP4 ADD SLOAD PUSH1 0x3 DUP5 ADD SLOAD PUSH1 0x4 DUP6 ADD SLOAD PUSH1 0x5 SWAP1 SWAP6 ADD SLOAD SWAP4 SWAP5 SWAP3 SWAP4 SWAP2 SWAP3 PUSH1 0xFF SWAP1 SWAP2 AND SWAP2 DUP7 JUMP JUMPDEST PUSH1 0x40 DUP1 MLOAD SWAP7 DUP8 MSTORE PUSH1 0x20 DUP8 ADD SWAP6 SWAP1 SWAP6 MSTORE SWAP4 DUP6 ADD SWAP3 SWAP1 SWAP3 MSTORE ISZERO ISZERO PUSH1 0x60 DUP5 ADD MSTORE PUSH1 0x80 DUP4 ADD MSTORE PUSH1 0xA0 DUP3 ADD MSTORE PUSH1 0xC0 ADD JUMPDEST PUSH1 0x40 MLOAD DUP1 SWAP2 SUB SWAP1 RETURN JUMPDEST CALLVALUE DUP1 ISZERO PUSH2 0x453 JUMPI PUSH0 DUP1 REVERT JUMPDEST POP PUSH2 0x463 PUSH8 0x22B1C8C1227A0000 DUP2 JUMP JUMPDEST PUSH1 0x40 MLOAD SWAP1 DUP2 MSTORE PUSH1 0x20 ADD PUSH2 0x43F JUMP JUMPDEST CALLVALUE DUP1 ISZERO PUSH2 0x47C JUMPI PUSH0 DUP1 REVERT JUMPDEST POP PUSH2 0x490 PUSH2 0x48B CALLDATASIZE PUSH1 0x4 PUSH2 0x349F JUMP JUMPDEST PUSH2 0xD82 JUMP JUMPDEST PUSH1 0x40 MLOAD PUSH2 0x43F SWAP2 SWAP1 PUSH2 0x34CF JUMP JUMPDEST CALLVALUE DUP1 ISZERO PUSH2 0x4A8 JUMPI PUSH0 DUP1 REVERT JUMPDEST POP PUSH2 0x463 PUSH2 0x4B7 CALLDATASIZE PUSH1 0x4 PUSH2 0x3562 JUMP JUMPDEST PUSH1 0x1D PUSH1 0x20 MSTORE PUSH0 SWAP1 DUP2 MSTORE PUSH1 0x40 SWAP1 KECCAK256 SLOAD DUP2 JUMP JUMPDEST CALLVALUE DUP1 ISZERO PUSH2 0x4D3 JUMPI PUSH0 DUP1 REVERT JUMPDEST POP PUSH2 0x463 PUSH2 0x4E2 CALLDATASIZE PUSH1 0x4 PUSH2 0x3562 JUMP JUMPDEST PUSH1 0x13 PUSH1 0x20 MSTORE PUSH0 SWAP1 DUP2 MSTORE PUSH1 0x40 SWAP1 KECCAK256 SLOAD DUP2 JUMP JUMPDEST CALLVALUE DUP1 ISZERO PUSH2 0x4FE JUMPI PUSH0 DUP1 REVERT JUMPDEST POP PUSH2 0x463 PUSH2 0x50D CALLDATASIZE PUSH1 0x4 PUSH2 0x3562 JUMP JUMPDEST PUSH1 0xE PUSH1 0x20 MSTORE PUSH0 SWAP1 DUP2 MSTORE PUSH1 0x40 SWAP1 KECCAK256 SLOAD DUP2 JUMP JUMPDEST CALLVALUE DUP1 ISZERO PUSH2 0x529 JUMPI PUSH0 DUP1 REVERT JUMPDEST POP PUSH2 0x463 PUSH2 0x538 CALLDATASIZE PUSH1 0x4 PUSH2 0x346D JUMP JUMPDEST PUSH1 0x18 PUSH1 0x20 MSTORE PUSH0 SWAP1 DUP2 MSTORE PUSH1 0x40 SWAP1 KECCAK256 SLOAD DUP2 JUMP JUMPDEST CALLVALUE DUP1 ISZERO PUSH2 0x554 JUMPI PUSH0 DUP1 REVERT JUMPDEST POP PUSH2 0x463 PUSH2 0xF21 JUMP JUMPDEST CALLVALUE DUP1 ISZERO PUSH2 0x568 JUMPI PUSH0 DUP1 REVERT JUMPDEST POP PUSH2 0x571 PUSH2 0xF95 JUMP JUMPDEST STOP JUMPDEST CALLVALUE DUP1 ISZERO PUSH2 0x57E JUMPI PUSH0 DUP1 REVERT JUMPDEST POP PUSH2 0x463 PUSH2 0x58D CALLDATASIZE PUSH1 0x4 PUSH2 0x3562 JUMP JUMPDEST PUSH2 0x12C5 JUMP JUMPDEST CALLVALUE DUP1 ISZERO PUSH2 0x59D JUMPI PUSH0 DUP1 REVERT JUMPDEST POP PUSH2 0x571 PUSH2 0x14C3 JUMP JUMPDEST CALLVALUE DUP1 ISZERO PUSH2 0x5B1 JUMPI PUSH0 DUP1 REVERT JUMPDEST POP PUSH2 0x571 PUSH2 0x5C0 CALLDATASIZE PUSH1 0x4 PUSH2 0x357B JUMP JUMPDEST PUSH2 0x16FA JUMP JUMPDEST CALLVALUE DUP1 ISZERO PUSH2 0x5D0 JUMPI PUSH0 DUP1 REVERT JUMPDEST POP PUSH2 0x571 PUSH2 0x19D4 JUMP JUMPDEST PUSH2 0x571 PUSH2 0x5E7 CALLDATASIZE PUSH1 0x4 PUSH2 0x3562 JUMP JUMPDEST PUSH2 0x1A55 JUMP JUMPDEST CALLVALUE DUP1 ISZERO PUSH2 0x5F7 JUMPI PUSH0 DUP1 REVERT JUMPDEST POP PUSH2 0x463 PUSH2 0x606 CALLDATASIZE PUSH1 0x4 PUSH2 0x3562 JUMP JUMPDEST PUSH1 0xF PUSH1 0x20 MSTORE PUSH0 SWAP1 DUP2 MSTORE PUSH1 0x40 SWAP1 KECCAK256 SLOAD DUP2 JUMP JUMPDEST CALLVALUE DUP1 ISZERO PUSH2 0x622 JUMPI PUSH0 DUP1 REVERT JUMPDEST POP PUSH2 0x636 PUSH2 0x631 CALLDATASIZE PUSH1 0x4 PUSH2 0x3562 JUMP JUMPDEST PUSH2 0x1C20 JUMP JUMPDEST PUSH1 0x40 MLOAD PUSH2 0x43F SWAP2 SWAP1 PUSH2 0x359B JUMP JUMPDEST CALLVALUE DUP1 ISZERO PUSH2 0x64E JUMPI PUSH0 DUP1 REVERT JUMPDEST POP PUSH2 0x463 PUSH2 0x65D CALLDATASIZE PUSH1 0x4 PUSH2 0x3562 JUMP JUMPDEST PUSH1 0x10 PUSH1 0x20 MSTORE PUSH0 SWAP1 DUP2 MSTORE PUSH1 0x40 SWAP1 KECCAK256 SLOAD DUP2 JUMP JUMPDEST CALLVALUE DUP1 ISZERO PUSH2 0x679 JUMPI PUSH0 DUP1 REVERT JUMPDEST POP PUSH2 0x571 PUSH2 0x688 CALLDATASIZE PUSH1 0x4 PUSH2 0x35DB JUMP JUMPDEST PUSH2 0x1C93 JUMP JUMPDEST CALLVALUE DUP1 ISZERO PUSH2 0x698 JUMPI PUSH0 DUP1 REVERT JUMPDEST POP PUSH2 0x463 PUSH1 0x3 SLOAD DUP2 JUMP JUMPDEST CALLVALUE DUP1 ISZERO PUSH2 0x6AD JUMPI PUSH0 DUP1 REVERT JUMPDEST POP PUSH2 0x571 PUSH2 0x6BC CALLDATASIZE PUSH1 0x4 PUSH2 0x346D JUMP JUMPDEST PUSH2 0x208E JUMP JUMPDEST CALLVALUE DUP1 ISZERO PUSH2 0x6CC JUMPI PUSH0 DUP1 REVERT JUMPDEST POP PUSH2 0x717 PUSH2 0x6DB CALLDATASIZE PUSH1 0x4 PUSH2 0x3562 JUMP JUMPDEST PUSH1 0x15 PUSH1 0x20 MSTORE PUSH0 SWAP1 DUP2 MSTORE PUSH1 0x40 SWAP1 KECCAK256 DUP1 SLOAD PUSH1 0x1 DUP3 ADD SLOAD PUSH1 0x2 DUP4 ADD SLOAD PUSH1 0x3 DUP5 ADD SLOAD PUSH1 0x4 DUP6 ADD SLOAD PUSH1 0x5 DUP7 ADD SLOAD PUSH1 0x6 SWAP1 SWAP7 ADD SLOAD SWAP5 SWAP6 SWAP4 SWAP5 SWAP3 SWAP4 SWAP2 SWAP3 SWAP1 SWAP2 SWAP1 DUP8 JUMP JUMPDEST PUSH1 0x40 DUP1 MLOAD SWAP8 DUP9 MSTORE PUSH1 0x20 DUP9 ADD SWAP7 SWAP1 SWAP7 MSTORE SWAP5 DUP7 ADD SWAP4 SWAP1 SWAP4 MSTORE PUSH1 0x60 DUP6 ADD SWAP2 SWAP1 SWAP2 MSTORE PUSH1 0x80 DUP5 ADD MSTORE PUSH1 0xA0 DUP4 ADD MSTORE PUSH1 0xC0 DUP3 ADD MSTORE PUSH1 0xE0 ADD PUSH2 0x43F JUMP JUMPDEST CALLVALUE DUP1 ISZERO PUSH2 0x757 JUMPI PUSH0 DUP1 REVERT JUMPDEST POP PUSH2 0x463 PUSH32 0x0 DUP2 JUMP JUMPDEST CALLVALUE DUP1 ISZERO PUSH2 0x78A JUMPI PUSH0 DUP1 REVERT JUMPDEST POP PUSH2 0x463 PUSH1 0x9 SLOAD DUP2 JUMP JUMPDEST CALLVALUE DUP1 ISZERO PUSH2 0x79F JUMPI PUSH0 DUP1 REVERT JUMPDEST POP PUSH2 0x571 PUSH2 0x7AE CALLDATASIZE PUSH1 0x4 PUSH2 0x357B JUMP JUMPDEST PUSH2 0x209B JUMP JUMPDEST CALLVALUE DUP1 ISZERO PUSH2 0x7BE JUMPI PUSH0 DUP1 REVERT JUMPDEST POP PUSH2 0x571 PUSH2 0x7CD CALLDATASIZE PUSH1 0x4 PUSH2 0x346D JUMP JUMPDEST PUSH2 0x20F3 JUMP JUMPDEST CALLVALUE DUP1 ISZERO PUSH2 0x7DD JUMPI PUSH0 DUP1 REVERT JUMPDEST POP PUSH2 0x463 PUSH3 0x401640 DUP2 JUMP JUMPDEST CALLVALUE DUP1 ISZERO PUSH2 0x7F3 JUMPI PUSH0 DUP1 REVERT JUMPDEST POP PUSH2 0x571 PUSH2 0x802 CALLDATASIZE PUSH1 0x4 PUSH2 0x357B JUMP JUMPDEST PUSH2 0x2171 JUMP JUMPDEST CALLVALUE DUP1 ISZERO PUSH2 0x812 JUMPI PUSH0 DUP1 REVERT JUMPDEST POP PUSH2 0x571 PUSH2 0x821 CALLDATASIZE PUSH1 0x4 PUSH2 0x357B JUMP JUMPDEST PUSH2 0x222C JUMP JUMPDEST CALLVALUE DUP1 ISZERO PUSH2 0x831 JUMPI PUSH0 DUP1 REVERT JUMPDEST POP PUSH2 0x463 PUSH1 0x7 SLOAD DUP2 JUMP JUMPDEST CALLVALUE DUP1 ISZERO PUSH2 0x846 JUMPI PUSH0 DUP1 REVERT JUMPDEST POP PUSH2 0x571 PUSH2 0x855 CALLDATASIZE PUSH1 0x4 PUSH2 0x346D JUMP JUMPDEST PUSH2 0x22DE JUMP JUMPDEST CALLVALUE DUP1 ISZERO PUSH2 0x865 JUMPI PUSH0 DUP1 REVERT JUMPDEST POP PUSH2 0x571 PUSH2 0x2314 JUMP JUMPDEST CALLVALUE DUP1 ISZERO PUSH2 0x879 JUMPI PUSH0 DUP1 REVERT JUMPDEST POP PUSH2 0x463 PUSH1 0x6 SLOAD DUP2 JUMP JUMPDEST CALLVALUE DUP1 ISZERO PUSH2 0x88E JUMPI PUSH0 DUP1 REVERT JUMPDEST POP PUSH2 0x463 PUSH2 0x2327 JUMP JUMPDEST CALLVALUE DUP1 ISZERO PUSH2 0x8A2 JUMPI PUSH0 DUP1 REVERT JUMPDEST POP PUSH2 0x463 PUSH1 0xB SLOAD DUP2 JUMP JUMPDEST CALLVALUE DUP1 ISZERO PUSH2 0x8B7 JUMPI PUSH0 DUP1 REVERT JUMPDEST POP PUSH2 0x463 PUSH2 0x8C6 CALLDATASIZE PUSH1 0x4 PUSH2 0x3562 JUMP JUMPDEST PUSH1 0x1A PUSH1 0x20 MSTORE PUSH0 SWAP1 DUP2 MSTORE PUSH1 0x40 SWAP1 KECCAK256 SLOAD DUP2 JUMP JUMPDEST CALLVALUE DUP1 ISZERO PUSH2 0x8E2 JUMPI PUSH0 DUP1 REVERT JUMPDEST POP PUSH2 0x463 PUSH2 0x8F1 CALLDATASIZE PUSH1 0x4 PUSH2 0x3562 JUMP JUMPDEST PUSH2 0x2374 JUMP JUMPDEST CALLVALUE DUP1 ISZERO PUSH2 0x901 JUMPI PUSH0 DUP1 REVERT JUMPDEST POP PUSH2 0x463 PUSH1 0xC SLOAD DUP2 JUMP JUMPDEST CALLVALUE DUP1 ISZERO PUSH2 0x916 JUMPI PUSH0 DUP1 REVERT JUMPDEST POP PUSH2 0x571 PUSH2 0x925 CALLDATASIZE PUSH1 0x4 PUSH2 0x3611 JUMP JUMPDEST PUSH2 0x23DA JUMP JUMPDEST CALLVALUE DUP1 ISZERO PUSH2 0x935 JUMPI PUSH0 DUP1 REVERT JUMPDEST POP PUSH2 0x463 PUSH8 0xDE0B6B3A7640000 DUP2 JUMP JUMPDEST CALLVALUE DUP1 ISZERO PUSH2 0x950 JUMPI PUSH0 DUP1 REVERT JUMPDEST POP PUSH2 0x463 PUSH2 0x95F CALLDATASIZE PUSH1 0x4 PUSH2 0x3562 JUMP JUMPDEST PUSH2 0x2586 JUMP JUMPDEST CALLVALUE DUP1 ISZERO PUSH2 0x96F JUMPI PUSH0 DUP1 REVERT JUMPDEST POP PUSH0 SLOAD PUSH1 0x1 PUSH1 0x1 PUSH1 0xA0 SHL SUB AND JUMPDEST PUSH1 0x40 MLOAD PUSH1 0x1 PUSH1 0x1 PUSH1 0xA0 SHL SUB SWAP1 SWAP2 AND DUP2 MSTORE PUSH1 0x20 ADD PUSH2 0x43F JUMP JUMPDEST CALLVALUE DUP1 ISZERO PUSH2 0x99F JUMPI PUSH0 DUP1 REVERT JUMPDEST POP PUSH2 0x9C2 PUSH2 0x9AE CALLDATASIZE PUSH1 0x4 PUSH2 0x3562 JUMP JUMPDEST PUSH1 0x17 PUSH1 0x20 MSTORE PUSH0 SWAP1 DUP2 MSTORE PUSH1 0x40 SWAP1 KECCAK256 SLOAD PUSH1 0xFF AND DUP2 JUMP JUMPDEST PUSH1 0x40 MLOAD SWAP1 ISZERO ISZERO DUP2 MSTORE PUSH1 0x20 ADD PUSH2 0x43F JUMP JUMPDEST CALLVALUE DUP1 ISZERO PUSH2 0x9DD JUMPI PUSH0 DUP1 REVERT JUMPDEST POP PUSH1 0x4 SLOAD PUSH2 0x9C2 SWAP1 PUSH1 0xFF AND DUP2 JUMP JUMPDEST CALLVALUE DUP1 ISZERO PUSH2 0x9F6 JUMPI PUSH0 DUP1 REVERT JUMPDEST POP PUSH2 0x571 PUSH2 0xA05 CALLDATASIZE PUSH1 0x4 PUSH2 0x3562 JUMP JUMPDEST PUSH2 0x25FA JUMP JUMPDEST CALLVALUE DUP1 ISZERO PUSH2 0xA15 JUMPI PUSH0 DUP1 REVERT JUMPDEST POP PUSH2 0x463 PUSH1 0xD SLOAD DUP2 JUMP JUMPDEST CALLVALUE DUP1 ISZERO PUSH2 0xA2A JUMPI PUSH0 DUP1 REVERT JUMPDEST POP PUSH2 0x571 PUSH2 0xA39 CALLDATASIZE PUSH1 0x4 PUSH2 0x3562 JUMP JUMPDEST PUSH2 0x2624 JUMP JUMPDEST CALLVALUE DUP1 ISZERO PUSH2 0xA49 JUMPI PUSH0 DUP1 REVERT JUMPDEST POP PUSH2 0x97C PUSH2 0xA58 CALLDATASIZE PUSH1 0x4 PUSH2 0x3562 JUMP JUMPDEST PUSH1 0x1B PUSH1 0x20 MSTORE PUSH0 SWAP1 DUP2 MSTORE PUSH1 0x40 SWAP1 KECCAK256 SLOAD PUSH1 0x1 PUSH1 0x1 PUSH1 0xA0 SHL SUB AND DUP2 JUMP JUMPDEST CALLVALUE DUP1 ISZERO PUSH2 0xA7D JUMPI PUSH0 DUP1 REVERT JUMPDEST POP PUSH2 0x571 PUSH2 0xA8C CALLDATASIZE PUSH1 0x4 PUSH2 0x3660 JUMP JUMPDEST PUSH2 0x264E JUMP JUMPDEST CALLVALUE DUP1 ISZERO PUSH2 0xA9C JUMPI PUSH0 DUP1 REVERT JUMPDEST POP PUSH2 0x463 PUSH1 0x8 SLOAD DUP2 JUMP JUMPDEST CALLVALUE DUP1 ISZERO PUSH2 0xAB1 JUMPI PUSH0 DUP1 REVERT JUMPDEST POP PUSH2 0x571 PUSH2 0xAC0 CALLDATASIZE PUSH1 0x4 PUSH2 0x369E JUMP JUMPDEST PUSH2 0x2742 JUMP JUMPDEST CALLVALUE DUP1 ISZERO PUSH2 0xAD0 JUMPI PUSH0 DUP1 REVERT JUMPDEST POP PUSH2 0x571 PUSH2 0xADF CALLDATASIZE PUSH1 0x4 PUSH2 0x346D JUMP JUMPDEST PUSH2 0x27EB JUMP JUMPDEST CALLVALUE DUP1 ISZERO PUSH2 0xAEF JUMPI PUSH0 DUP1 REVERT JUMPDEST POP PUSH2 0x9C2 PUSH2 0xAFE CALLDATASIZE PUSH1 0x4 PUSH2 0x3562 JUMP JUMPDEST PUSH1 0x16 PUSH1 0x20 MSTORE PUSH0 SWAP1 DUP2 MSTORE PUSH1 0x40 SWAP1 KECCAK256 SLOAD PUSH1 0xFF AND DUP2 JUMP JUMPDEST CALLVALUE DUP1 ISZERO PUSH2 0xB1D JUMPI PUSH0 DUP1 REVERT JUMPDEST POP PUSH2 0x571 PUSH2 0xB2C CALLDATASIZE PUSH1 0x4 PUSH2 0x369E JUMP JUMPDEST PUSH2 0x2821 JUMP JUMPDEST CALLVALUE DUP1 ISZERO PUSH2 0xB3C JUMPI PUSH0 DUP1 REVERT JUMPDEST POP PUSH1 0x1 SLOAD PUSH2 0x97C SWAP1 PUSH1 0x1 PUSH1 0x1 PUSH1 0xA0 SHL SUB AND DUP2 JUMP JUMPDEST CALLVALUE DUP1 ISZERO PUSH2 0xB5B JUMPI PUSH0 DUP1 REVERT JUMPDEST POP PUSH2 0x571 PUSH2 0xB6A CALLDATASIZE PUSH1 0x4 PUSH2 0x346D JUMP JUMPDEST PUSH2 0x28CA JUMP JUMPDEST CALLVALUE DUP1 ISZERO PUSH2 0xB7A JUMPI PUSH0 DUP1 REVERT JUMPDEST POP PUSH2 0xBCE PUSH2 0xB89 CALLDATASIZE PUSH1 0x4 PUSH2 0x346D JUMP JUMPDEST PUSH1 0x14 PUSH1 0x20 MSTORE PUSH0 SWAP1 DUP2 MSTORE PUSH1 0x40 SWAP1 KECCAK256 DUP1 SLOAD PUSH1 0x1 DUP3 ADD SLOAD PUSH1 0x2 DUP4 ADD SLOAD PUSH1 0x3 DUP5 ADD SLOAD PUSH1 0x4 DUP6 ADD SLOAD PUSH1 0x5 DUP7 ADD SLOAD PUSH1 0x6 DUP8 ADD SLOAD PUSH1 0x7 SWAP1 SWAP8 ADD SLOAD SWAP6 SWAP7 SWAP5 SWAP6 SWAP4 SWAP5 SWAP3 SWAP4 SWAP2 SWAP3 SWAP1 SWAP2 PUSH1 0xFF AND DUP9 JUMP JUMPDEST PUSH1 0x40 DUP1 MLOAD SWAP9 DUP10 MSTORE PUSH1 0x20 DUP10 ADD SWAP8 SWAP1 SWAP8 MSTORE SWAP6 DUP8 ADD SWAP5 SWAP1 SWAP5 MSTORE PUSH1 0x60 DUP7 ADD SWAP3 SWAP1 SWAP3 MSTORE PUSH1 0x80 DUP6 ADD MSTORE PUSH1 0xA0 DUP5 ADD MSTORE PUSH1 0xC0 DUP4 ADD MSTORE ISZERO ISZERO PUSH1 0xE0 DUP3 ADD MSTORE PUSH2 0x100 ADD PUSH2 0x43F JUMP JUMPDEST CALLVALUE DUP1 ISZERO PUSH2 0xC16 JUMPI PUSH0 DUP1 REVERT JUMPDEST POP PUSH2 0x571 PUSH2 0xC25 CALLDATASIZE PUSH1 0x4 PUSH2 0x346D JUMP JUMPDEST PUSH2 0x2BA8 JUMP JUMPDEST CALLVALUE DUP1 ISZERO PUSH2 0xC35 JUMPI PUSH0 DUP1 REVERT JUMPDEST POP PUSH2 0xBCE PUSH2 0xC44 CALLDATASIZE PUSH1 0x4 PUSH2 0x346D JUMP JUMPDEST PUSH1 0x11 PUSH1 0x20 MSTORE PUSH0 SWAP1 DUP2 MSTORE PUSH1 0x40 SWAP1 KECCAK256 DUP1 SLOAD PUSH1 0x1 DUP3 ADD SLOAD PUSH1 0x2 DUP4 ADD SLOAD PUSH1 0x3 DUP5 ADD SLOAD PUSH1 0x4 DUP6 ADD SLOAD PUSH1 0x5 DUP7 ADD SLOAD PUSH1 0x6 DUP8 ADD SLOAD PUSH1 0x7 SWAP1 SWAP8 ADD SLOAD SWAP6 SWAP7 SWAP5 SWAP6 SWAP4 SWAP5 SWAP3 SWAP4 SWAP2 SWAP3 SWAP1 SWAP2 PUSH1 0xFF AND DUP9 JUMP JUMPDEST CALLVALUE DUP1 ISZERO PUSH2 0xC94 JUMPI PUSH0 DUP1 REVERT JUMPDEST POP PUSH2 0x9C2 PUSH2 0xCA3 CALLDATASIZE PUSH1 0x4 PUSH2 0x349F JUMP JUMPDEST PUSH1 0x19 PUSH1 0x20 SWAP1 DUP2 MSTORE PUSH0 SWAP4 DUP5 MSTORE PUSH1 0x40 DUP1 DUP6 KECCAK256 DUP3 MSTORE SWAP3 DUP5 MSTORE DUP3 DUP5 KECCAK256 SWAP1 MSTORE DUP3 MSTORE SWAP1 KECCAK256 SLOAD PUSH1 0xFF AND DUP2 JUMP JUMPDEST CALLVALUE DUP1 ISZERO PUSH2 0xCD3 JUMPI PUSH0 DUP1 REVERT JUMPDEST POP PUSH2 0x463 PUSH1 0xA SLOAD DUP2 JUMP JUMPDEST CALLVALUE DUP1 ISZERO PUSH2 0xCE8 JUMPI PUSH0 DUP1 REVERT JUMPDEST POP PUSH2 0x97C PUSH2 0xCF7 CALLDATASIZE PUSH1 0x4 PUSH2 0x36CC JUMP JUMPDEST PUSH2 0x2BB5 JUMP JUMPDEST CALLVALUE DUP1 ISZERO PUSH2 0xD07 JUMPI PUSH0 DUP1 REVERT JUMPDEST POP PUSH2 0x463 PUSH32 0x0 DUP2 JUMP JUMPDEST CALLVALUE DUP1 ISZERO PUSH2 0xD3A JUMPI PUSH0 DUP1 REVERT JUMPDEST POP PUSH1 0x2 SLOAD PUSH2 0x97C SWAP1 PUSH1 0x1 PUSH1 0x1 PUSH1 0xA0 SHL SUB AND DUP2 JUMP JUMPDEST CALLVALUE DUP1 ISZERO PUSH2 0xD59 JUMPI PUSH0 DUP1 REVERT JUMPDEST POP PUSH2 0x463 PUSH1 0x1E SLOAD DUP2 JUMP JUMPDEST CALLVALUE DUP1 ISZERO PUSH2 0xD6E JUMPI PUSH0 DUP1 REVERT JUMPDEST POP PUSH2 0x571 PUSH2 0xD7D CALLDATASIZE PUSH1 0x4 PUSH2 0x3562 JUMP JUMPDEST PUSH2 0x2BE9 JUMP JUMPDEST PUSH1 0x1 PUSH1 0x1 PUSH1 0xA0 SHL SUB DUP4 AND PUSH0 SWAP1 DUP2 MSTORE PUSH1 0x13 PUSH1 0x20 MSTORE PUSH1 0x40 DUP2 KECCAK256 PUSH1 0x60 SWAP2 PUSH2 0xDA5 DUP3 PUSH2 0x2C2B JUMP JUMPDEST SWAP1 POP DUP1 DUP6 LT PUSH2 0xDE8 JUMPI PUSH1 0x40 DUP1 MLOAD PUSH0 DUP1 DUP3 MSTORE PUSH1 0x20 DUP3 ADD SWAP1 SWAP3 MSTORE SWAP1 PUSH2 0xDDE JUMP JUMPDEST PUSH2 0xDCB PUSH2 0x342E JUMP JUMPDEST DUP2 MSTORE PUSH1 0x20 ADD SWAP1 PUSH1 0x1 SWAP1 SUB SWAP1 DUP2 PUSH2 0xDC3 JUMPI SWAP1 POP JUMPDEST POP SWAP3 POP POP POP PUSH2 0xF1A JUMP JUMPDEST PUSH0 PUSH2 0xDF3 DUP7 DUP4 PUSH2 0x371C JUMP JUMPDEST SWAP1 POP PUSH0 DUP2 DUP7 GT PUSH2 0xE03 JUMPI DUP6 PUSH2 0xE05 JUMP JUMPDEST DUP2 JUMPDEST SWAP1 POP PUSH0 DUP2 PUSH8 0xFFFFFFFFFFFFFFFF DUP2 GT ISZERO PUSH2 0xE21 JUMPI PUSH2 0xE21 PUSH2 0x36F4 JUMP JUMPDEST PUSH1 0x40 MLOAD SWAP1 DUP1 DUP3 MSTORE DUP1 PUSH1 0x20 MUL PUSH1 0x20 ADD DUP3 ADD PUSH1 0x40 MSTORE DUP1 ISZERO PUSH2 0xE5A JUMPI DUP2 PUSH1 0x20 ADD JUMPDEST PUSH2 0xE47 PUSH2 0x342E JUMP JUMPDEST DUP2 MSTORE PUSH1 0x20 ADD SWAP1 PUSH1 0x1 SWAP1 SUB SWAP1 DUP2 PUSH2 0xE3F JUMPI SWAP1 POP JUMPDEST POP SWAP1 POP PUSH0 JUMPDEST DUP3 DUP2 LT ISZERO PUSH2 0xF12 JUMPI PUSH1 0x14 PUSH0 PUSH2 0xE7E PUSH2 0xE77 DUP5 DUP14 PUSH2 0x372F JUMP JUMPDEST DUP10 SWAP1 PUSH2 0x2C35 JUMP JUMPDEST DUP2 MSTORE PUSH1 0x20 DUP1 DUP3 ADD SWAP3 SWAP1 SWAP3 MSTORE PUSH1 0x40 SWAP1 DUP2 ADD PUSH0 KECCAK256 DUP2 MLOAD PUSH2 0x100 DUP2 ADD DUP4 MSTORE DUP2 SLOAD DUP2 MSTORE PUSH1 0x1 DUP3 ADD SLOAD SWAP4 DUP2 ADD SWAP4 SWAP1 SWAP4 MSTORE PUSH1 0x2 DUP2 ADD SLOAD SWAP2 DUP4 ADD SWAP2 SWAP1 SWAP2 MSTORE PUSH1 0x3 DUP2 ADD SLOAD PUSH1 0x60 DUP4 ADD MSTORE PUSH1 0x4 DUP2 ADD SLOAD PUSH1 0x80 DUP4 ADD MSTORE PUSH1 0x5 DUP2 ADD SLOAD PUSH1 0xA0 DUP4 ADD MSTORE PUSH1 0x6 DUP2 ADD SLOAD PUSH1 0xC0 DUP4 ADD MSTORE PUSH1 0x7 ADD SLOAD PUSH1 0xFF AND ISZERO ISZERO PUSH1 0xE0 DUP3 ADD MSTORE DUP3 MLOAD DUP4 SWAP1 DUP4 SWAP1 DUP2 LT PUSH2 0xEFF JUMPI PUSH2 0xEFF PUSH2 0x3742 JUMP JUMPDEST PUSH1 0x20 SWAP1 DUP2 MUL SWAP2 SWAP1 SWAP2 ADD ADD MSTORE PUSH1 0x1 ADD PUSH2 0xE5F JUMP JUMPDEST POP SWAP5 POP POP POP POP POP JUMPDEST SWAP4 SWAP3 POP POP POP JUMP JUMPDEST PUSH0 PUSH1 0x3 SLOAD PUSH0 SUB PUSH2 0xF44 JUMPI PUSH1 0x40 MLOAD PUSH4 0x3017F165 PUSH1 0xE1 SHL DUP2 MSTORE PUSH1 0x4 ADD PUSH1 0x40 MLOAD DUP1 SWAP2 SUB SWAP1 REVERT JUMPDEST PUSH0 PUSH3 0x401640 PUSH2 0xF53 DUP2 NUMBER PUSH2 0x376A JUMP JUMPDEST PUSH2 0xF5E SWAP1 PUSH1 0x1 PUSH2 0x372F JUMP JUMPDEST PUSH2 0xF68 SWAP2 SWAP1 PUSH2 0x377D JUMP JUMPDEST PUSH3 0x401640 PUSH1 0x3 SLOAD PUSH2 0xF79 SWAP2 SWAP1 PUSH2 0x3794 JUMP JUMPDEST PUSH2 0xF83 SWAP2 SWAP1 PUSH2 0x372F JUMP JUMPDEST SWAP1 POP PUSH2 0xF8F NUMBER DUP3 PUSH2 0x371C JUMP JUMPDEST SWAP2 POP POP SWAP1 JUMP JUMPDEST CALLER PUSH0 SWAP1 DUP2 MSTORE PUSH1 0x16 PUSH1 0x20 MSTORE PUSH1 0x40 SWAP1 KECCAK256 SLOAD PUSH1 0xFF AND PUSH2 0xFC4 JUMPI PUSH1 0x40 MLOAD PUSH4 0x6016A27 PUSH1 0xE1 SHL DUP2 MSTORE PUSH1 0x4 ADD PUSH1 0x40 MLOAD DUP1 SWAP2 SUB SWAP1 REVERT JUMPDEST CALLER PUSH0 SWAP1 DUP2 MSTORE PUSH1 0x15 PUSH1 0x20 MSTORE PUSH1 0x40 SWAP1 KECCAK256 DUP1 SLOAD PUSH1 0x7 SLOAD DUP2 SUB PUSH2 0xFF6 JUMPI PUSH1 0x40 MLOAD PUSH4 0x72932DD3 PUSH1 0xE0 SHL DUP2 MSTORE PUSH1 0x4 ADD PUSH1 0x40 MLOAD DUP1 SWAP2 SUB SWAP1 REVERT JUMPDEST PUSH1 0xB SLOAD CALLER PUSH0 SWAP1 DUP2 MSTORE PUSH1 0x1A PUSH1 0x20 MSTORE PUSH1 0x40 SWAP1 KECCAK256 SLOAD PUSH2 0x1012 SWAP1 TIMESTAMP PUSH2 0x371C JUMP JUMPDEST LT ISZERO PUSH2 0x1031 JUMPI PUSH1 0x40 MLOAD PUSH4 0x41FDE9EF PUSH1 0xE0 SHL DUP2 MSTORE PUSH1 0x4 ADD PUSH1 0x40 MLOAD DUP1 SWAP2 SUB SWAP1 REVERT JUMPDEST PUSH0 PUSH1 0x12 DUP2 PUSH2 0x1040 DUP5 PUSH1 0x1 PUSH2 0x372F JUMP JUMPDEST DUP2 MSTORE PUSH1 0x20 DUP1 DUP3 ADD SWAP3 SWAP1 SWAP3 MSTORE PUSH1 0x40 SWAP1 DUP2 ADD PUSH0 KECCAK256 DUP2 MLOAD PUSH1 0xC0 DUP2 ADD DUP4 MSTORE DUP2 SLOAD DUP2 MSTORE PUSH1 0x1 DUP3 ADD SLOAD SWAP4 DUP2 ADD SWAP4 SWAP1 SWAP4 MSTORE PUSH1 0x2 DUP2 ADD SLOAD SWAP2 DUP4 ADD SWAP2 SWAP1 SWAP2 MSTORE PUSH1 0x3 DUP2 ADD SLOAD PUSH1 0xFF AND ISZERO ISZERO PUSH1 0x60 DUP4 ADD DUP2 SWAP1 MSTORE PUSH1 0x4 DUP3 ADD SLOAD PUSH1 0x80 DUP5 ADD MSTORE PUSH1 0x5 SWAP1 SWAP2 ADD SLOAD PUSH1 0xA0 DUP4 ADD MSTORE SWAP1 SWAP2 POP PUSH2 0x10BC JUMPI PUSH1 0x40 MLOAD PUSH4 0x23E697D3 PUSH1 0xE1 SHL DUP2 MSTORE PUSH1 0x4 ADD PUSH1 0x40 MLOAD DUP1 SWAP2 SUB SWAP1 REVERT JUMPDEST PUSH1 0x40 DUP2 DUP2 ADD MLOAD PUSH1 0x1 SLOAD SWAP2 MLOAD PUSH4 0x70A08231 PUSH1 0xE0 SHL DUP2 MSTORE CALLER PUSH1 0x4 DUP3 ADD MSTORE SWAP1 SWAP2 PUSH1 0x1 PUSH1 0x1 PUSH1 0xA0 SHL SUB AND SWAP1 PUSH4 0x70A08231 SWAP1 PUSH1 0x24 ADD PUSH1 0x20 PUSH1 0x40 MLOAD DUP1 DUP4 SUB DUP2 DUP7 GAS STATICCALL ISZERO DUP1 ISZERO PUSH2 0x1107 JUMPI RETURNDATASIZE PUSH0 DUP1 RETURNDATACOPY RETURNDATASIZE PUSH0 REVERT JUMPDEST POP POP POP POP PUSH1 0x40 MLOAD RETURNDATASIZE PUSH1 0x1F NOT PUSH1 0x1F DUP3 ADD AND DUP3 ADD DUP1 PUSH1 0x40 MSTORE POP DUP2 ADD SWAP1 PUSH2 0x112B SWAP2 SWAP1 PUSH2 0x37A7 JUMP JUMPDEST LT ISZERO PUSH2 0x114D JUMPI PUSH1 0x40 MLOAD PUSH1 0x1 PUSH3 0x7A6F0D PUSH1 0xE1 SHL SUB NOT DUP2 MSTORE PUSH1 0x4 ADD PUSH1 0x40 MLOAD DUP1 SWAP2 SUB SWAP1 REVERT JUMPDEST PUSH1 0x1 SLOAD PUSH1 0x40 DUP3 DUP2 ADD MLOAD SWAP1 MLOAD PUSH4 0x23B872DD PUSH1 0xE0 SHL DUP2 MSTORE CALLER PUSH1 0x4 DUP3 ADD MSTORE ADDRESS PUSH1 0x24 DUP3 ADD MSTORE PUSH1 0x44 DUP2 ADD SWAP2 SWAP1 SWAP2 MSTORE PUSH1 0x1 PUSH1 0x1 PUSH1 0xA0 SHL SUB SWAP1 SWAP2 AND SWAP1 PUSH4 0x23B872DD SWAP1 PUSH1 0x64 ADD PUSH1 0x20 PUSH1 0x40 MLOAD DUP1 DUP4 SUB DUP2 PUSH0 DUP8 GAS CALL ISZERO DUP1 ISZERO PUSH2 0x11A7 JUMPI RETURNDATASIZE PUSH0 DUP1 RETURNDATACOPY RETURNDATASIZE PUSH0 REVERT JUMPDEST POP POP POP POP PUSH1 0x40 MLOAD RETURNDATASIZE PUSH1 0x1F NOT PUSH1 0x1F DUP3 ADD AND DUP3 ADD DUP1 PUSH1 0x40 MSTORE POP DUP2 ADD SWAP1 PUSH2 0x11CB SWAP2 SWAP1 PUSH2 0x37BE JUMP JUMPDEST POP PUSH1 0x1 SLOAD PUSH1 0x40 DUP3 ADD MLOAD PUSH1 0xD SLOAD PUSH1 0x1 PUSH1 0x1 PUSH1 0xA0 SHL SUB SWAP1 SWAP3 AND SWAP2 PUSH4 0x42966C68 SWAP2 PUSH2 0x11F2 SWAP2 PUSH2 0x2C40 JUMP JUMPDEST PUSH1 0x40 MLOAD DUP3 PUSH4 0xFFFFFFFF AND PUSH1 0xE0 SHL DUP2 MSTORE PUSH1 0x4 ADD PUSH2 0x1210 SWAP2 DUP2 MSTORE PUSH1 0x20 ADD SWAP1 JUMP JUMPDEST PUSH0 PUSH1 0x40 MLOAD DUP1 DUP4 SUB DUP2 PUSH0 DUP8 DUP1 EXTCODESIZE ISZERO DUP1 ISZERO PUSH2 0x1227 JUMPI PUSH0 DUP1 REVERT JUMPDEST POP GAS CALL ISZERO DUP1 ISZERO PUSH2 0x1239 JUMPI RETURNDATASIZE PUSH0 DUP1 RETURNDATACOPY RETURNDATASIZE PUSH0 REVERT JUMPDEST POP POP DUP5 SLOAD SWAP2 POP DUP5 SWAP1 POP PUSH0 PUSH2 0x124C DUP4 PUSH2 0x37D9 JUMP JUMPDEST SWAP1 SWAP2 SSTORE POP POP DUP1 MLOAD PUSH1 0x1 DUP5 ADD SSTORE PUSH1 0x20 DUP1 DUP3 ADD MLOAD PUSH1 0x3 DUP6 ADD SSTORE PUSH1 0x80 DUP3 ADD MLOAD PUSH1 0x5 DUP6 ADD SSTORE PUSH1 0xA0 DUP3 ADD MLOAD PUSH1 0x6 DUP6 ADD SSTORE CALLER PUSH0 DUP2 DUP2 MSTORE PUSH1 0x1A DUP4 MSTORE PUSH1 0x40 SWAP1 DUP2 SWAP1 KECCAK256 TIMESTAMP SWAP1 SSTORE DUP6 SLOAD DUP2 DUP6 ADD MLOAD SWAP2 MLOAD SWAP2 DUP3 MSTORE SWAP3 PUSH32 0xE2DBC44C627E3876B04B29D12596A77C7D0FA585CCB754B9FCD92E48D813DD77 SWAP2 ADD PUSH1 0x40 MLOAD DUP1 SWAP2 SUB SWAP1 LOG3 POP POP POP JUMP JUMPDEST PUSH1 0x4 SLOAD PUSH0 SWAP1 PUSH1 0xFF AND PUSH2 0x12D8 JUMPI POP PUSH0 SWAP2 SWAP1 POP JUMP JUMPDEST PUSH1 0x9 SLOAD PUSH0 SUB PUSH2 0x131E JUMPI PUSH1 0x1 PUSH1 0x1 PUSH1 0xA0 SHL SUB DUP3 AND PUSH0 SWAP1 DUP2 MSTORE PUSH1 0xF PUSH1 0x20 MSTORE PUSH1 0x40 SWAP1 KECCAK256 SLOAD PUSH1 0xC SLOAD PUSH2 0x1318 SWAP2 SWAP1 PUSH2 0x1313 SWAP1 PUSH8 0xDE0B6B3A7640000 PUSH2 0x371C JUMP JUMPDEST PUSH2 0x2C40 JUMP JUMPDEST SWAP3 SWAP2 POP POP JUMP JUMPDEST PUSH1 0x8 SLOAD PUSH1 0x3 SLOAD PUSH0 SWAP1 PUSH3 0x401640 SWAP1 PUSH2 0x1335 SWAP1 DUP5 PUSH2 0x371C JUMP JUMPDEST PUSH2 0x133F SWAP2 SWAP1 PUSH2 0x376A JUMP JUMPDEST PUSH2 0x134A SWAP1 PUSH1 0x2 PUSH2 0x38D4 JUMP JUMPDEST PUSH2 0x135C SWAP1 PUSH8 0x22B1C8C1227A0000 PUSH2 0x376A JUMP JUMPDEST PUSH1 0xA SLOAD SWAP1 SWAP2 POP JUMPDEST NUMBER DUP4 LT ISZERO PUSH2 0x1427 JUMPI PUSH0 PUSH3 0x401640 PUSH2 0x137A DUP2 DUP7 PUSH2 0x376A JUMP JUMPDEST PUSH2 0x1385 SWAP1 PUSH1 0x1 PUSH2 0x372F JUMP JUMPDEST PUSH2 0x138F SWAP2 SWAP1 PUSH2 0x377D JUMP JUMPDEST PUSH3 0x401640 PUSH1 0x3 SLOAD PUSH2 0x13A0 SWAP2 SWAP1 PUSH2 0x3794 JUMP JUMPDEST PUSH2 0x13AA SWAP2 SWAP1 PUSH2 0x372F JUMP JUMPDEST SWAP1 POP PUSH0 NUMBER DUP3 LT PUSH2 0x13BA JUMPI NUMBER PUSH2 0x13BC JUMP JUMPDEST DUP2 JUMPDEST PUSH1 0x9 SLOAD SWAP1 SWAP2 POP ISZERO PUSH2 0x1408 JUMPI PUSH1 0x9 SLOAD PUSH8 0xDE0B6B3A7640000 PUSH2 0x13DD DUP8 DUP5 PUSH2 0x371C JUMP JUMPDEST PUSH2 0x13E7 SWAP1 DUP8 PUSH2 0x377D JUMP JUMPDEST PUSH2 0x13F1 SWAP2 SWAP1 PUSH2 0x377D JUMP JUMPDEST PUSH2 0x13FB SWAP2 SWAP1 PUSH2 0x376A JUMP JUMPDEST PUSH2 0x1405 SWAP1 DUP5 PUSH2 0x372F JUMP JUMPDEST SWAP3 POP JUMPDEST DUP1 SWAP5 POP DUP2 DUP6 SUB PUSH2 0x1420 JUMPI PUSH2 0x141D PUSH1 0x2 DUP6 PUSH2 0x376A JUMP JUMPDEST SWAP4 POP JUMPDEST POP POP PUSH2 0x1363 JUMP JUMPDEST PUSH1 0x1 PUSH1 0x1 PUSH1 0xA0 SHL SUB DUP6 AND PUSH0 SWAP1 DUP2 MSTORE PUSH1 0x10 PUSH1 0x20 MSTORE PUSH1 0x40 SWAP1 KECCAK256 SLOAD PUSH2 0x14BA SWAP1 PUSH8 0xDE0B6B3A7640000 SWAP1 PUSH2 0x1457 SWAP1 DUP5 PUSH2 0x371C JUMP JUMPDEST PUSH1 0x1 PUSH1 0x1 PUSH1 0xA0 SHL SUB DUP9 AND PUSH0 SWAP1 DUP2 MSTORE PUSH1 0xE PUSH1 0x20 MSTORE PUSH1 0x40 SWAP1 KECCAK256 SLOAD PUSH2 0x1479 SWAP2 SWAP1 PUSH2 0x377D JUMP JUMPDEST PUSH2 0x1483 SWAP2 SWAP1 PUSH2 0x376A JUMP JUMPDEST PUSH1 0x1 PUSH1 0x1 PUSH1 0xA0 SHL SUB DUP8 AND PUSH0 SWAP1 DUP2 MSTORE PUSH1 0xF PUSH1 0x20 MSTORE PUSH1 0x40 SWAP1 KECCAK256 SLOAD PUSH2 0x14A5 SWAP2 SWAP1 PUSH2 0x372F JUMP JUMPDEST PUSH1 0xC SLOAD PUSH2 0x1313 SWAP1 PUSH8 0xDE0B6B3A7640000 PUSH2 0x371C JUMP JUMPDEST SWAP6 SWAP5 POP POP POP POP POP JUMP JUMPDEST PUSH2 0x14CC CALLER PUSH2 0x2C6F JUMP JUMPDEST CALLER PUSH0 SWAP1 DUP2 MSTORE PUSH1 0xF PUSH1 0x20 MSTORE PUSH1 0x40 DUP2 KECCAK256 SLOAD SWAP1 DUP2 SWAP1 SUB PUSH2 0x14FC JUMPI PUSH1 0x40 MLOAD PUSH4 0x37DC8F7 PUSH1 0xE2 SHL DUP2 MSTORE PUSH1 0x4 ADD PUSH1 0x40 MLOAD DUP1 SWAP2 SUB SWAP1 REVERT JUMPDEST CALLER PUSH0 SWAP1 DUP2 MSTORE PUSH1 0xF PUSH1 0x20 MSTORE PUSH1 0x40 DUP2 KECCAK256 DUP2 SWAP1 SSTORE PUSH1 0xC SLOAD PUSH2 0x151B SWAP1 DUP4 SWAP1 PUSH2 0x2C40 JUMP JUMPDEST SWAP1 POP PUSH0 PUSH2 0x1528 DUP3 DUP5 PUSH2 0x371C JUMP JUMPDEST PUSH1 0x1 SLOAD PUSH1 0x40 MLOAD PUSH4 0x40C10F19 PUSH1 0xE0 SHL DUP2 MSTORE CALLER PUSH1 0x4 DUP3 ADD MSTORE PUSH1 0x24 DUP2 ADD DUP4 SWAP1 MSTORE SWAP2 SWAP3 POP PUSH1 0x1 PUSH1 0x1 PUSH1 0xA0 SHL SUB AND SWAP1 PUSH4 0x40C10F19 SWAP1 PUSH1 0x44 ADD PUSH0 PUSH1 0x40 MLOAD DUP1 DUP4 SUB DUP2 PUSH0 DUP8 DUP1 EXTCODESIZE ISZERO DUP1 ISZERO PUSH2 0x1572 JUMPI PUSH0 DUP1 REVERT JUMPDEST POP GAS CALL ISZERO DUP1 ISZERO PUSH2 0x1584 JUMPI RETURNDATASIZE PUSH0 DUP1 RETURNDATACOPY RETURNDATASIZE PUSH0 REVERT JUMPDEST POP POP CALLER PUSH0 SWAP1 DUP2 MSTORE PUSH1 0x1B PUSH1 0x20 MSTORE PUSH1 0x40 SWAP1 KECCAK256 SLOAD PUSH1 0x1 PUSH1 0x1 PUSH1 0xA0 SHL SUB AND SWAP2 POP POP DUP1 ISZERO PUSH2 0x163A JUMPI PUSH1 0x1 SLOAD PUSH1 0x40 MLOAD PUSH4 0x40C10F19 PUSH1 0xE0 SHL DUP2 MSTORE PUSH1 0x1 PUSH1 0x1 PUSH1 0xA0 SHL SUB DUP4 DUP2 AND PUSH1 0x4 DUP4 ADD MSTORE PUSH1 0x24 DUP3 ADD DUP7 SWAP1 MSTORE SWAP1 SWAP2 AND SWAP1 PUSH4 0x40C10F19 SWAP1 PUSH1 0x44 ADD PUSH0 PUSH1 0x40 MLOAD DUP1 DUP4 SUB DUP2 PUSH0 DUP8 DUP1 EXTCODESIZE ISZERO DUP1 ISZERO PUSH2 0x15F2 JUMPI PUSH0 DUP1 REVERT JUMPDEST POP GAS CALL ISZERO DUP1 ISZERO PUSH2 0x1604 JUMPI RETURNDATASIZE PUSH0 DUP1 RETURNDATACOPY RETURNDATASIZE PUSH0 REVERT JUMPDEST POP POP POP POP PUSH1 0x1 PUSH1 0x1 PUSH1 0xA0 SHL SUB DUP2 AND PUSH0 SWAP1 DUP2 MSTORE PUSH1 0x1D PUSH1 0x20 MSTORE PUSH1 0x40 DUP2 KECCAK256 DUP1 SLOAD DUP6 SWAP3 SWAP1 PUSH2 0x162F SWAP1 DUP5 SWAP1 PUSH2 0x372F JUMP JUMPDEST SWAP1 SWAP2 SSTORE POP PUSH2 0x16BE SWAP1 POP JUMP JUMPDEST PUSH1 0x1 SLOAD PUSH1 0x40 MLOAD PUSH4 0x40C10F19 PUSH1 0xE0 SHL DUP2 MSTORE ADDRESS PUSH1 0x4 DUP3 ADD MSTORE PUSH1 0x24 DUP2 ADD DUP6 SWAP1 MSTORE PUSH1 0x1 PUSH1 0x1 PUSH1 0xA0 SHL SUB SWAP1 SWAP2 AND SWAP1 PUSH4 0x40C10F19 SWAP1 PUSH1 0x44 ADD PUSH0 PUSH1 0x40 MLOAD DUP1 DUP4 SUB DUP2 PUSH0 DUP8 DUP1 EXTCODESIZE ISZERO DUP1 ISZERO PUSH2 0x1683 JUMPI PUSH0 DUP1 REVERT JUMPDEST POP GAS CALL ISZERO DUP1 ISZERO PUSH2 0x1695 JUMPI RETURNDATASIZE PUSH0 DUP1 RETURNDATACOPY RETURNDATASIZE PUSH0 REVERT JUMPDEST POP POP ADDRESS PUSH0 SWAP1 DUP2 MSTORE PUSH1 0x1D PUSH1 0x20 MSTORE PUSH1 0x40 DUP2 KECCAK256 DUP1 SLOAD DUP8 SWAP5 POP SWAP1 SWAP3 POP PUSH2 0x16B8 SWAP1 DUP5 SWAP1 PUSH2 0x372F JUMP JUMPDEST SWAP1 SWAP2 SSTORE POP POP JUMPDEST PUSH1 0x40 MLOAD DUP5 DUP2 MSTORE CALLER SWAP1 PUSH32 0xFC30CDDEA38E2BF4D6EA7D3F9ED3B6AD7F176419F4963BD81318067A4AEE73FE SWAP1 PUSH1 0x20 ADD JUMPDEST PUSH1 0x40 MLOAD DUP1 SWAP2 SUB SWAP1 LOG2 POP POP POP POP JUMP JUMPDEST CALLER PUSH0 SWAP1 DUP2 MSTORE PUSH1 0x17 PUSH1 0x20 MSTORE PUSH1 0x40 SWAP1 KECCAK256 SLOAD PUSH1 0xFF AND ISZERO PUSH2 0x172A JUMPI PUSH1 0x40 MLOAD PUSH4 0x3874D2AD PUSH1 0xE1 SHL DUP2 MSTORE PUSH1 0x4 ADD PUSH1 0x40 MLOAD DUP1 SWAP2 SUB SWAP1 REVERT JUMPDEST CALLER PUSH0 DUP2 DUP2 MSTORE PUSH1 0x17 PUSH1 0x20 SWAP1 DUP2 MSTORE PUSH1 0x40 DUP1 DUP4 KECCAK256 DUP1 SLOAD PUSH1 0xFF NOT AND PUSH1 0x1 SWAP1 DUP2 OR SWAP1 SWAP2 SSTORE PUSH32 0x0 DUP5 MSTORE PUSH1 0x11 DUP4 MSTORE DUP2 DUP5 KECCAK256 DUP3 MLOAD PUSH2 0x100 DUP2 ADD DUP5 MSTORE DUP2 SLOAD DUP2 MSTORE SWAP2 DUP2 ADD SLOAD DUP3 DUP6 ADD MSTORE PUSH1 0x2 DUP2 ADD SLOAD DUP3 DUP5 ADD MSTORE PUSH1 0x3 DUP2 ADD SLOAD PUSH1 0x60 DUP4 ADD MSTORE PUSH1 0x4 DUP2 ADD SLOAD PUSH1 0x80 DUP4 ADD MSTORE PUSH1 0x5 DUP1 DUP3 ADD SLOAD PUSH1 0xA0 DUP5 ADD MSTORE PUSH1 0x6 DUP1 DUP4 ADD SLOAD PUSH1 0xC0 DUP6 ADD MSTORE PUSH1 0x7 SWAP1 SWAP3 ADD SLOAD PUSH1 0xFF AND ISZERO ISZERO PUSH1 0xE0 DUP5 ADD MSTORE SWAP6 DUP6 MSTORE PUSH1 0x15 SWAP1 SWAP4 MSTORE SWAP3 KECCAK256 SWAP3 DUP4 ADD SLOAD SWAP1 DUP4 ADD SLOAD SWAP2 SWAP3 SWAP2 PUSH2 0x17EE SWAP2 DUP7 SWAP2 DUP7 SWAP2 SWAP1 PUSH2 0x2D1B JUMP JUMPDEST ISZERO PUSH2 0x180C JUMPI PUSH1 0x40 MLOAD PUSH4 0x2A00382B PUSH1 0xE2 SHL DUP2 MSTORE PUSH1 0x4 ADD PUSH1 0x40 MLOAD DUP1 SWAP2 SUB SWAP1 REVERT JUMPDEST DUP1 PUSH1 0x3 ADD SLOAD DUP3 PUSH1 0xA0 ADD MLOAD DUP3 PUSH1 0x4 ADD SLOAD PUSH2 0x1825 SWAP2 SWAP1 PUSH2 0x372F JUMP JUMPDEST GT ISZERO PUSH2 0x1844 JUMPI PUSH1 0x40 MLOAD PUSH4 0x3EFF4BD PUSH1 0xE6 SHL DUP2 MSTORE PUSH1 0x4 ADD PUSH1 0x40 MLOAD DUP1 SWAP2 SUB SWAP1 REVERT JUMPDEST PUSH1 0x40 DUP3 ADD DUP5 SWAP1 MSTORE PUSH1 0x60 DUP3 ADD DUP4 SWAP1 MSTORE PUSH1 0x5 DUP1 SLOAD PUSH0 SWAP1 PUSH2 0x1861 SWAP1 PUSH2 0x37D9 JUMP JUMPDEST SWAP2 DUP3 SWAP1 SSTORE POP PUSH1 0x20 DUP1 DUP5 ADD SWAP2 SWAP1 SWAP2 MSTORE CALLER PUSH0 DUP2 DUP2 MSTORE PUSH1 0x19 DUP4 MSTORE PUSH1 0x40 DUP1 DUP3 KECCAK256 DUP9 DUP4 MSTORE DUP5 MSTORE DUP1 DUP3 KECCAK256 DUP8 DUP4 MSTORE DUP5 MSTORE DUP1 DUP3 KECCAK256 DUP1 SLOAD PUSH1 0xFF NOT AND PUSH1 0x1 OR SWAP1 SSTORE PUSH1 0x5 SLOAD SWAP3 DUP3 MSTORE PUSH1 0x13 SWAP1 SWAP4 MSTORE SWAP2 SWAP1 SWAP2 KECCAK256 PUSH2 0x18B0 SWAP2 PUSH2 0x2D67 JUMP JUMPDEST POP PUSH1 0x5 DUP1 SLOAD PUSH0 SWAP1 DUP2 MSTORE PUSH1 0x14 PUSH1 0x20 SWAP1 DUP2 MSTORE PUSH1 0x40 DUP1 DUP4 KECCAK256 DUP7 MLOAD DUP2 SSTORE SWAP2 DUP7 ADD MLOAD PUSH1 0x1 DUP4 ADD SSTORE DUP6 ADD MLOAD PUSH1 0x2 DUP1 DUP4 ADD SWAP2 SWAP1 SWAP2 SSTORE PUSH1 0x60 DUP7 ADD MLOAD PUSH1 0x3 DUP4 ADD SSTORE PUSH1 0x80 DUP7 ADD MLOAD PUSH1 0x4 DUP4 ADD SSTORE PUSH1 0xA0 DUP7 ADD MLOAD SWAP4 DUP3 ADD SWAP4 SWAP1 SWAP4 SSTORE PUSH1 0xC0 DUP6 ADD MLOAD PUSH1 0x6 DUP3 ADD SSTORE PUSH1 0xE0 DUP6 ADD MLOAD PUSH1 0x7 SWAP1 SWAP2 ADD DUP1 SLOAD PUSH1 0xFF NOT AND SWAP2 ISZERO ISZERO SWAP2 SWAP1 SWAP2 OR SWAP1 SSTORE SWAP1 DUP3 ADD DUP1 SLOAD SWAP2 PUSH2 0x1930 DUP4 PUSH2 0x37D9 JUMP JUMPDEST SWAP2 SWAP1 POP SSTORE POP DUP2 PUSH1 0xA0 ADD MLOAD DUP2 PUSH1 0x4 ADD PUSH0 DUP3 DUP3 SLOAD PUSH2 0x194C SWAP2 SWAP1 PUSH2 0x372F JUMP JUMPDEST SWAP1 SWAP2 SSTORE POP POP PUSH1 0x5 SLOAD PUSH1 0x40 DUP1 MLOAD PUSH0 DUP2 MSTORE PUSH1 0x20 DUP2 ADD SWAP3 SWAP1 SWAP3 MSTORE DUP2 ADD DUP6 SWAP1 MSTORE PUSH1 0x60 DUP2 ADD DUP5 SWAP1 MSTORE PUSH32 0x0 SWAP1 CALLER SWAP1 PUSH32 0x70A5D2D3258ADCF9978A193A4DD8FA309AE83A9F1046A0A5EA99A133BF34F9A5 SWAP1 PUSH1 0x80 ADD PUSH1 0x40 MLOAD DUP1 SWAP2 SUB SWAP1 LOG3 PUSH2 0x19CE CALLER DUP4 PUSH1 0x80 ADD MLOAD PUSH2 0x2D72 JUMP JUMPDEST POP POP POP POP JUMP JUMPDEST PUSH2 0x19DC PUSH2 0x2E74 JUMP JUMPDEST PUSH1 0x2 SLOAD PUSH1 0x40 MLOAD SELFBALANCE SWAP2 PUSH0 SWAP2 PUSH1 0x1 PUSH1 0x1 PUSH1 0xA0 SHL SUB SWAP1 SWAP2 AND SWAP1 DUP4 SWAP1 DUP4 DUP2 DUP2 DUP2 DUP6 DUP8 GAS CALL SWAP3 POP POP POP RETURNDATASIZE DUP1 PUSH0 DUP2 EQ PUSH2 0x1A2A JUMPI PUSH1 0x40 MLOAD SWAP2 POP PUSH1 0x1F NOT PUSH1 0x3F RETURNDATASIZE ADD AND DUP3 ADD PUSH1 0x40 MSTORE RETURNDATASIZE DUP3 MSTORE RETURNDATASIZE PUSH0 PUSH1 0x20 DUP5 ADD RETURNDATACOPY PUSH2 0x1A2F JUMP JUMPDEST PUSH1 0x60 SWAP2 POP JUMPDEST POP POP SWAP1 POP DUP1 PUSH2 0x1A51 JUMPI PUSH1 0x40 MLOAD PUSH4 0x1D42C867 PUSH1 0xE2 SHL DUP2 MSTORE PUSH1 0x4 ADD PUSH1 0x40 MLOAD DUP1 SWAP2 SUB SWAP1 REVERT JUMPDEST POP POP JUMP JUMPDEST PUSH1 0x1E SLOAD CALLVALUE EQ PUSH2 0x1A77 JUMPI PUSH1 0x40 MLOAD PUSH4 0x6956F2AB PUSH1 0xE1 SHL DUP2 MSTORE PUSH1 0x4 ADD PUSH1 0x40 MLOAD DUP1 SWAP2 SUB SWAP1 REVERT JUMPDEST CALLER PUSH0 SWAP1 DUP2 MSTORE PUSH1 0x16 PUSH1 0x20 MSTORE PUSH1 0x40 SWAP1 KECCAK256 SLOAD PUSH1 0xFF AND ISZERO PUSH2 0x1AA7 JUMPI PUSH1 0x40 MLOAD PUSH4 0x11FCDEFB PUSH1 0xE3 SHL DUP2 MSTORE PUSH1 0x4 ADD PUSH1 0x40 MLOAD DUP1 SWAP2 SUB SWAP1 REVERT JUMPDEST CALLER PUSH1 0x1 PUSH1 0x1 PUSH1 0xA0 SHL SUB DUP3 AND SUB PUSH2 0x1AD0 JUMPI PUSH1 0x40 MLOAD PUSH4 0xC220845 PUSH1 0xE3 SHL DUP2 MSTORE PUSH1 0x4 ADD PUSH1 0x40 MLOAD DUP1 SWAP2 SUB SWAP1 REVERT JUMPDEST CALLER PUSH0 SWAP1 DUP2 MSTORE PUSH1 0x16 PUSH1 0x20 MSTORE PUSH1 0x40 SWAP1 KECCAK256 DUP1 SLOAD PUSH1 0xFF NOT AND PUSH1 0x1 OR SWAP1 SSTORE PUSH1 0x1 PUSH1 0x1 PUSH1 0xA0 SHL SUB DUP2 AND ISZERO PUSH2 0x1B4B JUMPI CALLER PUSH0 DUP2 DUP2 MSTORE PUSH1 0x1B PUSH1 0x20 SWAP1 DUP2 MSTORE PUSH1 0x40 DUP1 DUP4 KECCAK256 DUP1 SLOAD PUSH1 0x1 PUSH1 0x1 PUSH1 0xA0 SHL SUB DUP8 AND PUSH1 0x1 PUSH1 0x1 PUSH1 0xA0 SHL SUB NOT SWAP2 DUP3 AND DUP2 OR SWAP1 SWAP3 SSTORE SWAP1 DUP5 MSTORE PUSH1 0x1C DUP4 MSTORE SWAP1 DUP4 KECCAK256 DUP1 SLOAD PUSH1 0x1 DUP2 ADD DUP3 SSTORE SWAP1 DUP5 MSTORE SWAP2 SWAP1 SWAP3 KECCAK256 ADD DUP1 SLOAD SWAP1 SWAP2 AND SWAP1 SWAP2 OR SWAP1 SSTORE JUMPDEST PUSH32 0x0 PUSH0 DUP2 DUP2 MSTORE PUSH1 0x12 PUSH1 0x20 SWAP1 DUP2 MSTORE PUSH1 0x40 DUP1 DUP4 KECCAK256 DUP2 MLOAD PUSH1 0xC0 DUP2 ADD DUP4 MSTORE DUP2 SLOAD DUP2 MSTORE PUSH1 0x1 DUP1 DUP4 ADD SLOAD DUP3 DUP7 ADD SWAP1 DUP2 MSTORE PUSH1 0x2 DUP5 ADD SLOAD DUP4 DUP7 ADD MSTORE PUSH1 0x3 DUP1 DUP6 ADD SLOAD PUSH1 0xFF AND ISZERO ISZERO PUSH1 0x60 DUP6 ADD MSTORE PUSH1 0x4 DUP6 ADD SLOAD PUSH1 0x80 DUP6 ADD SWAP1 DUP2 MSTORE PUSH1 0x5 SWAP6 DUP7 ADD SLOAD PUSH1 0xA0 DUP7 ADD SWAP1 DUP2 MSTORE CALLER DUP1 DUP12 MSTORE PUSH1 0x15 SWAP1 SWAP10 MSTORE DUP8 DUP11 KECCAK256 SWAP11 DUP12 SSTORE DUP6 MLOAD SWAP5 DUP12 ADD SWAP5 SWAP1 SWAP5 SSTORE SWAP2 MLOAD SWAP1 DUP10 ADD SSTORE MLOAD SWAP3 DUP8 ADD SWAP3 SWAP1 SWAP3 SSTORE SWAP1 MLOAD PUSH1 0x6 DUP7 ADD SSTORE SWAP1 MLOAD SWAP1 SWAP4 SWAP3 PUSH32 0xE424ED553A53C3A900C875ED34D63043E4DFB799427EE8AE0836B046A603C90E SWAP2 LOG2 POP POP POP JUMP JUMPDEST PUSH1 0x1 PUSH1 0x1 PUSH1 0xA0 SHL SUB DUP2 AND PUSH0 SWAP1 DUP2 MSTORE PUSH1 0x1C PUSH1 0x20 SWAP1 DUP2 MSTORE PUSH1 0x40 SWAP2 DUP3 SWAP1 KECCAK256 DUP1 SLOAD DUP4 MLOAD DUP2 DUP5 MUL DUP2 ADD DUP5 ADD SWAP1 SWAP5 MSTORE DUP1 DUP5 MSTORE PUSH1 0x60 SWAP4 SWAP3 DUP4 ADD DUP3 DUP3 DUP1 ISZERO PUSH2 0x1C87 JUMPI PUSH1 0x20 MUL DUP3 ADD SWAP2 SWAP1 PUSH0 MSTORE PUSH1 0x20 PUSH0 KECCAK256 SWAP1 JUMPDEST DUP2 SLOAD PUSH1 0x1 PUSH1 0x1 PUSH1 0xA0 SHL SUB AND DUP2 MSTORE PUSH1 0x1 SWAP1 SWAP2 ADD SWAP1 PUSH1 0x20 ADD DUP1 DUP4 GT PUSH2 0x1C69 JUMPI JUMPDEST POP POP POP POP POP SWAP1 POP SWAP2 SWAP1 POP JUMP JUMPDEST PUSH0 DUP4 DUP2 MSTORE PUSH1 0x11 PUSH1 0x20 SWAP1 DUP2 MSTORE PUSH1 0x40 DUP1 DUP4 KECCAK256 DUP2 MLOAD PUSH2 0x100 DUP2 ADD DUP4 MSTORE DUP2 SLOAD DUP2 MSTORE PUSH1 0x1 DUP3 ADD SLOAD DUP2 DUP6 ADD MSTORE PUSH1 0x2 DUP3 ADD SLOAD DUP2 DUP5 ADD MSTORE PUSH1 0x3 DUP3 ADD SLOAD PUSH1 0x60 DUP3 ADD MSTORE PUSH1 0x4 DUP3 ADD SLOAD PUSH1 0x80 DUP3 ADD MSTORE PUSH1 0x5 DUP1 DUP4 ADD SLOAD PUSH1 0xA0 DUP4 ADD MSTORE PUSH1 0x6 DUP1 DUP5 ADD SLOAD PUSH1 0xC0 DUP5 ADD MSTORE PUSH1 0x7 SWAP1 SWAP4 ADD SLOAD PUSH1 0xFF AND ISZERO ISZERO PUSH1 0xE0 DUP4 ADD MSTORE CALLER DUP7 MSTORE PUSH1 0x15 SWAP1 SWAP5 MSTORE SWAP2 SWAP1 SWAP4 KECCAK256 SWAP2 DUP3 ADD SLOAD SWAP3 DUP3 ADD SLOAD SWAP1 SWAP3 PUSH2 0x1D1F SWAP2 DUP7 SWAP2 DUP7 SWAP2 PUSH2 0x2D1B JUMP JUMPDEST ISZERO PUSH2 0x1D3D JUMPI PUSH1 0x40 MLOAD PUSH4 0x2A00382B PUSH1 0xE2 SHL DUP2 MSTORE PUSH1 0x4 ADD PUSH1 0x40 MLOAD DUP1 SWAP2 SUB SWAP1 REVERT JUMPDEST DUP2 PUSH1 0xE0 ADD MLOAD PUSH2 0x1D5F JUMPI PUSH1 0x40 MLOAD PUSH4 0x15515373 PUSH1 0xE3 SHL DUP2 MSTORE PUSH1 0x4 ADD PUSH1 0x40 MLOAD DUP1 SWAP2 SUB SWAP1 REVERT JUMPDEST PUSH1 0xC0 DUP3 ADD MLOAD PUSH1 0x1 SLOAD PUSH1 0x40 MLOAD PUSH4 0x70A08231 PUSH1 0xE0 SHL DUP2 MSTORE CALLER PUSH1 0x4 DUP3 ADD MSTORE PUSH1 0x1 PUSH1 0x1 PUSH1 0xA0 SHL SUB SWAP1 SWAP2 AND SWAP1 PUSH4 0x70A08231 SWAP1 PUSH1 0x24 ADD PUSH1 0x20 PUSH1 0x40 MLOAD DUP1 DUP4 SUB DUP2 DUP7 GAS STATICCALL ISZERO DUP1 ISZERO PUSH2 0x1DAA JUMPI RETURNDATASIZE PUSH0 DUP1 RETURNDATACOPY RETURNDATASIZE PUSH0 REVERT JUMPDEST POP POP POP POP PUSH1 0x40 MLOAD RETURNDATASIZE PUSH1 0x1F NOT PUSH1 0x1F DUP3 ADD AND DUP3 ADD DUP1 PUSH1 0x40 MSTORE POP DUP2 ADD SWAP1 PUSH2 0x1DCE SWAP2 SWAP1 PUSH2 0x37A7 JUMP JUMPDEST LT ISZERO PUSH2 0x1DF0 JUMPI PUSH1 0x40 MLOAD PUSH1 0x1 PUSH3 0x7A6F0D PUSH1 0xE1 SHL SUB NOT DUP2 MSTORE PUSH1 0x4 ADD PUSH1 0x40 MLOAD DUP1 SWAP2 SUB SWAP1 REVERT JUMPDEST DUP1 PUSH1 0x3 ADD SLOAD DUP3 PUSH1 0xA0 ADD MLOAD DUP3 PUSH1 0x4 ADD SLOAD PUSH2 0x1E09 SWAP2 SWAP1 PUSH2 0x372F JUMP JUMPDEST GT ISZERO PUSH2 0x1E28 JUMPI PUSH1 0x40 MLOAD PUSH4 0x3EFF4BD PUSH1 0xE6 SHL DUP2 MSTORE PUSH1 0x4 ADD PUSH1 0x40 MLOAD DUP1 SWAP2 SUB SWAP1 REVERT JUMPDEST PUSH1 0x1 SLOAD PUSH1 0xC0 DUP4 ADD MLOAD PUSH1 0x40 MLOAD PUSH4 0x23B872DD PUSH1 0xE0 SHL DUP2 MSTORE CALLER PUSH1 0x4 DUP3 ADD MSTORE ADDRESS PUSH1 0x24 DUP3 ADD MSTORE PUSH1 0x44 DUP2 ADD SWAP2 SWAP1 SWAP2 MSTORE PUSH1 0x1 PUSH1 0x1 PUSH1 0xA0 SHL SUB SWAP1 SWAP2 AND SWAP1 PUSH4 0x23B872DD SWAP1 PUSH1 0x64 ADD PUSH1 0x20 PUSH1 0x40 MLOAD DUP1 DUP4 SUB DUP2 PUSH0 DUP8 GAS CALL ISZERO DUP1 ISZERO PUSH2 0x1E82 JUMPI RETURNDATASIZE PUSH0 DUP1 RETURNDATACOPY RETURNDATASIZE PUSH0 REVERT JUMPDEST POP POP POP POP PUSH1 0x40 MLOAD RETURNDATASIZE PUSH1 0x1F NOT PUSH1 0x1F DUP3 ADD AND DUP3 ADD DUP1 PUSH1 0x40 MSTORE POP DUP2 ADD SWAP1 PUSH2 0x1EA6 SWAP2 SWAP1 PUSH2 0x37BE JUMP JUMPDEST POP PUSH1 0x1 SLOAD PUSH1 0xC0 DUP4 ADD MLOAD PUSH1 0xD SLOAD PUSH1 0x1 PUSH1 0x1 PUSH1 0xA0 SHL SUB SWAP1 SWAP3 AND SWAP2 PUSH4 0x42966C68 SWAP2 PUSH2 0x1ECD SWAP2 PUSH2 0x2C40 JUMP JUMPDEST PUSH1 0x40 MLOAD DUP3 PUSH4 0xFFFFFFFF AND PUSH1 0xE0 SHL DUP2 MSTORE PUSH1 0x4 ADD PUSH2 0x1EEB SWAP2 DUP2 MSTORE PUSH1 0x20 ADD SWAP1 JUMP JUMPDEST PUSH0 PUSH1 0x40 MLOAD DUP1 DUP4 SUB DUP2 PUSH0 DUP8 DUP1 EXTCODESIZE ISZERO DUP1 ISZERO PUSH2 0x1F02 JUMPI PUSH0 DUP1 REVERT JUMPDEST POP GAS CALL ISZERO DUP1 ISZERO PUSH2 0x1F14 JUMPI RETURNDATASIZE PUSH0 DUP1 RETURNDATACOPY RETURNDATASIZE PUSH0 REVERT JUMPDEST POP POP POP POP PUSH1 0x40 DUP3 ADD DUP5 SWAP1 MSTORE PUSH1 0x60 DUP3 ADD DUP4 SWAP1 MSTORE PUSH1 0x5 DUP1 SLOAD PUSH0 SWAP1 PUSH2 0x1F35 SWAP1 PUSH2 0x37D9 JUMP JUMPDEST SWAP2 DUP3 SWAP1 SSTORE POP PUSH1 0x20 DUP1 DUP5 ADD SWAP2 SWAP1 SWAP2 MSTORE CALLER PUSH0 DUP2 DUP2 MSTORE PUSH1 0x19 DUP4 MSTORE PUSH1 0x40 DUP1 DUP3 KECCAK256 DUP9 DUP4 MSTORE DUP5 MSTORE DUP1 DUP3 KECCAK256 DUP8 DUP4 MSTORE DUP5 MSTORE DUP1 DUP3 KECCAK256 DUP1 SLOAD PUSH1 0xFF NOT AND PUSH1 0x1 OR SWAP1 SSTORE PUSH1 0x5 SLOAD SWAP3 DUP3 MSTORE PUSH1 0x13 SWAP1 SWAP4 MSTORE SWAP2 SWAP1 SWAP2 KECCAK256 PUSH2 0x1F84 SWAP2 PUSH2 0x2D67 JUMP JUMPDEST POP PUSH1 0x5 DUP1 SLOAD PUSH0 SWAP1 DUP2 MSTORE PUSH1 0x14 PUSH1 0x20 SWAP1 DUP2 MSTORE PUSH1 0x40 DUP1 DUP4 KECCAK256 DUP7 MLOAD DUP2 SSTORE SWAP2 DUP7 ADD MLOAD PUSH1 0x1 DUP4 ADD SSTORE DUP6 ADD MLOAD PUSH1 0x2 DUP1 DUP4 ADD SWAP2 SWAP1 SWAP2 SSTORE PUSH1 0x60 DUP7 ADD MLOAD PUSH1 0x3 DUP4 ADD SSTORE PUSH1 0x80 DUP7 ADD MLOAD PUSH1 0x4 DUP4 ADD SSTORE PUSH1 0xA0 DUP7 ADD MLOAD SWAP4 DUP3 ADD SWAP4 SWAP1 SWAP4 SSTORE PUSH1 0xC0 DUP6 ADD MLOAD PUSH1 0x6 DUP3 ADD SSTORE PUSH1 0xE0 DUP6 ADD MLOAD PUSH1 0x7 SWAP1 SWAP2 ADD DUP1 SLOAD PUSH1 0xFF NOT AND SWAP2 ISZERO ISZERO SWAP2 SWAP1 SWAP2 OR SWAP1 SSTORE SWAP1 DUP3 ADD DUP1 SLOAD SWAP2 PUSH2 0x2004 DUP4 PUSH2 0x37D9 JUMP JUMPDEST SWAP2 SWAP1 POP SSTORE POP DUP2 PUSH1 0xA0 ADD MLOAD DUP2 PUSH1 0x4 ADD PUSH0 DUP3 DUP3 SLOAD PUSH2 0x2020 SWAP2 SWAP1 PUSH2 0x372F JUMP JUMPDEST SWAP1 SWAP2 SSTORE POP POP PUSH1 0xC0 DUP3 ADD MLOAD PUSH1 0x5 SLOAD PUSH1 0x40 DUP1 MLOAD SWAP3 DUP4 MSTORE PUSH1 0x20 DUP4 ADD SWAP2 SWAP1 SWAP2 MSTORE DUP2 ADD DUP6 SWAP1 MSTORE PUSH1 0x60 DUP2 ADD DUP5 SWAP1 MSTORE DUP6 SWAP1 CALLER SWAP1 PUSH32 0x70A5D2D3258ADCF9978A193A4DD8FA309AE83A9F1046A0A5EA99A133BF34F9A5 SWAP1 PUSH1 0x80 ADD PUSH1 0x40 MLOAD DUP1 SWAP2 SUB SWAP1 LOG3 PUSH2 0x2087 CALLER DUP4 PUSH1 0x80 ADD MLOAD PUSH2 0x2D72 JUMP JUMPDEST POP POP POP POP POP JUMP JUMPDEST PUSH2 0x2096 PUSH2 0x2E74 JUMP JUMPDEST PUSH1 0xB SSTORE JUMP JUMPDEST PUSH2 0x20A3 PUSH2 0x2E74 JUMP JUMPDEST PUSH0 DUP3 DUP2 MSTORE PUSH1 0x18 PUSH1 0x20 MSTORE PUSH1 0x40 SWAP1 DUP2 SWAP1 KECCAK256 DUP3 SWAP1 SSTORE MLOAD DUP3 SWAP1 PUSH32 0x86257F0AFAB037798CC4548A6D86125F52C92410A1E29AFF03D787D49DAC20DB SWAP1 PUSH2 0x20E7 SWAP1 DUP5 DUP2 MSTORE PUSH1 0x20 ADD SWAP1 JUMP JUMPDEST PUSH1 0x40 MLOAD DUP1 SWAP2 SUB SWAP1 LOG2 POP POP JUMP JUMPDEST PUSH2 0x20FB PUSH2 0x2E74 JUMP JUMPDEST PUSH1 0x1 SLOAD PUSH1 0x2 SLOAD PUSH1 0x40 MLOAD PUSH4 0xA9059CBB PUSH1 0xE0 SHL DUP2 MSTORE PUSH1 0x1 PUSH1 0x1 PUSH1 0xA0 SHL SUB SWAP2 DUP3 AND PUSH1 0x4 DUP3 ADD MSTORE PUSH1 0x24 DUP2 ADD DUP5 SWAP1 MSTORE SWAP2 AND SWAP1 PUSH4 0xA9059CBB SWAP1 PUSH1 0x44 ADD PUSH1 0x20 PUSH1 0x40 MLOAD DUP1 DUP4 SUB DUP2 PUSH0 DUP8 GAS CALL ISZERO DUP1 ISZERO PUSH2 0x214D JUMPI RETURNDATASIZE PUSH0 DUP1 RETURNDATACOPY RETURNDATASIZE PUSH0 REVERT JUMPDEST POP POP POP POP PUSH1 0x40 MLOAD RETURNDATASIZE PUSH1 0x1F NOT PUSH1 0x1F DUP3 ADD AND DUP3 ADD DUP1 PUSH1 0x40 MSTORE POP DUP2 ADD SWAP1 PUSH2 0x1A51 SWAP2 SWAP1 PUSH2 0x37BE JUMP JUMPDEST PUSH2 0x2179 PUSH2 0x2E74 JUMP JUMPDEST PUSH1 0x6 SLOAD DUP3 GT ISZERO PUSH2 0x219C JUMPI PUSH1 0x40 MLOAD PUSH4 0x3A6C77DF PUSH1 0xE0 SHL DUP2 MSTORE PUSH1 0x4 ADD PUSH1 0x40 MLOAD DUP1 SWAP2 SUB SWAP1 REVERT JUMPDEST PUSH32 0x0 DUP3 SUB PUSH2 0x21DC JUMPI PUSH1 0x40 MLOAD PUSH4 0x11C175A1 PUSH1 0xE2 SHL DUP2 MSTORE PUSH1 0x4 ADD PUSH1 0x40 MLOAD DUP1 SWAP2 SUB SWAP1 REVERT JUMPDEST PUSH0 DUP3 DUP2 MSTORE PUSH1 0x11 PUSH1 0x20 SWAP1 DUP2 MSTORE PUSH1 0x40 SWAP2 DUP3 SWAP1 KECCAK256 PUSH1 0x6 DUP2 ADD DUP5 SWAP1 SSTORE SWAP2 MLOAD DUP4 DUP2 MSTORE DUP5 SWAP2 PUSH32 0xF920B24EA96B3814655944622F9EB86875E3193C5DE1A9DE018777E6C8705CEE SWAP2 ADD JUMPDEST PUSH1 0x40 MLOAD DUP1 SWAP2 SUB SWAP1 LOG2 POP POP POP JUMP JUMPDEST PUSH2 0x2234 PUSH2 0x2E74 JUMP JUMPDEST PUSH1 0x7 SLOAD DUP3 GT ISZERO PUSH2 0x2257 JUMPI PUSH1 0x40 MLOAD PUSH4 0xD968121 PUSH1 0xE3 SHL DUP2 MSTORE PUSH1 0x4 ADD PUSH1 0x40 MLOAD DUP1 SWAP2 SUB SWAP1 REVERT JUMPDEST PUSH32 0x0 DUP3 SUB PUSH2 0x2297 JUMPI PUSH1 0x40 MLOAD PUSH4 0x78FD0BB1 PUSH1 0xE1 SHL DUP2 MSTORE PUSH1 0x4 ADD PUSH1 0x40 MLOAD DUP1 SWAP2 SUB SWAP1 REVERT JUMPDEST PUSH0 DUP3 DUP2 MSTORE PUSH1 0x12 PUSH1 0x20 SWAP1 DUP2 MSTORE PUSH1 0x40 SWAP2 DUP3 SWAP1 KECCAK256 PUSH1 0x2 DUP2 ADD DUP5 SWAP1 SSTORE SWAP2 MLOAD DUP4 DUP2 MSTORE DUP5 SWAP2 PUSH32 0xF721E9425607D38ABDA58B925D2A080B3AEFA127D46973D2683875DC87CB9A6B SWAP2 ADD PUSH2 0x221F JUMP JUMPDEST PUSH2 0x22E6 PUSH2 0x2E74 JUMP JUMPDEST PUSH8 0xDE0B6B3A7640000 DUP2 GT ISZERO PUSH2 0x230F JUMPI PUSH1 0x40 MLOAD PUSH4 0x58D620B3 PUSH1 0xE0 SHL DUP2 MSTORE PUSH1 0x4 ADD PUSH1 0x40 MLOAD DUP1 SWAP2 SUB SWAP1 REVERT JUMPDEST PUSH1 0xC SSTORE JUMP JUMPDEST PUSH2 0x231C PUSH2 0x2E74 JUMP JUMPDEST PUSH2 0x2325 PUSH0 PUSH2 0x2EA0 JUMP JUMPDEST JUMP JUMPDEST PUSH1 0x4 SLOAD PUSH0 SWAP1 PUSH1 0xFF AND PUSH2 0x2338 JUMPI POP PUSH0 SWAP1 JUMP JUMPDEST PUSH0 PUSH3 0x401640 PUSH1 0x3 SLOAD NUMBER PUSH2 0x234B SWAP2 SWAP1 PUSH2 0x371C JUMP JUMPDEST PUSH2 0x2355 SWAP2 SWAP1 PUSH2 0x376A JUMP JUMPDEST SWAP1 POP PUSH2 0x2362 DUP2 PUSH1 0x2 PUSH2 0x38D4 JUMP JUMPDEST PUSH2 0xF8F SWAP1 PUSH8 0x22B1C8C1227A0000 PUSH2 0x376A JUMP JUMPDEST PUSH1 0xB SLOAD PUSH1 0x1 PUSH1 0x1 PUSH1 0xA0 SHL SUB DUP3 AND PUSH0 SWAP1 DUP2 MSTORE PUSH1 0x1A PUSH1 0x20 MSTORE PUSH1 0x40 DUP2 KECCAK256 SLOAD SWAP1 SWAP2 TIMESTAMP SWAP2 PUSH2 0x239D SWAP2 SWAP1 PUSH2 0x372F JUMP JUMPDEST LT ISZERO PUSH2 0x23AA JUMPI POP PUSH0 SWAP2 SWAP1 POP JUMP JUMPDEST PUSH1 0xB SLOAD PUSH1 0x1 PUSH1 0x1 PUSH1 0xA0 SHL SUB DUP4 AND PUSH0 SWAP1 DUP2 MSTORE PUSH1 0x1A PUSH1 0x20 MSTORE PUSH1 0x40 SWAP1 KECCAK256 SLOAD TIMESTAMP SWAP2 PUSH2 0x23D0 SWAP2 PUSH2 0x372F JUMP JUMPDEST PUSH2 0x1318 SWAP2 SWAP1 PUSH2 0x371C JUMP JUMPDEST PUSH2 0x23E2 PUSH2 0x2E74 JUMP JUMPDEST DUP6 PUSH2 0x23ED DUP3 DUP5 PUSH2 0x377D JUMP JUMPDEST EQ PUSH2 0x240B JUMPI PUSH1 0x40 MLOAD PUSH4 0x11CBA807 PUSH1 0xE2 SHL DUP2 MSTORE PUSH1 0x4 ADD PUSH1 0x40 MLOAD DUP1 SWAP2 SUB SWAP1 REVERT JUMPDEST PUSH1 0x7 SLOAD PUSH0 SWAP1 DUP2 MSTORE PUSH1 0x12 PUSH1 0x20 MSTORE PUSH1 0x40 SWAP1 KECCAK256 PUSH1 0x4 ADD SLOAD DUP3 LT DUP1 PUSH2 0x243E JUMPI POP PUSH1 0x7 SLOAD PUSH0 SWAP1 DUP2 MSTORE PUSH1 0x12 PUSH1 0x20 MSTORE PUSH1 0x40 SWAP1 KECCAK256 PUSH1 0x5 ADD SLOAD DUP2 LT JUMPDEST ISZERO PUSH2 0x245C JUMPI PUSH1 0x40 MLOAD PUSH4 0x11CBA807 PUSH1 0xE2 SHL DUP2 MSTORE PUSH1 0x4 ADD PUSH1 0x40 MLOAD DUP1 SWAP2 SUB SWAP1 REVERT JUMPDEST PUSH1 0x7 SLOAD PUSH0 SWAP1 DUP2 MSTORE PUSH1 0x12 PUSH1 0x20 MSTORE PUSH1 0x40 SWAP1 KECCAK256 PUSH1 0x1 ADD SLOAD DUP6 LT ISZERO PUSH2 0x2490 JUMPI PUSH1 0x40 MLOAD PUSH4 0xD2A50ED PUSH1 0xE4 SHL DUP2 MSTORE PUSH1 0x4 ADD PUSH1 0x40 MLOAD DUP1 SWAP2 SUB SWAP1 REVERT JUMPDEST PUSH1 0x40 MLOAD DUP1 PUSH1 0xC0 ADD PUSH1 0x40 MSTORE DUP1 DUP8 DUP2 MSTORE PUSH1 0x20 ADD DUP7 DUP2 MSTORE PUSH1 0x20 ADD DUP6 DUP2 MSTORE PUSH1 0x20 ADD DUP5 ISZERO ISZERO DUP2 MSTORE PUSH1 0x20 ADD DUP4 DUP2 MSTORE PUSH1 0x20 ADD DUP3 DUP2 MSTORE POP PUSH1 0x12 PUSH0 PUSH1 0x7 PUSH0 DUP2 SLOAD PUSH2 0x24D0 SWAP1 PUSH2 0x37D9 JUMP JUMPDEST SWAP2 DUP3 SWAP1 SSTORE POP DUP2 MSTORE PUSH1 0x20 DUP1 DUP3 ADD SWAP3 SWAP1 SWAP3 MSTORE PUSH1 0x40 SWAP1 DUP2 ADD PUSH0 KECCAK256 DUP4 MLOAD DUP2 SSTORE DUP4 DUP4 ADD MLOAD PUSH1 0x1 DUP3 ADD SSTORE DUP4 DUP3 ADD MLOAD PUSH1 0x2 DUP3 ADD SSTORE PUSH1 0x60 DUP1 DUP6 ADD MLOAD PUSH1 0x3 DUP4 ADD DUP1 SLOAD PUSH1 0xFF NOT AND SWAP2 ISZERO ISZERO SWAP2 SWAP1 SWAP2 OR SWAP1 SSTORE PUSH1 0x80 DUP1 DUP7 ADD MLOAD PUSH1 0x4 DUP5 ADD SSTORE PUSH1 0xA0 SWAP6 DUP7 ADD MLOAD PUSH1 0x5 SWAP1 SWAP4 ADD SWAP3 SWAP1 SWAP3 SSTORE PUSH1 0x7 SLOAD DUP4 MLOAD DUP12 DUP2 MSTORE SWAP5 DUP6 ADD DUP11 SWAP1 MSTORE DUP9 ISZERO ISZERO SWAP4 DUP6 ADD SWAP4 SWAP1 SWAP4 MSTORE DUP4 ADD DUP7 SWAP1 MSTORE DUP3 ADD DUP5 SWAP1 MSTORE SWAP2 PUSH32 0x6AE4A0E17EC15E82A1AF6FF99411C44193A38F27F15C3DDD30B0F09AB1C5FD2C SWAP2 ADD PUSH1 0x40 MLOAD DUP1 SWAP2 SUB SWAP1 LOG2 POP POP POP POP POP POP JUMP JUMPDEST PUSH0 PUSH1 0x9 SLOAD PUSH0 SUB PUSH2 0x2597 JUMPI POP PUSH0 SWAP2 SWAP1 POP JUMP JUMPDEST PUSH0 PUSH3 0x401640 PUSH1 0x3 SLOAD NUMBER PUSH2 0x25AA SWAP2 SWAP1 PUSH2 0x371C JUMP JUMPDEST PUSH2 0x25B4 SWAP2 SWAP1 PUSH2 0x376A JUMP JUMPDEST PUSH2 0x25BF SWAP1 PUSH1 0x2 PUSH2 0x38D4 JUMP JUMPDEST PUSH2 0x25D1 SWAP1 PUSH8 0x22B1C8C1227A0000 PUSH2 0x376A JUMP JUMPDEST PUSH1 0x1 PUSH1 0x1 PUSH1 0xA0 SHL SUB DUP5 AND PUSH0 SWAP1 DUP2 MSTORE PUSH1 0xE PUSH1 0x20 MSTORE PUSH1 0x40 SWAP1 KECCAK256 SLOAD PUSH1 0x9 SLOAD SWAP2 SWAP3 POP PUSH2 0xF1A SWAP2 DUP4 SWAP1 PUSH2 0x2EEF JUMP JUMPDEST PUSH2 0x2602 PUSH2 0x2E74 JUMP JUMPDEST PUSH1 0x2 DUP1 SLOAD PUSH1 0x1 PUSH1 0x1 PUSH1 0xA0 SHL SUB NOT AND PUSH1 0x1 PUSH1 0x1 PUSH1 0xA0 SHL SUB SWAP3 SWAP1 SWAP3 AND SWAP2 SWAP1 SWAP2 OR SWAP1 SSTORE JUMP JUMPDEST PUSH2 0x262C PUSH2 0x2E74 JUMP JUMPDEST PUSH1 0x1 DUP1 SLOAD PUSH1 0x1 PUSH1 0x1 PUSH1 0xA0 SHL SUB NOT AND PUSH1 0x1 PUSH1 0x1 PUSH1 0xA0 SHL SUB SWAP3 SWAP1 SWAP3 AND SWAP2 SWAP1 SWAP2 OR SWAP1 SSTORE JUMP JUMPDEST PUSH2 0x2656 PUSH2 0x2E74 JUMP JUMPDEST PUSH1 0x6 PUSH0 DUP2 SLOAD PUSH2 0x2664 SWAP1 PUSH2 0x37D9 JUMP JUMPDEST SWAP1 SWAP2 SSTORE POP PUSH1 0x40 DUP1 MLOAD PUSH2 0x100 DUP2 ADD DUP3 MSTORE PUSH1 0x6 DUP1 SLOAD DUP1 DUP4 MSTORE PUSH0 PUSH1 0x20 DUP1 DUP6 ADD DUP3 DUP2 MSTORE DUP6 DUP8 ADD DUP4 DUP2 MSTORE PUSH1 0x60 DUP1 DUP9 ADD DUP6 DUP2 MSTORE PUSH1 0x80 DUP1 DUP11 ADD DUP16 DUP2 MSTORE PUSH1 0xA0 DUP12 ADD DUP16 DUP2 MSTORE PUSH1 0xC0 DUP13 ADD DUP16 DUP2 MSTORE DUP15 ISZERO ISZERO PUSH1 0xE0 DUP15 ADD DUP2 DUP2 MSTORE SWAP12 DUP12 MSTORE PUSH1 0x11 DUP11 MSTORE SWAP10 DUP15 SWAP1 KECCAK256 SWAP13 MLOAD DUP14 SSTORE SWAP7 MLOAD PUSH1 0x1 DUP14 ADD SSTORE SWAP5 MLOAD PUSH1 0x2 DUP13 ADD SSTORE SWAP2 MLOAD PUSH1 0x3 DUP12 ADD SSTORE SWAP1 MLOAD PUSH1 0x4 DUP11 ADD SSTORE SWAP2 MLOAD PUSH1 0x5 DUP10 ADD SSTORE SWAP2 MLOAD DUP8 DUP8 ADD SSTORE SWAP4 MLOAD PUSH1 0x7 SWAP1 SWAP7 ADD DUP1 SLOAD PUSH1 0xFF NOT AND SWAP7 ISZERO ISZERO SWAP7 SWAP1 SWAP7 OR SWAP1 SWAP6 SSTORE SWAP3 SLOAD DUP6 MLOAD DUP11 DUP2 MSTORE SWAP4 DUP5 ADD DUP10 SWAP1 MSTORE SWAP5 DUP4 ADD DUP8 SWAP1 MSTORE SWAP3 DUP3 ADD SWAP3 SWAP1 SWAP3 MSTORE PUSH32 0xE0A2F8482BBBA7E119C069EB63409AC33B15FC516CFFED25AEABB6A9669E07C2 SWAP2 ADD PUSH2 0x16EC JUMP JUMPDEST PUSH2 0x274A PUSH2 0x2E74 JUMP JUMPDEST PUSH32 0x0 DUP3 LT DUP1 PUSH2 0x2779 JUMPI POP PUSH1 0x6 SLOAD DUP3 GT JUMPDEST ISZERO PUSH2 0x2797 JUMPI PUSH1 0x40 MLOAD PUSH4 0x3B87F109 PUSH1 0xE0 SHL DUP2 MSTORE PUSH1 0x4 ADD PUSH1 0x40 MLOAD DUP1 SWAP2 SUB SWAP1 REVERT JUMPDEST PUSH0 DUP3 DUP2 MSTORE PUSH1 0x11 PUSH1 0x20 SWAP1 DUP2 MSTORE PUSH1 0x40 SWAP2 DUP3 SWAP1 KECCAK256 PUSH1 0x7 DUP2 ADD DUP1 SLOAD PUSH1 0xFF NOT AND DUP6 ISZERO ISZERO SWAP1 DUP2 OR SWAP1 SWAP2 SSTORE SWAP3 MLOAD SWAP3 DUP4 MSTORE SWAP2 DUP5 SWAP2 PUSH32 0xD0A7CEB410ADE2D440D8ED59D6B338FE480F98025101655790E0DE736EDDDABE SWAP2 ADD PUSH2 0x221F JUMP JUMPDEST PUSH2 0x27F3 PUSH2 0x2E74 JUMP JUMPDEST PUSH8 0xDE0B6B3A7640000 DUP2 GT ISZERO PUSH2 0x281C JUMPI PUSH1 0x40 MLOAD PUSH4 0x58D620B3 PUSH1 0xE0 SHL DUP2 MSTORE PUSH1 0x4 ADD PUSH1 0x40 MLOAD DUP1 SWAP2 SUB SWAP1 REVERT JUMPDEST PUSH1 0xD SSTORE JUMP JUMPDEST PUSH2 0x2829 PUSH2 0x2E74 JUMP JUMPDEST PUSH32 0x0 DUP3 LT DUP1 PUSH2 0x2858 JUMPI POP PUSH1 0x7 SLOAD DUP3 GT JUMPDEST ISZERO PUSH2 0x2876 JUMPI PUSH1 0x40 MLOAD PUSH4 0x1DBB333F PUSH1 0xE3 SHL DUP2 MSTORE PUSH1 0x4 ADD PUSH1 0x40 MLOAD DUP1 SWAP2 SUB SWAP1 REVERT JUMPDEST PUSH0 DUP3 DUP2 MSTORE PUSH1 0x12 PUSH1 0x20 SWAP1 DUP2 MSTORE PUSH1 0x40 SWAP2 DUP3 SWAP1 KECCAK256 PUSH1 0x3 DUP2 ADD DUP1 SLOAD PUSH1 0xFF NOT AND DUP6 ISZERO ISZERO SWAP1 DUP2 OR SWAP1 SWAP2 SSTORE SWAP3 MLOAD SWAP3 DUP4 MSTORE SWAP2 DUP5 SWAP2 PUSH32 0xBD772FD008A8DD5673C42A4F50F72220B2603EEE55113CD6C38FF78D71E644F SWAP2 ADD PUSH2 0x221F JUMP JUMPDEST CALLER PUSH0 SWAP1 DUP2 MSTORE PUSH1 0x13 PUSH1 0x20 MSTORE PUSH1 0x40 SWAP1 KECCAK256 PUSH2 0x28E2 SWAP1 DUP3 PUSH2 0x2F14 JUMP JUMPDEST PUSH2 0x28FF JUMPI PUSH1 0x40 MLOAD PUSH4 0x3D9F63CB PUSH1 0xE0 SHL DUP2 MSTORE PUSH1 0x4 ADD PUSH1 0x40 MLOAD DUP1 SWAP2 SUB SWAP1 REVERT JUMPDEST PUSH0 DUP2 DUP2 MSTORE PUSH1 0x14 PUSH1 0x20 SWAP1 DUP2 MSTORE PUSH1 0x40 DUP1 DUP4 KECCAK256 DUP2 MLOAD PUSH2 0x100 DUP2 ADD DUP4 MSTORE DUP2 SLOAD DUP1 DUP3 MSTORE PUSH1 0x1 DUP1 DUP5 ADD SLOAD DUP4 DUP8 ADD MSTORE PUSH1 0x2 DUP5 ADD SLOAD DUP4 DUP7 ADD MSTORE PUSH1 0x3 DUP5 ADD SLOAD PUSH1 0x60 DUP5 ADD MSTORE PUSH1 0x4 DUP1 DUP6 ADD SLOAD PUSH1 0x80 DUP6 ADD MSTORE PUSH1 0x5 DUP6 ADD SLOAD PUSH1 0xA0 DUP6 ADD MSTORE PUSH1 0x6 DUP6 ADD SLOAD PUSH1 0xC0 DUP6 ADD MSTORE PUSH1 0x7 SWAP1 SWAP5 ADD SLOAD PUSH1 0xFF AND ISZERO ISZERO PUSH1 0xE0 DUP5 ADD MSTORE SWAP1 DUP7 MSTORE PUSH1 0x18 SWAP1 SWAP5 MSTORE SWAP4 DUP3 SWAP1 KECCAK256 SLOAD SWAP3 SLOAD SWAP2 MLOAD PUSH4 0x70A08231 PUSH1 0xE0 SHL DUP2 MSTORE ADDRESS SWAP2 DUP2 ADD SWAP2 SWAP1 SWAP2 MSTORE PUSH1 0x1 PUSH1 0x1 PUSH1 0xA0 SHL SUB SWAP1 SWAP2 AND SWAP1 PUSH4 0x70A08231 SWAP1 PUSH1 0x24 ADD PUSH1 0x20 PUSH1 0x40 MLOAD DUP1 DUP4 SUB DUP2 DUP7 GAS STATICCALL ISZERO DUP1 ISZERO PUSH2 0x29BC JUMPI RETURNDATASIZE PUSH0 DUP1 RETURNDATACOPY RETURNDATASIZE PUSH0 REVERT JUMPDEST POP POP POP POP PUSH1 0x40 MLOAD RETURNDATASIZE PUSH1 0x1F NOT PUSH1 0x1F DUP3 ADD AND DUP3 ADD DUP1 PUSH1 0x40 MSTORE POP DUP2 ADD SWAP1 PUSH2 0x29E0 SWAP2 SWAP1 PUSH2 0x37A7 JUMP JUMPDEST DUP2 GT ISZERO PUSH2 0x2A00 JUMPI PUSH1 0x40 MLOAD PUSH4 0x515D3E81 PUSH1 0xE0 SHL DUP2 MSTORE PUSH1 0x4 ADD PUSH1 0x40 MLOAD DUP1 SWAP2 SUB SWAP1 REVERT JUMPDEST CALLER PUSH0 SWAP1 DUP2 MSTORE PUSH1 0x15 PUSH1 0x20 MSTORE PUSH1 0x40 DUP2 KECCAK256 PUSH1 0x2 DUP2 ADD DUP1 SLOAD SWAP2 SWAP3 PUSH2 0x2A1F DUP4 PUSH2 0x38DF JUMP JUMPDEST SWAP2 SWAP1 POP SSTORE POP DUP3 PUSH1 0xA0 ADD MLOAD DUP2 PUSH1 0x4 ADD PUSH0 DUP3 DUP3 SLOAD PUSH2 0x2A3B SWAP2 SWAP1 PUSH2 0x371C JUMP JUMPDEST SWAP1 SWAP2 SSTORE POP POP CALLER PUSH0 SWAP1 DUP2 MSTORE PUSH1 0x13 PUSH1 0x20 MSTORE PUSH1 0x40 SWAP1 KECCAK256 PUSH2 0x2A58 SWAP1 DUP6 PUSH2 0x2F1F JUMP JUMPDEST POP PUSH0 DUP5 DUP2 MSTORE PUSH1 0x14 PUSH1 0x20 SWAP1 DUP2 MSTORE PUSH1 0x40 DUP1 DUP4 KECCAK256 DUP4 DUP2 SSTORE PUSH1 0x1 DUP2 ADD DUP5 SWAP1 SSTORE PUSH1 0x2 DUP2 ADD DUP5 SWAP1 SSTORE PUSH1 0x3 DUP2 ADD DUP5 SWAP1 SSTORE PUSH1 0x4 DUP2 ADD DUP5 SWAP1 SSTORE PUSH1 0x5 DUP2 ADD DUP5 SWAP1 SSTORE PUSH1 0x6 DUP2 ADD DUP5 SWAP1 SSTORE PUSH1 0x7 ADD DUP1 SLOAD PUSH1 0xFF NOT SWAP1 DUP2 AND SWAP1 SWAP2 SSTORE CALLER DUP1 DUP6 MSTORE PUSH1 0x19 DUP5 MSTORE DUP3 DUP6 KECCAK256 DUP9 DUP5 ADD DUP1 MLOAD DUP8 MSTORE SWAP1 DUP6 MSTORE DUP4 DUP7 KECCAK256 PUSH1 0x60 DUP1 DUP12 ADD DUP1 MLOAD DUP10 MSTORE SWAP2 DUP8 MSTORE SWAP7 DUP6 SWAP1 KECCAK256 DUP1 SLOAD SWAP1 SWAP5 AND SWAP1 SWAP4 SSTORE DUP9 MLOAD SWAP1 MLOAD SWAP3 MLOAD DUP5 MLOAD DUP10 DUP2 MSTORE SWAP6 DUP7 ADD DUP12 SWAP1 MSTORE SWAP4 DUP6 ADD SWAP3 SWAP1 SWAP3 MSTORE SWAP4 DUP4 ADD SWAP2 SWAP1 SWAP2 MSTORE SWAP2 SWAP1 PUSH32 0x952AA29DABFC45E8C9BBA19903B0A8BB9031C952DB14A06AD48AF137E5835B07 SWAP1 PUSH1 0x80 ADD PUSH1 0x40 MLOAD DUP1 SWAP2 SUB SWAP1 LOG3 PUSH2 0x2B30 CALLER DUP5 PUSH1 0x80 ADD MLOAD PUSH2 0x2F2A JUMP JUMPDEST DUP2 ISZERO PUSH2 0x19CE JUMPI PUSH1 0x1 SLOAD PUSH1 0x40 MLOAD PUSH4 0xA9059CBB PUSH1 0xE0 SHL DUP2 MSTORE CALLER PUSH1 0x4 DUP3 ADD MSTORE PUSH1 0x24 DUP2 ADD DUP5 SWAP1 MSTORE PUSH1 0x1 PUSH1 0x1 PUSH1 0xA0 SHL SUB SWAP1 SWAP2 AND SWAP1 PUSH4 0xA9059CBB SWAP1 PUSH1 0x44 ADD PUSH1 0x20 PUSH1 0x40 MLOAD DUP1 DUP4 SUB DUP2 PUSH0 DUP8 GAS CALL ISZERO DUP1 ISZERO PUSH2 0x2B84 JUMPI RETURNDATASIZE PUSH0 DUP1 RETURNDATACOPY RETURNDATASIZE PUSH0 REVERT JUMPDEST POP POP POP POP PUSH1 0x40 MLOAD RETURNDATASIZE PUSH1 0x1F NOT PUSH1 0x1F DUP3 ADD AND DUP3 ADD DUP1 PUSH1 0x40 MSTORE POP DUP2 ADD SWAP1 PUSH2 0x2087 SWAP2 SWAP1 PUSH2 0x37BE JUMP JUMPDEST PUSH2 0x2BB0 PUSH2 0x2E74 JUMP JUMPDEST PUSH1 0x1E SSTORE JUMP JUMPDEST PUSH1 0x1C PUSH1 0x20 MSTORE DUP2 PUSH0 MSTORE PUSH1 0x40 PUSH0 KECCAK256 DUP2 DUP2 SLOAD DUP2 LT PUSH2 0x2BCE JUMPI PUSH0 DUP1 REVERT JUMPDEST PUSH0 SWAP2 DUP3 MSTORE PUSH1 0x20 SWAP1 SWAP2 KECCAK256 ADD SLOAD PUSH1 0x1 PUSH1 0x1 PUSH1 0xA0 SHL SUB AND SWAP2 POP DUP3 SWAP1 POP JUMP JUMPDEST PUSH2 0x2BF1 PUSH2 0x2E74 JUMP JUMPDEST PUSH1 0x1 PUSH1 0x1 PUSH1 0xA0 SHL SUB DUP2 AND PUSH2 0x2C1F JUMPI PUSH1 0x40 MLOAD PUSH4 0x1E4FBDF7 PUSH1 0xE0 SHL DUP2 MSTORE PUSH0 PUSH1 0x4 DUP3 ADD MSTORE PUSH1 0x24 ADD JUMPDEST PUSH1 0x40 MLOAD DUP1 SWAP2 SUB SWAP1 REVERT JUMPDEST PUSH2 0x2C28 DUP2 PUSH2 0x2EA0 JUMP JUMPDEST POP JUMP JUMPDEST PUSH0 PUSH2 0x1318 DUP3 PUSH2 0x2FCF JUMP JUMPDEST PUSH0 PUSH2 0xF1A DUP4 DUP4 PUSH2 0x301D JUMP JUMPDEST PUSH0 DUP2 PUSH0 NOT DIV DUP4 GT ISZERO PUSH2 0x2C5F JUMPI DUP2 ISZERO PUSH2 0x2C5F JUMPI PUSH4 0xBAC65E5B PUSH0 MSTORE PUSH1 0x4 PUSH1 0x1C REVERT JUMPDEST POP PUSH8 0xDE0B6B3A7640000 SWAP2 MUL DIV SWAP1 JUMP JUMPDEST PUSH2 0x2C77 PUSH2 0x3066 JUMP JUMPDEST PUSH1 0x1 PUSH1 0x1 PUSH1 0xA0 SHL SUB DUP2 AND PUSH0 SWAP1 DUP2 MSTORE PUSH1 0x10 PUSH1 0x20 MSTORE PUSH1 0x40 SWAP1 KECCAK256 SLOAD PUSH1 0xA SLOAD PUSH8 0xDE0B6B3A7640000 SWAP2 PUSH2 0x2CA5 SWAP2 PUSH2 0x371C JUMP JUMPDEST PUSH1 0x1 PUSH1 0x1 PUSH1 0xA0 SHL SUB DUP4 AND PUSH0 SWAP1 DUP2 MSTORE PUSH1 0xE PUSH1 0x20 MSTORE PUSH1 0x40 SWAP1 KECCAK256 SLOAD PUSH2 0x2CC7 SWAP2 SWAP1 PUSH2 0x377D JUMP JUMPDEST PUSH2 0x2CD1 SWAP2 SWAP1 PUSH2 0x376A JUMP JUMPDEST PUSH1 0x1 PUSH1 0x1 PUSH1 0xA0 SHL SUB DUP3 AND PUSH0 SWAP1 DUP2 MSTORE PUSH1 0xF PUSH1 0x20 MSTORE PUSH1 0x40 DUP2 KECCAK256 DUP1 SLOAD SWAP1 SWAP2 SWAP1 PUSH2 0x2CF8 SWAP1 DUP5 SWAP1 PUSH2 0x372F JUMP JUMPDEST SWAP1 SWAP2 SSTORE POP POP PUSH1 0xA SLOAD PUSH1 0x1 PUSH1 0x1 PUSH1 0xA0 SHL SUB SWAP1 SWAP2 AND PUSH0 SWAP1 DUP2 MSTORE PUSH1 0x10 PUSH1 0x20 MSTORE PUSH1 0x40 SWAP1 KECCAK256 SSTORE JUMP JUMPDEST PUSH0 DUP3 DUP6 LT ISZERO DUP1 PUSH2 0x2D2B JUMPI POP DUP2 DUP5 LT ISZERO JUMPDEST ISZERO PUSH2 0x2D38 JUMPI POP PUSH1 0x1 PUSH2 0x2D5F JUMP JUMPDEST POP CALLER PUSH0 SWAP1 DUP2 MSTORE PUSH1 0x19 PUSH1 0x20 SWAP1 DUP2 MSTORE PUSH1 0x40 DUP1 DUP4 KECCAK256 DUP8 DUP5 MSTORE DUP3 MSTORE DUP1 DUP4 KECCAK256 DUP7 DUP5 MSTORE SWAP1 SWAP2 MSTORE SWAP1 KECCAK256 SLOAD PUSH1 0xFF AND JUMPDEST SWAP5 SWAP4 POP POP POP POP JUMP JUMPDEST PUSH0 PUSH2 0xF1A DUP4 DUP4 PUSH2 0x3184 JUMP JUMPDEST PUSH1 0x4 SLOAD PUSH1 0xFF AND PUSH2 0x2DCF JUMPI PUSH1 0x4 DUP1 SLOAD PUSH1 0xFF NOT AND PUSH1 0x1 OR SWAP1 SSTORE NUMBER PUSH1 0x3 DUP2 SWAP1 SSTORE PUSH1 0x8 DUP2 SWAP1 SSTORE PUSH1 0x40 MLOAD PUSH32 0xDAAE9AA758637A0D349F036F099AFD70AA88D8AC63FCE096321DE512FFEBC16C SWAP2 PUSH2 0x2DC6 SWAP2 SWAP1 DUP2 MSTORE PUSH1 0x20 ADD SWAP1 JUMP JUMPDEST PUSH1 0x40 MLOAD DUP1 SWAP2 SUB SWAP1 LOG1 JUMPDEST PUSH2 0x2DD8 DUP3 PUSH2 0x2C6F JUMP JUMPDEST DUP1 PUSH1 0x9 PUSH0 DUP3 DUP3 SLOAD PUSH2 0x2DE9 SWAP2 SWAP1 PUSH2 0x372F JUMP JUMPDEST SWAP1 SWAP2 SSTORE POP POP PUSH1 0x1 PUSH1 0x1 PUSH1 0xA0 SHL SUB DUP3 AND PUSH0 SWAP1 DUP2 MSTORE PUSH1 0xE PUSH1 0x20 MSTORE PUSH1 0x40 DUP2 KECCAK256 DUP1 SLOAD DUP4 SWAP3 SWAP1 PUSH2 0x2E15 SWAP1 DUP5 SWAP1 PUSH2 0x372F JUMP JUMPDEST SWAP1 SWAP2 SSTORE POP POP PUSH1 0x1 PUSH1 0x1 PUSH1 0xA0 SHL SUB DUP3 AND PUSH0 SWAP1 DUP2 MSTORE PUSH1 0xE PUSH1 0x20 SWAP1 DUP2 MSTORE PUSH1 0x40 DUP1 DUP4 KECCAK256 SLOAD PUSH1 0xF DUP4 MSTORE SWAP3 DUP2 SWAP1 KECCAK256 SLOAD DUP2 MLOAD SWAP4 DUP5 MSTORE SWAP2 DUP4 ADD SWAP2 SWAP1 SWAP2 MSTORE CALLER SWAP2 PUSH32 0xA051D58CED8DF58040B29D2C939DA70A826AE40290F77C9A66B38B8B85315F65 SWAP2 ADD PUSH2 0x20E7 JUMP JUMPDEST PUSH0 SLOAD PUSH1 0x1 PUSH1 0x1 PUSH1 0xA0 SHL SUB AND CALLER EQ PUSH2 0x2325 JUMPI PUSH1 0x40 MLOAD PUSH4 0x118CDAA7 PUSH1 0xE0 SHL DUP2 MSTORE CALLER PUSH1 0x4 DUP3 ADD MSTORE PUSH1 0x24 ADD PUSH2 0x2C16 JUMP JUMPDEST PUSH0 DUP1 SLOAD PUSH1 0x1 PUSH1 0x1 PUSH1 0xA0 SHL SUB DUP4 DUP2 AND PUSH1 0x1 PUSH1 0x1 PUSH1 0xA0 SHL SUB NOT DUP4 AND DUP2 OR DUP5 SSTORE PUSH1 0x40 MLOAD SWAP2 SWAP1 SWAP3 AND SWAP3 DUP4 SWAP2 PUSH32 0x8BE0079C531659141344CD1FD0A4F28419497F9722A3DAAFE3B4186F6B6457E0 SWAP2 SWAP1 LOG3 POP POP JUMP JUMPDEST DUP3 DUP3 MUL DUP4 ISZERO DUP5 DUP3 DIV DUP5 EQ OR DUP3 MUL PUSH2 0x2F0D JUMPI PUSH4 0xAD251C27 PUSH0 MSTORE PUSH1 0x4 PUSH1 0x1C REVERT JUMPDEST DIV SWAP3 SWAP2 POP POP JUMP JUMPDEST PUSH0 PUSH2 0xF1A DUP4 DUP4 PUSH2 0x32A0 JUMP JUMPDEST PUSH0 PUSH2 0xF1A DUP4 DUP4 PUSH2 0x3328 JUMP JUMPDEST PUSH2 0x2F33 DUP3 PUSH2 0x2C6F JUMP JUMPDEST DUP1 PUSH1 0x9 PUSH0 DUP3 DUP3 SLOAD PUSH2 0x2F44 SWAP2 SWAP1 PUSH2 0x371C JUMP JUMPDEST SWAP1 SWAP2 SSTORE POP POP PUSH1 0x1 PUSH1 0x1 PUSH1 0xA0 SHL SUB DUP3 AND PUSH0 SWAP1 DUP2 MSTORE PUSH1 0xE PUSH1 0x20 MSTORE PUSH1 0x40 DUP2 KECCAK256 DUP1 SLOAD DUP4 SWAP3 SWAP1 PUSH2 0x2F70 SWAP1 DUP5 SWAP1 PUSH2 0x371C JUMP JUMPDEST SWAP1 SWAP2 SSTORE POP POP PUSH1 0x1 PUSH1 0x1 PUSH1 0xA0 SHL SUB DUP3 AND PUSH0 SWAP1 DUP2 MSTORE PUSH1 0xE PUSH1 0x20 SWAP1 DUP2 MSTORE PUSH1 0x40 DUP1 DUP4 KECCAK256 SLOAD PUSH1 0xF DUP4 MSTORE SWAP3 DUP2 SWAP1 KECCAK256 SLOAD DUP2 MLOAD SWAP4 DUP5 MSTORE SWAP2 DUP4 ADD SWAP2 SWAP1 SWAP2 MSTORE CALLER SWAP2 PUSH32 0xE331ADA0D0E61E9A4196BF4994F2519193D70A601DAFF346C4276D591664DA9A SWAP2 ADD PUSH2 0x20E7 JUMP JUMPDEST PUSH4 0x18FB5864 PUSH1 0x4 MSTORE PUSH0 DUP2 DUP2 MSTORE PUSH1 0x24 DUP2 KECCAK256 DUP1 NOT SLOAD DUP1 PUSH1 0x1 SHR SWAP3 POP DUP1 PUSH2 0x3016 JUMPI DUP2 SLOAD PUSH0 SWAP4 POP ISZERO PUSH2 0x3016 JUMPI PUSH1 0x1 SWAP3 POP DUP3 DUP3 ADD SLOAD ISZERO PUSH2 0x3016 JUMPI PUSH1 0x2 SWAP3 POP DUP3 DUP3 ADD SLOAD ISZERO PUSH2 0x3016 JUMPI PUSH1 0x3 SWAP3 POP JUMPDEST POP POP SWAP2 SWAP1 POP JUMP JUMPDEST PUSH4 0x18FB5864 PUSH1 0x4 MSTORE PUSH0 DUP3 DUP2 MSTORE PUSH1 0x24 SWAP1 KECCAK256 DUP2 ADD SLOAD PUSH9 0xFBB67FDA52D4BFB8BF DUP2 EQ ISZERO MUL PUSH2 0x3047 DUP4 PUSH2 0x2FCF JUMP JUMPDEST DUP3 LT PUSH2 0x1318 JUMPI PUSH1 0x40 MLOAD PUSH4 0x4E23D035 PUSH1 0xE0 SHL DUP2 MSTORE PUSH1 0x4 ADD PUSH1 0x40 MLOAD DUP1 SWAP2 SUB SWAP1 REVERT JUMPDEST PUSH1 0x9 SLOAD PUSH0 SUB PUSH2 0x3075 JUMPI NUMBER PUSH1 0x8 SSTORE JUMP JUMPDEST PUSH1 0x8 SLOAD PUSH1 0x3 SLOAD PUSH0 SWAP1 PUSH3 0x401640 SWAP1 PUSH2 0x308C SWAP1 DUP5 PUSH2 0x371C JUMP JUMPDEST PUSH2 0x3096 SWAP2 SWAP1 PUSH2 0x376A JUMP JUMPDEST PUSH2 0x30A1 SWAP1 PUSH1 0x2 PUSH2 0x38D4 JUMP JUMPDEST PUSH2 0x30B3 SWAP1 PUSH8 0x22B1C8C1227A0000 PUSH2 0x376A JUMP JUMPDEST SWAP1 POP JUMPDEST NUMBER DUP3 LT ISZERO PUSH2 0x317C JUMPI PUSH0 PUSH3 0x401640 PUSH2 0x30CD DUP2 DUP6 PUSH2 0x376A JUMP JUMPDEST PUSH2 0x30D8 SWAP1 PUSH1 0x1 PUSH2 0x372F JUMP JUMPDEST PUSH2 0x30E2 SWAP2 SWAP1 PUSH2 0x377D JUMP JUMPDEST PUSH3 0x401640 PUSH1 0x3 SLOAD PUSH2 0x30F3 SWAP2 SWAP1 PUSH2 0x3794 JUMP JUMPDEST PUSH2 0x30FD SWAP2 SWAP1 PUSH2 0x372F JUMP JUMPDEST SWAP1 POP PUSH0 NUMBER DUP3 LT PUSH2 0x310D JUMPI NUMBER PUSH2 0x310F JUMP JUMPDEST DUP2 JUMPDEST PUSH1 0x9 SLOAD SWAP1 SWAP2 POP PUSH8 0xDE0B6B3A7640000 PUSH2 0x3128 DUP7 DUP5 PUSH2 0x371C JUMP JUMPDEST PUSH2 0x3132 SWAP1 DUP7 PUSH2 0x377D JUMP JUMPDEST PUSH2 0x313C SWAP2 SWAP1 PUSH2 0x377D JUMP JUMPDEST PUSH2 0x3146 SWAP2 SWAP1 PUSH2 0x376A JUMP JUMPDEST PUSH1 0xA PUSH0 DUP3 DUP3 SLOAD PUSH2 0x3156 SWAP2 SWAP1 PUSH2 0x372F JUMP JUMPDEST SWAP3 POP POP DUP2 SWAP1 SSTORE POP DUP1 SWAP4 POP DUP2 DUP5 SUB PUSH2 0x3175 JUMPI PUSH2 0x3172 PUSH1 0x2 DUP5 PUSH2 0x376A JUMP JUMPDEST SWAP3 POP JUMPDEST POP POP PUSH2 0x30B6 JUMP JUMPDEST POP POP NUMBER PUSH1 0x8 SSTORE JUMP JUMPDEST PUSH4 0x18FB5864 PUSH1 0x4 MSTORE PUSH0 DUP3 DUP2 MSTORE PUSH1 0x24 DUP2 KECCAK256 PUSH9 0xFBB67FDA52D4BFB8BF DUP4 SUB PUSH2 0x31B1 JUMPI PUSH4 0xF5A267F1 PUSH0 MSTORE PUSH1 0x4 PUSH1 0x1C REVERT JUMPDEST DUP3 PUSH2 0x31C3 JUMPI PUSH9 0xFBB67FDA52D4BFB8BF SWAP3 POP JUMPDEST DUP1 NOT SLOAD DUP2 PUSH1 0x20 MSTORE DUP1 PUSH2 0x3267 JUMPI DUP2 SLOAD DUP1 PUSH2 0x31E3 JUMPI DUP5 DUP4 SSTORE PUSH1 0x1 SWAP4 POP POP PUSH2 0x3298 JUMP JUMPDEST DUP5 DUP2 SUB PUSH2 0x31F0 JUMPI POP PUSH2 0x3298 JUMP JUMPDEST PUSH1 0x1 DUP4 ADD SLOAD DUP1 PUSH2 0x320B JUMPI DUP6 PUSH1 0x1 DUP6 ADD SSTORE PUSH1 0x1 SWAP5 POP POP POP PUSH2 0x3298 JUMP JUMPDEST DUP6 DUP2 SUB PUSH2 0x3219 JUMPI POP POP PUSH2 0x3298 JUMP JUMPDEST PUSH1 0x2 DUP5 ADD SLOAD DUP1 PUSH2 0x3235 JUMPI DUP7 PUSH1 0x2 DUP7 ADD SSTORE PUSH1 0x1 SWAP6 POP POP POP POP PUSH2 0x3298 JUMP JUMPDEST DUP7 DUP2 SUB PUSH2 0x3244 JUMPI POP POP POP PUSH2 0x3298 JUMP JUMPDEST PUSH0 SWAP3 DUP4 MSTORE PUSH1 0x40 DUP1 DUP5 KECCAK256 PUSH1 0x1 SWAP1 SSTORE SWAP2 DUP4 MSTORE DUP2 DUP4 KECCAK256 PUSH1 0x2 SWAP1 SSTORE DUP3 MSTORE SWAP1 KECCAK256 PUSH1 0x3 SWAP1 SSTORE POP PUSH1 0x7 JUMPDEST DUP4 PUSH0 MSTORE PUSH1 0x40 PUSH0 KECCAK256 DUP1 SLOAD PUSH2 0x3296 JUMPI PUSH1 0x1 SWAP2 DUP3 SHR DUP4 DUP2 ADD DUP7 SWAP1 SSTORE DUP1 DUP4 ADD SWAP2 DUP3 SWAP1 SSTORE SWAP1 DUP3 SHL DUP3 OR DUP4 NOT SSTORE SWAP1 SWAP3 POP PUSH2 0x3298 JUMP JUMPDEST POP JUMPDEST POP POP SWAP3 SWAP2 POP POP JUMP JUMPDEST PUSH4 0x18FB5864 PUSH1 0x4 MSTORE PUSH0 DUP3 DUP2 MSTORE PUSH1 0x24 DUP2 KECCAK256 PUSH9 0xFBB67FDA52D4BFB8BF DUP4 SUB PUSH2 0x32CD JUMPI PUSH4 0xF5A267F1 PUSH0 MSTORE PUSH1 0x4 PUSH1 0x1C REVERT JUMPDEST DUP3 PUSH2 0x32DF JUMPI PUSH9 0xFBB67FDA52D4BFB8BF SWAP3 POP JUMPDEST DUP1 NOT SLOAD PUSH2 0x3310 JUMPI DUP1 SLOAD PUSH1 0x1 SWAP3 POP DUP4 EQ PUSH2 0x3321 JUMPI PUSH1 0x1 DUP2 ADD SLOAD DUP4 EQ PUSH2 0x3321 JUMPI PUSH1 0x2 DUP2 ADD SLOAD DUP4 EQ PUSH2 0x3321 JUMPI PUSH0 SWAP2 POP PUSH2 0x3321 JUMP JUMPDEST DUP1 PUSH1 0x20 MSTORE DUP3 PUSH0 MSTORE PUSH1 0x40 PUSH0 KECCAK256 SLOAD ISZERO ISZERO SWAP2 POP JUMPDEST POP SWAP3 SWAP2 POP POP JUMP JUMPDEST PUSH4 0x18FB5864 PUSH1 0x4 MSTORE PUSH0 DUP3 DUP2 MSTORE PUSH1 0x24 DUP2 KECCAK256 PUSH9 0xFBB67FDA52D4BFB8BF DUP4 SUB PUSH2 0x3355 JUMPI PUSH4 0xF5A267F1 PUSH0 MSTORE PUSH1 0x4 PUSH1 0x1C REVERT JUMPDEST DUP3 PUSH2 0x3367 JUMPI PUSH9 0xFBB67FDA52D4BFB8BF SWAP3 POP JUMPDEST DUP1 NOT SLOAD DUP1 PUSH2 0x33D0 JUMPI PUSH1 0x1 SWAP3 POP DUP4 DUP3 SLOAD SUB PUSH2 0x3394 JUMPI PUSH1 0x1 DUP3 ADD DUP1 SLOAD DUP4 SSTORE PUSH1 0x2 DUP4 ADD DUP1 SLOAD SWAP1 SWAP2 SSTORE PUSH0 SWAP1 SSTORE PUSH2 0x3298 JUMP JUMPDEST DUP4 PUSH1 0x1 DUP4 ADD SLOAD SUB PUSH2 0x33B2 JUMPI PUSH1 0x2 DUP3 ADD DUP1 SLOAD PUSH1 0x1 DUP5 ADD SSTORE PUSH0 SWAP1 SSTORE PUSH2 0x3298 JUMP JUMPDEST DUP4 PUSH1 0x2 DUP4 ADD SLOAD SUB PUSH2 0x33C8 JUMPI PUSH0 PUSH1 0x2 DUP4 ADD SSTORE PUSH2 0x3298 JUMP JUMPDEST PUSH0 SWAP3 POP PUSH2 0x3298 JUMP JUMPDEST DUP2 PUSH1 0x20 MSTORE DUP4 PUSH0 MSTORE PUSH1 0x40 PUSH0 KECCAK256 DUP1 SLOAD DUP1 PUSH2 0x33E9 JUMPI POP POP PUSH2 0x3298 JUMP JUMPDEST PUSH1 0x1 DUP4 PUSH1 0x1 SHR SUB SWAP3 POP DUP3 PUSH1 0x1 DUP3 SUB EQ PUSH2 0x3413 JUMPI DUP3 DUP5 ADD SLOAD DUP1 PUSH1 0x1 DUP4 SUB DUP7 ADD SSTORE DUP1 PUSH0 MSTORE POP DUP1 PUSH1 0x40 PUSH0 KECCAK256 SSTORE JUMPDEST POP PUSH1 0x1 DUP3 PUSH1 0x1 SHL OR DUP4 NOT SSTORE PUSH0 DUP2 SSTORE POP PUSH1 0x1 SWAP3 POP POP POP SWAP3 SWAP2 POP POP JUMP JUMPDEST PUSH1 0x40 MLOAD DUP1 PUSH2 0x100 ADD PUSH1 0x40 MSTORE DUP1 PUSH0 DUP2 MSTORE PUSH1 0x20 ADD PUSH0 DUP2 MSTORE PUSH1 0x20 ADD PUSH0 DUP2 MSTORE PUSH1 0x20 ADD PUSH0 DUP2 MSTORE PUSH1 0x20 ADD PUSH0 DUP2 MSTORE PUSH1 0x20 ADD PUSH0 DUP2 MSTORE PUSH1 0x20 ADD PUSH0 DUP2 MSTORE PUSH1 0x20 ADD PUSH0 ISZERO ISZERO DUP2 MSTORE POP SWAP1 JUMP JUMPDEST PUSH0 PUSH1 0x20 DUP3 DUP5 SUB SLT ISZERO PUSH2 0x347D JUMPI PUSH0 DUP1 REVERT JUMPDEST POP CALLDATALOAD SWAP2 SWAP1 POP JUMP JUMPDEST DUP1 CALLDATALOAD PUSH1 0x1 PUSH1 0x1 PUSH1 0xA0 SHL SUB DUP2 AND DUP2 EQ PUSH2 0x349A JUMPI PUSH0 DUP1 REVERT JUMPDEST SWAP2 SWAP1 POP JUMP JUMPDEST PUSH0 DUP1 PUSH0 PUSH1 0x60 DUP5 DUP7 SUB SLT ISZERO PUSH2 0x34B1 JUMPI PUSH0 DUP1 REVERT JUMPDEST PUSH2 0x34BA DUP5 PUSH2 0x3484 JUMP JUMPDEST SWAP6 PUSH1 0x20 DUP6 ADD CALLDATALOAD SWAP6 POP PUSH1 0x40 SWAP1 SWAP5 ADD CALLDATALOAD SWAP4 SWAP3 POP POP POP JUMP JUMPDEST PUSH1 0x20 DUP1 DUP3 MSTORE DUP3 MLOAD DUP3 DUP3 ADD DUP2 SWAP1 MSTORE PUSH0 SWAP2 DUP5 ADD SWAP1 PUSH1 0x40 DUP5 ADD SWAP1 DUP4 JUMPDEST DUP2 DUP2 LT ISZERO PUSH2 0x3557 JUMPI DUP4 MLOAD DUP1 MLOAD DUP5 MSTORE PUSH1 0x20 DUP2 ADD MLOAD PUSH1 0x20 DUP6 ADD MSTORE PUSH1 0x40 DUP2 ADD MLOAD PUSH1 0x40 DUP6 ADD MSTORE PUSH1 0x60 DUP2 ADD MLOAD PUSH1 0x60 DUP6 ADD MSTORE PUSH1 0x80 DUP2 ADD MLOAD PUSH1 0x80 DUP6 ADD MSTORE PUSH1 0xA0 DUP2 ADD MLOAD PUSH1 0xA0 DUP6 ADD MSTORE PUSH1 0xC0 DUP2 ADD MLOAD PUSH1 0xC0 DUP6 ADD MSTORE PUSH1 0xE0 DUP2 ADD MLOAD ISZERO ISZERO PUSH1 0xE0 DUP6 ADD MSTORE POP PUSH2 0x100 DUP4 ADD SWAP3 POP PUSH1 0x20 DUP5 ADD SWAP4 POP PUSH1 0x1 DUP2 ADD SWAP1 POP PUSH2 0x34E8 JUMP JUMPDEST POP SWAP1 SWAP6 SWAP5 POP POP POP POP POP JUMP JUMPDEST PUSH0 PUSH1 0x20 DUP3 DUP5 SUB SLT ISZERO PUSH2 0x3572 JUMPI PUSH0 DUP1 REVERT JUMPDEST PUSH2 0xF1A DUP3 PUSH2 0x3484 JUMP JUMPDEST PUSH0 DUP1 PUSH1 0x40 DUP4 DUP6 SUB SLT ISZERO PUSH2 0x358C JUMPI PUSH0 DUP1 REVERT JUMPDEST POP POP DUP1 CALLDATALOAD SWAP3 PUSH1 0x20 SWAP1 SWAP2 ADD CALLDATALOAD SWAP2 POP JUMP JUMPDEST PUSH1 0x20 DUP1 DUP3 MSTORE DUP3 MLOAD DUP3 DUP3 ADD DUP2 SWAP1 MSTORE PUSH0 SWAP2 DUP5 ADD SWAP1 PUSH1 0x40 DUP5 ADD SWAP1 DUP4 JUMPDEST DUP2 DUP2 LT ISZERO PUSH2 0x3557 JUMPI DUP4 MLOAD PUSH1 0x1 PUSH1 0x1 PUSH1 0xA0 SHL SUB AND DUP4 MSTORE PUSH1 0x20 SWAP4 DUP5 ADD SWAP4 SWAP1 SWAP3 ADD SWAP2 PUSH1 0x1 ADD PUSH2 0x35B4 JUMP JUMPDEST PUSH0 DUP1 PUSH0 PUSH1 0x60 DUP5 DUP7 SUB SLT ISZERO PUSH2 0x35ED JUMPI PUSH0 DUP1 REVERT JUMPDEST POP POP DUP2 CALLDATALOAD SWAP4 PUSH1 0x20 DUP4 ADD CALLDATALOAD SWAP4 POP PUSH1 0x40 SWAP1 SWAP3 ADD CALLDATALOAD SWAP2 SWAP1 POP JUMP JUMPDEST DUP1 ISZERO ISZERO DUP2 EQ PUSH2 0x2C28 JUMPI PUSH0 DUP1 REVERT JUMPDEST PUSH0 DUP1 PUSH0 DUP1 PUSH0 DUP1 PUSH1 0xC0 DUP8 DUP10 SUB SLT ISZERO PUSH2 0x3626 JUMPI PUSH0 DUP1 REVERT JUMPDEST DUP7 CALLDATALOAD SWAP6 POP PUSH1 0x20 DUP8 ADD CALLDATALOAD SWAP5 POP PUSH1 0x40 DUP8 ADD CALLDATALOAD SWAP4 POP PUSH1 0x60 DUP8 ADD CALLDATALOAD PUSH2 0x3646 DUP2 PUSH2 0x3604 JUMP JUMPDEST SWAP6 SWAP9 SWAP5 SWAP8 POP SWAP3 SWAP6 PUSH1 0x80 DUP2 ADD CALLDATALOAD SWAP5 PUSH1 0xA0 SWAP1 SWAP2 ADD CALLDATALOAD SWAP4 POP SWAP2 POP POP JUMP JUMPDEST PUSH0 DUP1 PUSH0 DUP1 PUSH1 0x80 DUP6 DUP8 SUB SLT ISZERO PUSH2 0x3673 JUMPI PUSH0 DUP1 REVERT JUMPDEST DUP5 CALLDATALOAD SWAP4 POP PUSH1 0x20 DUP6 ADD CALLDATALOAD SWAP3 POP PUSH1 0x40 DUP6 ADD CALLDATALOAD SWAP2 POP PUSH1 0x60 DUP6 ADD CALLDATALOAD PUSH2 0x3693 DUP2 PUSH2 0x3604 JUMP JUMPDEST SWAP4 SWAP7 SWAP3 SWAP6 POP SWAP1 SWAP4 POP POP JUMP JUMPDEST PUSH0 DUP1 PUSH1 0x40 DUP4 DUP6 SUB SLT ISZERO PUSH2 0x36AF JUMPI PUSH0 DUP1 REVERT JUMPDEST DUP3 CALLDATALOAD SWAP2 POP PUSH1 0x20 DUP4 ADD CALLDATALOAD PUSH2 0x36C1 DUP2 PUSH2 0x3604 JUMP JUMPDEST DUP1 SWAP2 POP POP SWAP3 POP SWAP3 SWAP1 POP JUMP JUMPDEST PUSH0 DUP1 PUSH1 0x40 DUP4 DUP6 SUB SLT ISZERO PUSH2 0x36DD JUMPI PUSH0 DUP1 REVERT JUMPDEST PUSH2 0x36E6 DUP4 PUSH2 0x3484 JUMP JUMPDEST SWAP5 PUSH1 0x20 SWAP4 SWAP1 SWAP4 ADD CALLDATALOAD SWAP4 POP POP POP JUMP JUMPDEST PUSH4 0x4E487B71 PUSH1 0xE0 SHL PUSH0 MSTORE PUSH1 0x41 PUSH1 0x4 MSTORE PUSH1 0x24 PUSH0 REVERT JUMPDEST PUSH4 0x4E487B71 PUSH1 0xE0 SHL PUSH0 MSTORE PUSH1 0x11 PUSH1 0x4 MSTORE PUSH1 0x24 PUSH0 REVERT JUMPDEST DUP2 DUP2 SUB DUP2 DUP2 GT ISZERO PUSH2 0x1318 JUMPI PUSH2 0x1318 PUSH2 0x3708 JUMP JUMPDEST DUP1 DUP3 ADD DUP1 DUP3 GT ISZERO PUSH2 0x1318 JUMPI PUSH2 0x1318 PUSH2 0x3708 JUMP JUMPDEST PUSH4 0x4E487B71 PUSH1 0xE0 SHL PUSH0 MSTORE PUSH1 0x32 PUSH1 0x4 MSTORE PUSH1 0x24 PUSH0 REVERT JUMPDEST PUSH4 0x4E487B71 PUSH1 0xE0 SHL PUSH0 MSTORE PUSH1 0x12 PUSH1 0x4 MSTORE PUSH1 0x24 PUSH0 REVERT JUMPDEST PUSH0 DUP3 PUSH2 0x3778 JUMPI PUSH2 0x3778 PUSH2 0x3756 JUMP JUMPDEST POP DIV SWAP1 JUMP JUMPDEST DUP1 DUP3 MUL DUP2 ISZERO DUP3 DUP3 DIV DUP5 EQ OR PUSH2 0x1318 JUMPI PUSH2 0x1318 PUSH2 0x3708 JUMP JUMPDEST PUSH0 DUP3 PUSH2 0x37A2 JUMPI PUSH2 0x37A2 PUSH2 0x3756 JUMP JUMPDEST POP MOD SWAP1 JUMP JUMPDEST PUSH0 PUSH1 0x20 DUP3 DUP5 SUB SLT ISZERO PUSH2 0x37B7 JUMPI PUSH0 DUP1 REVERT JUMPDEST POP MLOAD SWAP2 SWAP1 POP JUMP JUMPDEST PUSH0 PUSH1 0x20 DUP3 DUP5 SUB SLT ISZERO PUSH2 0x37CE JUMPI PUSH0 DUP1 REVERT JUMPDEST DUP2 MLOAD PUSH2 0xF1A DUP2 PUSH2 0x3604 JUMP JUMPDEST PUSH0 PUSH1 0x1 DUP3 ADD PUSH2 0x37EA JUMPI PUSH2 0x37EA PUSH2 0x3708 JUMP JUMPDEST POP PUSH1 0x1 ADD SWAP1 JUMP JUMPDEST PUSH1 0x1 DUP2 JUMPDEST PUSH1 0x1 DUP5 GT ISZERO PUSH2 0x382C JUMPI DUP1 DUP6 DIV DUP2 GT ISZERO PUSH2 0x3810 JUMPI PUSH2 0x3810 PUSH2 0x3708 JUMP JUMPDEST PUSH1 0x1 DUP5 AND ISZERO PUSH2 0x381E JUMPI SWAP1 DUP2 MUL SWAP1 JUMPDEST PUSH1 0x1 SWAP4 SWAP1 SWAP4 SHR SWAP3 DUP1 MUL PUSH2 0x37F5 JUMP JUMPDEST SWAP4 POP SWAP4 SWAP2 POP POP JUMP JUMPDEST PUSH0 DUP3 PUSH2 0x3842 JUMPI POP PUSH1 0x1 PUSH2 0x1318 JUMP JUMPDEST DUP2 PUSH2 0x384E JUMPI POP PUSH0 PUSH2 0x1318 JUMP JUMPDEST DUP2 PUSH1 0x1 DUP2 EQ PUSH2 0x3864 JUMPI PUSH1 0x2 DUP2 EQ PUSH2 0x386E JUMPI PUSH2 0x388A JUMP JUMPDEST PUSH1 0x1 SWAP2 POP POP PUSH2 0x1318 JUMP JUMPDEST PUSH1 0xFF DUP5 GT ISZERO PUSH2 0x387F JUMPI PUSH2 0x387F PUSH2 0x3708 JUMP JUMPDEST POP POP PUSH1 0x1 DUP3 SHL PUSH2 0x1318 JUMP JUMPDEST POP PUSH1 0x20 DUP4 LT PUSH2 0x133 DUP4 LT AND PUSH1 0x4E DUP5 LT PUSH1 0xB DUP5 LT AND OR ISZERO PUSH2 0x38AD JUMPI POP DUP2 DUP2 EXP PUSH2 0x1318 JUMP JUMPDEST PUSH2 0x38B9 PUSH0 NOT DUP5 DUP5 PUSH2 0x37F1 JUMP JUMPDEST DUP1 PUSH0 NOT DIV DUP3 GT ISZERO PUSH2 0x38CC JUMPI PUSH2 0x38CC PUSH2 0x3708 JUMP JUMPDEST MUL SWAP4 SWAP3 POP POP POP JUMP JUMPDEST PUSH0 PUSH2 0xF1A DUP4 DUP4 PUSH2 0x3834 JUMP JUMPDEST PUSH0 DUP2 PUSH2 0x38ED JUMPI PUSH2 0x38ED PUSH2 0x3708 JUMP JUMPDEST POP PUSH0 NOT ADD SWAP1 JUMP INVALID LOG2 PUSH5 0x6970667358 0x22 SLT KECCAK256 0x21 0xDC PUSH23 0x72063B3650F510E68379FBF9657C7B57D7B4E289BE99F0 MUL 0xD4 0xE1 SWAP1 0xEB PUSH32 0x64736F6C634300081A0033000000000000000000000000000000000000000000 "
		},
		"gasEstimates": {
			"creation": {
				"codeDepositCost": "2926800",
				"executionCost": "infinite",
				"totalCost": "infinite"
			},
			"external": {
				"HALVING_INTERVAL()": "284",
				"INITIAL_BITAPE_PER_BLOCK()": "286",
				"REWARDS_PRECISION()": "306",
				"STARTER_FACILITY_INDEX()": "infinite",
				"STARTER_MINER_INDEX()": "infinite",
				"acquiredStarterMiner(address)": "2618",
				"addFacility(uint256,uint256,uint256,bool,uint256,uint256)": "179701",
				"addMiner(uint256,uint256,uint256,bool)": "161448",
				"addSecondaryMarketForMiner(uint256,uint256)": "26176",
				"apetoshi()": "2446",
				"bitape()": "2425",
				"blocksUntilNextHalving()": "infinite",
				"burnPct()": "2361",
				"buyMiner(uint256,uint256,uint256)": "infinite",
				"buyNewFacility()": "infinite",
				"changeFacilityCost(uint256,uint256)": "infinite",
				"changeMinerCost(uint256,uint256)": "infinite",
				"claimRewards()": "infinite",
				"cooldown()": "2385",
				"cumulativeBitapePerHash()": "2427",
				"facilities(uint256)": "13180",
				"facilityCount()": "2361",
				"getBitapePerBlock()": "infinite",
				"getFreeStarterMiner(uint256,uint256)": "infinite",
				"getPlayerMinersPaginated(address,uint256,uint256)": "infinite",
				"getReferrals(address)": "infinite",
				"initialFacilityPrice()": "2426",
				"initializedStarterFacility(address)": "2662",
				"lastFacilityUpgradeTimestamp(address)": "2629",
				"lastRewardBlock()": "2362",
				"minerSecondHandMarket(uint256)": "2548",
				"miners(uint256)": "17476",
				"miningHasStarted()": "2421",
				"owner()": "2386",
				"ownerToFacility(address)": "15397",
				"pendingRewards(address)": "infinite",
				"playerBitapeDebt(address)": "2585",
				"playerBitapePerBlock(address)": "infinite",
				"playerHashrate(address)": "2607",
				"playerMinersId(uint256)": "17520",
				"playerMinersOwned(address)": "2585",
				"playerOccupiedCoords(address,uint256,uint256)": "2808",
				"playerPendingRewards(address)": "2628",
				"purchaseInitialFacility(address)": "infinite",
				"referralBonusPaid(address)": "2652",
				"referralFee()": "2362",
				"referrals(address)": "2666",
				"referredUsers(address,uint256)": "4845",
				"renounceOwnership()": "infinite",
				"sellMiner(uint256)": "9181",
				"setApetoshi(address)": "26866",
				"setBitape(address)": "26821",
				"setBurnPct(uint256)": "24623",
				"setCooldown(uint256)": "24620",
				"setInitialFacilityPrice(uint256)": "24552",
				"setReferralFee(uint256)": "24600",
				"startBlock()": "2407",
				"timeUntilNextFacilityUpgrade(address)": "infinite",
				"toggleFacilityProduction(uint256,bool)": "infinite",
				"toggleMinerProduction(uint256,bool)": "infinite",
				"totalHashrate()": "2406",
				"transferOwnership(address)": "28483",
				"uniqueMinerCount()": "2427",
				"withdraw()": "infinite",
				"withdrawBitape(uint256)": "infinite"
			},
			"internal": {
				"_decreaseHashrate(address,uint256)": "infinite",
				"_increaseHashrate(address,uint256)": "infinite",
				"_isInvalidCoordinates(uint256,uint256,uint256,uint256)": "2405",
				"_updateCumulativeRewards()": "infinite",
				"_updateRewards(address)": "infinite"
			}
		},
		"methodIdentifiers": {
			"HALVING_INTERVAL()": "5fd9491d",
			"INITIAL_BITAPE_PER_BLOCK()": "1116a59f",
			"REWARDS_PRECISION()": "86b3cd26",
			"STARTER_FACILITY_INDEX()": "59058ad1",
			"STARTER_MINER_INDEX()": "ea26fa2d",
			"acquiredStarterMiner(address)": "8dfc3933",
			"addFacility(uint256,uint256,uint256,bool,uint256,uint256)": "8685e3f2",
			"addMiner(uint256,uint256,uint256,bool)": "9f715f60",
			"addSecondaryMarketForMiner(uint256,uint256)": "5c7421e3",
			"apetoshi()": "ebf778cd",
			"bitape()": "d518ed7e",
			"blocksUntilNextHalving()": "2fc96ce6",
			"burnPct()": "9618b31c",
			"buyMiner(uint256,uint256,uint256)": "476e2e66",
			"buyNewFacility()": "30775a94",
			"changeFacilityCost(uint256,uint256)": "69f0ee33",
			"changeMinerCost(uint256,uint256)": "6756a1c7",
			"claimRewards()": "372500ab",
			"cooldown()": "787a08a6",
			"cumulativeBitapePerHash()": "e5e63178",
			"facilities(uint256)": "10d96759",
			"facilityCount()": "6d12ff52",
			"getBitapePerBlock()": "77da8f51",
			"getFreeStarterMiner(uint256,uint256)": "3a8ee01e",
			"getPlayerMinersPaginated(address,uint256,uint256)": "157e204c",
			"getReferrals(address)": "41a0894d",
			"initialFacilityPrice()": "eef3b2d0",
			"initializedStarterFacility(address)": "ca181170",
			"lastFacilityUpgradeTimestamp(address)": "7e08b5b3",
			"lastRewardBlock()": "a9f8d181",
			"minerSecondHandMarket(uint256)": "24b4464e",
			"miners(uint256)": "e0d152af",
			"miningHasStarted()": "94fc19e4",
			"owner()": "8da5cb5b",
			"ownerToFacility(address)": "542f9e6a",
			"pendingRewards(address)": "31d7a262",
			"playerBitapeDebt(address)": "4658a2cc",
			"playerBitapePerBlock(address)": "88199733",
			"playerHashrate(address)": "234f3f1b",
			"playerMinersId(uint256)": "dd6a4c65",
			"playerMinersOwned(address)": "1e57057d",
			"playerOccupiedCoords(address,uint256,uint256)": "e2b15d8c",
			"playerPendingRewards(address)": "40f5da9e",
			"purchaseInitialFacility(address)": "3e89bb13",
			"referralBonusPaid(address)": "1a267cd2",
			"referralFee()": "84ae2bc6",
			"referrals(address)": "9ca423b3",
			"referredUsers(address,uint256)": "e92820e6",
			"renounceOwnership()": "715018a6",
			"sellMiner(uint256)": "d9ba62b3",
			"setApetoshi(address)": "960ac229",
			"setBitape(address)": "970707b2",
			"setBurnPct(uint256)": "c51a2bba",
			"setCooldown(uint256)": "4fc3f41a",
			"setInitialFacilityPrice(uint256)": "df1e3b7f",
			"setReferralFee(uint256)": "713494d7",
			"startBlock()": "48cd4cb1",
			"timeUntilNextFacilityUpgrade(address)": "811c5089",
			"toggleFacilityProduction(uint256,bool)": "d1471296",
			"toggleMinerProduction(uint256,bool)": "c2435894",
			"totalHashrate()": "5a5ccef0",
			"transferOwnership(address)": "f2fde38b",
			"uniqueMinerCount()": "72779cba",
			"withdraw()": "3ccfd60b",
			"withdrawBitape(uint256)": "5d5df7b7"
		}
	},
	"abi": [
		{
			"inputs": [],
			"stateMutability": "nonpayable",
			"type": "constructor"
		},
		{
			"inputs": [],
			"name": "AlreadyAtMaxFacility",
			"type": "error"
		},
		{
			"inputs": [],
			"name": "AlreadyPurchasedInitialFactory",
			"type": "error"
		},
		{
			"inputs": [],
			"name": "CantBuyNewFacilityYet",
			"type": "error"
		},
		{
			"inputs": [],
			"name": "CantModifyStarterFacility",
			"type": "error"
		},
		{
			"inputs": [],
			"name": "CantModifyStarterMiner",
			"type": "error"
		},
		{
			"inputs": [],
			"name": "FacilityDimensionsInvalid",
			"type": "error"
		},
		{
			"inputs": [],
			"name": "FacilityInadequatePowerOutput",
			"type": "error"
		},
		{
			"inputs": [],
			"name": "GreatDepression",
			"type": "error"
		},
		{
			"inputs": [],
			"name": "IncorrectValue",
			"type": "error"
		},
		{
			"inputs": [],
			"name": "IndexOutOfBounds",
			"type": "error"
		},
		{
			"inputs": [],
			"name": "InvalidFacilityIndex",
			"type": "error"
		},
		{
			"inputs": [],
			"name": "InvalidFee",
			"type": "error"
		},
		{
			"inputs": [],
			"name": "InvalidMinerCoordinates",
			"type": "error"
		},
		{
			"inputs": [],
			"name": "InvalidMinerIndex",
			"type": "error"
		},
		{
			"inputs": [],
			"name": "InvalidPowerOutput",
			"type": "error"
		},
		{
			"inputs": [],
			"name": "InvalidReferrer",
			"type": "error"
		},
		{
			"inputs": [],
			"name": "MinerNotInProduction",
			"type": "error"
		},
		{
			"inputs": [],
			"name": "MiningHasntStarted",
			"type": "error"
		},
		{
			"inputs": [],
			"name": "NeedToInitializeFacility",
			"type": "error"
		},
		{
			"inputs": [],
			"name": "NewFacilityNotInProduction",
			"type": "error"
		},
		{
			"inputs": [],
			"name": "NoRewardsPending",
			"type": "error"
		},
		{
			"inputs": [],
			"name": "NonExistentFacility",
			"type": "error"
		},
		{
			"inputs": [],
			"name": "NonExistentMiner",
			"type": "error"
		},
		{
			"inputs": [
				{
					"internalType": "address",
					"name": "owner",
					"type": "address"
				}
			],
			"name": "OwnableInvalidOwner",
			"type": "error"
		},
		{
			"inputs": [
				{
					"internalType": "address",
					"name": "account",
					"type": "address"
				}
			],
			"name": "OwnableUnauthorizedAccount",
			"type": "error"
		},
		{
			"inputs": [],
			"name": "PlayerDoesNotOwnMiner",
			"type": "error"
		},
		{
			"inputs": [],
			"name": "StarterMinerAlreadyAcquired",
			"type": "error"
		},
		{
			"inputs": [],
			"name": "TooPoor",
			"type": "error"
		},
		{
			"inputs": [],
			"name": "WithdrawFailed",
			"type": "error"
		},
		{
			"anonymous": false,
			"inputs": [
				{
					"indexed": true,
					"internalType": "address",
					"name": "player",
					"type": "address"
				},
				{
					"indexed": true,
					"internalType": "uint256",
					"name": "facilityIndex",
					"type": "uint256"
				},
				{
					"indexed": false,
					"internalType": "uint256",
					"name": "cost",
					"type": "uint256"
				}
			],
			"name": "FacilityBought",
			"type": "event"
		},
		{
			"anonymous": false,
			"inputs": [
				{
					"indexed": true,
					"internalType": "uint256",
					"name": "facilityIndex",
					"type": "uint256"
				},
				{
					"indexed": false,
					"internalType": "uint256",
					"name": "newCost",
					"type": "uint256"
				}
			],
			"name": "FacilityCostChanged",
			"type": "event"
		},
		{
			"anonymous": false,
			"inputs": [
				{
					"indexed": true,
					"internalType": "uint256",
					"name": "facilityIndex",
					"type": "uint256"
				},
				{
					"indexed": false,
					"internalType": "bool",
					"name": "inProduction",
					"type": "bool"
				}
			],
			"name": "FacilityProductionToggled",
			"type": "event"
		},
		{
			"anonymous": false,
			"inputs": [
				{
					"indexed": true,
					"internalType": "address",
					"name": "player",
					"type": "address"
				}
			],
			"name": "InitialFacilityPurchased",
			"type": "event"
		},
		{
			"anonymous": false,
			"inputs": [
				{
					"indexed": true,
					"internalType": "address",
					"name": "player",
					"type": "address"
				},
				{
					"indexed": true,
					"internalType": "uint256",
					"name": "minerIndex",
					"type": "uint256"
				},
				{
					"indexed": false,
					"internalType": "uint256",
					"name": "cost",
					"type": "uint256"
				},
				{
					"indexed": false,
					"internalType": "uint256",
					"name": "minerId",
					"type": "uint256"
				},
				{
					"indexed": false,
					"internalType": "uint256",
					"name": "x",
					"type": "uint256"
				},
				{
					"indexed": false,
					"internalType": "uint256",
					"name": "y",
					"type": "uint256"
				}
			],
			"name": "MinerBought",
			"type": "event"
		},
		{
			"anonymous": false,
			"inputs": [
				{
					"indexed": true,
					"internalType": "uint256",
					"name": "minerIndex",
					"type": "uint256"
				},
				{
					"indexed": false,
					"internalType": "uint256",
					"name": "newCost",
					"type": "uint256"
				}
			],
			"name": "MinerCostChanged",
			"type": "event"
		},
		{
			"anonymous": false,
			"inputs": [
				{
					"indexed": true,
					"internalType": "uint256",
					"name": "minerIndex",
					"type": "uint256"
				},
				{
					"indexed": false,
					"internalType": "bool",
					"name": "inProduction",
					"type": "bool"
				}
			],
			"name": "MinerProductionToggled",
			"type": "event"
		},
		{
			"anonymous": false,
			"inputs": [
				{
					"indexed": true,
					"internalType": "uint256",
					"name": "minerIndex",
					"type": "uint256"
				},
				{
					"indexed": false,
					"internalType": "uint256",
					"name": "price",
					"type": "uint256"
				}
			],
			"name": "MinerSecondaryMarketAdded",
			"type": "event"
		},
		{
			"anonymous": false,
			"inputs": [
				{
					"indexed": true,
					"internalType": "address",
					"name": "player",
					"type": "address"
				},
				{
					"indexed": true,
					"internalType": "uint256",
					"name": "minerIndex",
					"type": "uint256"
				},
				{
					"indexed": false,
					"internalType": "uint256",
					"name": "secondHandPrice",
					"type": "uint256"
				},
				{
					"indexed": false,
					"internalType": "uint256",
					"name": "minerId",
					"type": "uint256"
				},
				{
					"indexed": false,
					"internalType": "uint256",
					"name": "x",
					"type": "uint256"
				},
				{
					"indexed": false,
					"internalType": "uint256",
					"name": "y",
					"type": "uint256"
				}
			],
			"name": "MinerSold",
			"type": "event"
		},
		{
			"anonymous": false,
			"inputs": [
				{
					"indexed": false,
					"internalType": "uint256",
					"name": "startBlock",
					"type": "uint256"
				}
			],
			"name": "MiningStarted",
			"type": "event"
		},
		{
			"anonymous": false,
			"inputs": [
				{
					"indexed": true,
					"internalType": "uint256",
					"name": "facilityIndex",
					"type": "uint256"
				},
				{
					"indexed": false,
					"internalType": "uint256",
					"name": "totalPowerOutput",
					"type": "uint256"
				},
				{
					"indexed": false,
					"internalType": "uint256",
					"name": "cost",
					"type": "uint256"
				},
				{
					"indexed": false,
					"internalType": "bool",
					"name": "inProduction",
					"type": "bool"
				},
				{
					"indexed": false,
					"internalType": "uint256",
					"name": "x",
					"type": "uint256"
				},
				{
					"indexed": false,
					"internalType": "uint256",
					"name": "y",
					"type": "uint256"
				}
			],
			"name": "NewFacilityAdded",
			"type": "event"
		},
		{
			"anonymous": false,
			"inputs": [
				{
					"indexed": true,
					"internalType": "uint256",
					"name": "minerIndex",
					"type": "uint256"
				},
				{
					"indexed": false,
					"internalType": "uint256",
					"name": "hashRate",
					"type": "uint256"
				},
				{
					"indexed": false,
					"internalType": "uint256",
					"name": "powerConsumption",
					"type": "uint256"
				},
				{
					"indexed": false,
					"internalType": "uint256",
					"name": "cost",
					"type": "uint256"
				},
				{
					"indexed": false,
					"internalType": "bool",
					"name": "inProduction",
					"type": "bool"
				}
			],
			"name": "NewMinerAdded",
			"type": "event"
		},
		{
			"anonymous": false,
			"inputs": [
				{
					"indexed": true,
					"internalType": "address",
					"name": "previousOwner",
					"type": "address"
				},
				{
					"indexed": true,
					"internalType": "address",
					"name": "newOwner",
					"type": "address"
				}
			],
			"name": "OwnershipTransferred",
			"type": "event"
		},
		{
			"anonymous": false,
			"inputs": [
				{
					"indexed": true,
					"internalType": "address",
					"name": "player",
					"type": "address"
				},
				{
					"indexed": false,
					"internalType": "uint256",
					"name": "playerHashrate",
					"type": "uint256"
				},
				{
					"indexed": false,
					"internalType": "uint256",
					"name": "playerPendingRewards",
					"type": "uint256"
				}
			],
			"name": "PlayerHashrateDecreased",
			"type": "event"
		},
		{
			"anonymous": false,
			"inputs": [
				{
					"indexed": true,
					"internalType": "address",
					"name": "player",
					"type": "address"
				},
				{
					"indexed": false,
					"internalType": "uint256",
					"name": "playerHashrate",
					"type": "uint256"
				},
				{
					"indexed": false,
					"internalType": "uint256",
					"name": "playerPendingRewards",
					"type": "uint256"
				}
			],
			"name": "PlayerHashrateIncreased",
			"type": "event"
		},
		{
			"anonymous": false,
			"inputs": [
				{
					"indexed": true,
					"internalType": "address",
					"name": "player",
					"type": "address"
				},
				{
					"indexed": false,
					"internalType": "uint256",
					"name": "rewards",
					"type": "uint256"
				}
			],
			"name": "RewardsClaimed",
			"type": "event"
		},
		{
			"inputs": [],
			"name": "HALVING_INTERVAL",
			"outputs": [
				{
					"internalType": "uint256",
					"name": "",
					"type": "uint256"
				}
			],
			"stateMutability": "view",
			"type": "function"
		},
		{
			"inputs": [],
			"name": "INITIAL_BITAPE_PER_BLOCK",
			"outputs": [
				{
					"internalType": "uint256",
					"name": "",
					"type": "uint256"
				}
			],
			"stateMutability": "view",
			"type": "function"
		},
		{
			"inputs": [],
			"name": "REWARDS_PRECISION",
			"outputs": [
				{
					"internalType": "uint256",
					"name": "",
					"type": "uint256"
				}
			],
			"stateMutability": "view",
			"type": "function"
		},
		{
			"inputs": [],
			"name": "STARTER_FACILITY_INDEX",
			"outputs": [
				{
					"internalType": "uint256",
					"name": "",
					"type": "uint256"
				}
			],
			"stateMutability": "view",
			"type": "function"
		},
		{
			"inputs": [],
			"name": "STARTER_MINER_INDEX",
			"outputs": [
				{
					"internalType": "uint256",
					"name": "",
					"type": "uint256"
				}
			],
			"stateMutability": "view",
			"type": "function"
		},
		{
			"inputs": [
				{
					"internalType": "address",
					"name": "",
					"type": "address"
				}
			],
			"name": "acquiredStarterMiner",
			"outputs": [
				{
					"internalType": "bool",
					"name": "",
					"type": "bool"
				}
			],
			"stateMutability": "view",
			"type": "function"
		},
		{
			"inputs": [
				{
					"internalType": "uint256",
					"name": "maxMiners",
					"type": "uint256"
				},
				{
					"internalType": "uint256",
					"name": "totalPowerOutput",
					"type": "uint256"
				},
				{
					"internalType": "uint256",
					"name": "cost",
					"type": "uint256"
				},
				{
					"internalType": "bool",
					"name": "inProduction",
					"type": "bool"
				},
				{
					"internalType": "uint256",
					"name": "x",
					"type": "uint256"
				},
				{
					"internalType": "uint256",
					"name": "y",
					"type": "uint256"
				}
			],
			"name": "addFacility",
			"outputs": [],
			"stateMutability": "nonpayable",
			"type": "function"
		},
		{
			"inputs": [
				{
					"internalType": "uint256",
					"name": "hashrate",
					"type": "uint256"
				},
				{
					"internalType": "uint256",
					"name": "powerConsumption",
					"type": "uint256"
				},
				{
					"internalType": "uint256",
					"name": "cost",
					"type": "uint256"
				},
				{
					"internalType": "bool",
					"name": "inProduction",
					"type": "bool"
				}
			],
			"name": "addMiner",
			"outputs": [],
			"stateMutability": "nonpayable",
			"type": "function"
		},
		{
			"inputs": [
				{
					"internalType": "uint256",
					"name": "minerIndex",
					"type": "uint256"
				},
				{
					"internalType": "uint256",
					"name": "price",
					"type": "uint256"
				}
			],
			"name": "addSecondaryMarketForMiner",
			"outputs": [],
			"stateMutability": "nonpayable",
			"type": "function"
		},
		{
			"inputs": [],
			"name": "apetoshi",
			"outputs": [
				{
					"internalType": "address",
					"name": "",
					"type": "address"
				}
			],
			"stateMutability": "view",
			"type": "function"
		},
		{
			"inputs": [],
			"name": "bitape",
			"outputs": [
				{
					"internalType": "address",
					"name": "",
					"type": "address"
				}
			],
			"stateMutability": "view",
			"type": "function"
		},
		{
			"inputs": [],
			"name": "blocksUntilNextHalving",
			"outputs": [
				{
					"internalType": "uint256",
					"name": "",
					"type": "uint256"
				}
			],
			"stateMutability": "view",
			"type": "function"
		},
		{
			"inputs": [],
			"name": "burnPct",
			"outputs": [
				{
					"internalType": "uint256",
					"name": "",
					"type": "uint256"
				}
			],
			"stateMutability": "view",
			"type": "function"
		},
		{
			"inputs": [
				{
					"internalType": "uint256",
					"name": "minerIndex",
					"type": "uint256"
				},
				{
					"internalType": "uint256",
					"name": "x",
					"type": "uint256"
				},
				{
					"internalType": "uint256",
					"name": "y",
					"type": "uint256"
				}
			],
			"name": "buyMiner",
			"outputs": [],
			"stateMutability": "nonpayable",
			"type": "function"
		},
		{
			"inputs": [],
			"name": "buyNewFacility",
			"outputs": [],
			"stateMutability": "nonpayable",
			"type": "function"
		},
		{
			"inputs": [
				{
					"internalType": "uint256",
					"name": "facilityIndex",
					"type": "uint256"
				},
				{
					"internalType": "uint256",
					"name": "newCost",
					"type": "uint256"
				}
			],
			"name": "changeFacilityCost",
			"outputs": [],
			"stateMutability": "nonpayable",
			"type": "function"
		},
		{
			"inputs": [
				{
					"internalType": "uint256",
					"name": "minerIndex",
					"type": "uint256"
				},
				{
					"internalType": "uint256",
					"name": "newCost",
					"type": "uint256"
				}
			],
			"name": "changeMinerCost",
			"outputs": [],
			"stateMutability": "nonpayable",
			"type": "function"
		},
		{
			"inputs": [],
			"name": "claimRewards",
			"outputs": [],
			"stateMutability": "nonpayable",
			"type": "function"
		},
		{
			"inputs": [],
			"name": "cooldown",
			"outputs": [
				{
					"internalType": "uint256",
					"name": "",
					"type": "uint256"
				}
			],
			"stateMutability": "view",
			"type": "function"
		},
		{
			"inputs": [],
			"name": "cumulativeBitapePerHash",
			"outputs": [
				{
					"internalType": "uint256",
					"name": "",
					"type": "uint256"
				}
			],
			"stateMutability": "view",
			"type": "function"
		},
		{
			"inputs": [
				{
					"internalType": "uint256",
					"name": "",
					"type": "uint256"
				}
			],
			"name": "facilities",
			"outputs": [
				{
					"internalType": "uint256",
					"name": "maxMiners",
					"type": "uint256"
				},
				{
					"internalType": "uint256",
					"name": "totalPowerOutput",
					"type": "uint256"
				},
				{
					"internalType": "uint256",
					"name": "cost",
					"type": "uint256"
				},
				{
					"internalType": "bool",
					"name": "inProduction",
					"type": "bool"
				},
				{
					"internalType": "uint256",
					"name": "x",
					"type": "uint256"
				},
				{
					"internalType": "uint256",
					"name": "y",
					"type": "uint256"
				}
			],
			"stateMutability": "view",
			"type": "function"
		},
		{
			"inputs": [],
			"name": "facilityCount",
			"outputs": [
				{
					"internalType": "uint256",
					"name": "",
					"type": "uint256"
				}
			],
			"stateMutability": "view",
			"type": "function"
		},
		{
			"inputs": [],
			"name": "getBitapePerBlock",
			"outputs": [
				{
					"internalType": "uint256",
					"name": "",
					"type": "uint256"
				}
			],
			"stateMutability": "view",
			"type": "function"
		},
		{
			"inputs": [
				{
					"internalType": "uint256",
					"name": "x",
					"type": "uint256"
				},
				{
					"internalType": "uint256",
					"name": "y",
					"type": "uint256"
				}
			],
			"name": "getFreeStarterMiner",
			"outputs": [],
			"stateMutability": "nonpayable",
			"type": "function"
		},
		{
			"inputs": [
				{
					"internalType": "address",
					"name": "player",
					"type": "address"
				},
				{
					"internalType": "uint256",
					"name": "startIndex",
					"type": "uint256"
				},
				{
					"internalType": "uint256",
					"name": "size",
					"type": "uint256"
				}
			],
			"name": "getPlayerMinersPaginated",
			"outputs": [
				{
					"components": [
						{
							"internalType": "uint256",
							"name": "minerIndex",
							"type": "uint256"
						},
						{
							"internalType": "uint256",
							"name": "id",
							"type": "uint256"
						},
						{
							"internalType": "uint256",
							"name": "x",
							"type": "uint256"
						},
						{
							"internalType": "uint256",
							"name": "y",
							"type": "uint256"
						},
						{
							"internalType": "uint256",
							"name": "hashrate",
							"type": "uint256"
						},
						{
							"internalType": "uint256",
							"name": "powerConsumption",
							"type": "uint256"
						},
						{
							"internalType": "uint256",
							"name": "cost",
							"type": "uint256"
						},
						{
							"internalType": "bool",
							"name": "inProduction",
							"type": "bool"
						}
					],
					"internalType": "struct Miner[]",
					"name": "",
					"type": "tuple[]"
				}
			],
			"stateMutability": "view",
			"type": "function"
		},
		{
			"inputs": [
				{
					"internalType": "address",
					"name": "referrer",
					"type": "address"
				}
			],
			"name": "getReferrals",
			"outputs": [
				{
					"internalType": "address[]",
					"name": "",
					"type": "address[]"
				}
			],
			"stateMutability": "view",
			"type": "function"
		},
		{
			"inputs": [],
			"name": "initialFacilityPrice",
			"outputs": [
				{
					"internalType": "uint256",
					"name": "",
					"type": "uint256"
				}
			],
			"stateMutability": "view",
			"type": "function"
		},
		{
			"inputs": [
				{
					"internalType": "address",
					"name": "",
					"type": "address"
				}
			],
			"name": "initializedStarterFacility",
			"outputs": [
				{
					"internalType": "bool",
					"name": "",
					"type": "bool"
				}
			],
			"stateMutability": "view",
			"type": "function"
		},
		{
			"inputs": [
				{
					"internalType": "address",
					"name": "",
					"type": "address"
				}
			],
			"name": "lastFacilityUpgradeTimestamp",
			"outputs": [
				{
					"internalType": "uint256",
					"name": "",
					"type": "uint256"
				}
			],
			"stateMutability": "view",
			"type": "function"
		},
		{
			"inputs": [],
			"name": "lastRewardBlock",
			"outputs": [
				{
					"internalType": "uint256",
					"name": "",
					"type": "uint256"
				}
			],
			"stateMutability": "view",
			"type": "function"
		},
		{
			"inputs": [
				{
					"internalType": "uint256",
					"name": "",
					"type": "uint256"
				}
			],
			"name": "minerSecondHandMarket",
			"outputs": [
				{
					"internalType": "uint256",
					"name": "",
					"type": "uint256"
				}
			],
			"stateMutability": "view",
			"type": "function"
		},
		{
			"inputs": [
				{
					"internalType": "uint256",
					"name": "",
					"type": "uint256"
				}
			],
			"name": "miners",
			"outputs": [
				{
					"internalType": "uint256",
					"name": "minerIndex",
					"type": "uint256"
				},
				{
					"internalType": "uint256",
					"name": "id",
					"type": "uint256"
				},
				{
					"internalType": "uint256",
					"name": "x",
					"type": "uint256"
				},
				{
					"internalType": "uint256",
					"name": "y",
					"type": "uint256"
				},
				{
					"internalType": "uint256",
					"name": "hashrate",
					"type": "uint256"
				},
				{
					"internalType": "uint256",
					"name": "powerConsumption",
					"type": "uint256"
				},
				{
					"internalType": "uint256",
					"name": "cost",
					"type": "uint256"
				},
				{
					"internalType": "bool",
					"name": "inProduction",
					"type": "bool"
				}
			],
			"stateMutability": "view",
			"type": "function"
		},
		{
			"inputs": [],
			"name": "miningHasStarted",
			"outputs": [
				{
					"internalType": "bool",
					"name": "",
					"type": "bool"
				}
			],
			"stateMutability": "view",
			"type": "function"
		},
		{
			"inputs": [],
			"name": "owner",
			"outputs": [
				{
					"internalType": "address",
					"name": "",
					"type": "address"
				}
			],
			"stateMutability": "view",
			"type": "function"
		},
		{
			"inputs": [
				{
					"internalType": "address",
					"name": "",
					"type": "address"
				}
			],
			"name": "ownerToFacility",
			"outputs": [
				{
					"internalType": "uint256",
					"name": "facilityIndex",
					"type": "uint256"
				},
				{
					"internalType": "uint256",
					"name": "maxMiners",
					"type": "uint256"
				},
				{
					"internalType": "uint256",
					"name": "currMiners",
					"type": "uint256"
				},
				{
					"internalType": "uint256",
					"name": "totalPowerOutput",
					"type": "uint256"
				},
				{
					"internalType": "uint256",
					"name": "currPowerOutput",
					"type": "uint256"
				},
				{
					"internalType": "uint256",
					"name": "x",
					"type": "uint256"
				},
				{
					"internalType": "uint256",
					"name": "y",
					"type": "uint256"
				}
			],
			"stateMutability": "view",
			"type": "function"
		},
		{
			"inputs": [
				{
					"internalType": "address",
					"name": "player",
					"type": "address"
				}
			],
			"name": "pendingRewards",
			"outputs": [
				{
					"internalType": "uint256",
					"name": "",
					"type": "uint256"
				}
			],
			"stateMutability": "view",
			"type": "function"
		},
		{
			"inputs": [
				{
					"internalType": "address",
					"name": "",
					"type": "address"
				}
			],
			"name": "playerBitapeDebt",
			"outputs": [
				{
					"internalType": "uint256",
					"name": "",
					"type": "uint256"
				}
			],
			"stateMutability": "view",
			"type": "function"
		},
		{
			"inputs": [
				{
					"internalType": "address",
					"name": "player",
					"type": "address"
				}
			],
			"name": "playerBitapePerBlock",
			"outputs": [
				{
					"internalType": "uint256",
					"name": "",
					"type": "uint256"
				}
			],
			"stateMutability": "view",
			"type": "function"
		},
		{
			"inputs": [
				{
					"internalType": "address",
					"name": "",
					"type": "address"
				}
			],
			"name": "playerHashrate",
			"outputs": [
				{
					"internalType": "uint256",
					"name": "",
					"type": "uint256"
				}
			],
			"stateMutability": "view",
			"type": "function"
		},
		{
			"inputs": [
				{
					"internalType": "uint256",
					"name": "",
					"type": "uint256"
				}
			],
			"name": "playerMinersId",
			"outputs": [
				{
					"internalType": "uint256",
					"name": "minerIndex",
					"type": "uint256"
				},
				{
					"internalType": "uint256",
					"name": "id",
					"type": "uint256"
				},
				{
					"internalType": "uint256",
					"name": "x",
					"type": "uint256"
				},
				{
					"internalType": "uint256",
					"name": "y",
					"type": "uint256"
				},
				{
					"internalType": "uint256",
					"name": "hashrate",
					"type": "uint256"
				},
				{
					"internalType": "uint256",
					"name": "powerConsumption",
					"type": "uint256"
				},
				{
					"internalType": "uint256",
					"name": "cost",
					"type": "uint256"
				},
				{
					"internalType": "bool",
					"name": "inProduction",
					"type": "bool"
				}
			],
			"stateMutability": "view",
			"type": "function"
		},
		{
			"inputs": [
				{
					"internalType": "address",
					"name": "",
					"type": "address"
				}
			],
			"name": "playerMinersOwned",
			"outputs": [
				{
					"internalType": "uint256",
					"name": "_spacer",
					"type": "uint256"
				}
			],
			"stateMutability": "view",
			"type": "function"
		},
		{
			"inputs": [
				{
					"internalType": "address",
					"name": "",
					"type": "address"
				},
				{
					"internalType": "uint256",
					"name": "",
					"type": "uint256"
				},
				{
					"internalType": "uint256",
					"name": "",
					"type": "uint256"
				}
			],
			"name": "playerOccupiedCoords",
			"outputs": [
				{
					"internalType": "bool",
					"name": "",
					"type": "bool"
				}
			],
			"stateMutability": "view",
			"type": "function"
		},
		{
			"inputs": [
				{
					"internalType": "address",
					"name": "",
					"type": "address"
				}
			],
			"name": "playerPendingRewards",
			"outputs": [
				{
					"internalType": "uint256",
					"name": "",
					"type": "uint256"
				}
			],
			"stateMutability": "view",
			"type": "function"
		},
		{
			"inputs": [
				{
					"internalType": "address",
					"name": "referrer",
					"type": "address"
				}
			],
			"name": "purchaseInitialFacility",
			"outputs": [],
			"stateMutability": "payable",
			"type": "function"
		},
		{
			"inputs": [
				{
					"internalType": "address",
					"name": "",
					"type": "address"
				}
			],
			"name": "referralBonusPaid",
			"outputs": [
				{
					"internalType": "uint256",
					"name": "",
					"type": "uint256"
				}
			],
			"stateMutability": "view",
			"type": "function"
		},
		{
			"inputs": [],
			"name": "referralFee",
			"outputs": [
				{
					"internalType": "uint256",
					"name": "",
					"type": "uint256"
				}
			],
			"stateMutability": "view",
			"type": "function"
		},
		{
			"inputs": [
				{
					"internalType": "address",
					"name": "",
					"type": "address"
				}
			],
			"name": "referrals",
			"outputs": [
				{
					"internalType": "address",
					"name": "",
					"type": "address"
				}
			],
			"stateMutability": "view",
			"type": "function"
		},
		{
			"inputs": [
				{
					"internalType": "address",
					"name": "",
					"type": "address"
				},
				{
					"internalType": "uint256",
					"name": "",
					"type": "uint256"
				}
			],
			"name": "referredUsers",
			"outputs": [
				{
					"internalType": "address",
					"name": "",
					"type": "address"
				}
			],
			"stateMutability": "view",
			"type": "function"
		},
		{
			"inputs": [],
			"name": "renounceOwnership",
			"outputs": [],
			"stateMutability": "nonpayable",
			"type": "function"
		},
		{
			"inputs": [
				{
					"internalType": "uint256",
					"name": "minerId",
					"type": "uint256"
				}
			],
			"name": "sellMiner",
			"outputs": [],
			"stateMutability": "nonpayable",
			"type": "function"
		},
		{
			"inputs": [
				{
					"internalType": "address",
					"name": "_apetoshi",
					"type": "address"
				}
			],
			"name": "setApetoshi",
			"outputs": [],
			"stateMutability": "nonpayable",
			"type": "function"
		},
		{
			"inputs": [
				{
					"internalType": "address",
					"name": "_bitape",
					"type": "address"
				}
			],
			"name": "setBitape",
			"outputs": [],
			"stateMutability": "nonpayable",
			"type": "function"
		},
		{
			"inputs": [
				{
					"internalType": "uint256",
					"name": "burn",
					"type": "uint256"
				}
			],
			"name": "setBurnPct",
			"outputs": [],
			"stateMutability": "nonpayable",
			"type": "function"
		},
		{
			"inputs": [
				{
					"internalType": "uint256",
					"name": "_cooldown",
					"type": "uint256"
				}
			],
			"name": "setCooldown",
			"outputs": [],
			"stateMutability": "nonpayable",
			"type": "function"
		},
		{
			"inputs": [
				{
					"internalType": "uint256",
					"name": "_initialPrice",
					"type": "uint256"
				}
			],
			"name": "setInitialFacilityPrice",
			"outputs": [],
			"stateMutability": "nonpayable",
			"type": "function"
		},
		{
			"inputs": [
				{
					"internalType": "uint256",
					"name": "fee",
					"type": "uint256"
				}
			],
			"name": "setReferralFee",
			"outputs": [],
			"stateMutability": "nonpayable",
			"type": "function"
		},
		{
			"inputs": [],
			"name": "startBlock",
			"outputs": [
				{
					"internalType": "uint256",
					"name": "",
					"type": "uint256"
				}
			],
			"stateMutability": "view",
			"type": "function"
		},
		{
			"inputs": [
				{
					"internalType": "address",
					"name": "player",
					"type": "address"
				}
			],
			"name": "timeUntilNextFacilityUpgrade",
			"outputs": [
				{
					"internalType": "uint256",
					"name": "",
					"type": "uint256"
				}
			],
			"stateMutability": "view",
			"type": "function"
		},
		{
			"inputs": [
				{
					"internalType": "uint256",
					"name": "facilityIndex",
					"type": "uint256"
				},
				{
					"internalType": "bool",
					"name": "inProduction",
					"type": "bool"
				}
			],
			"name": "toggleFacilityProduction",
			"outputs": [],
			"stateMutability": "nonpayable",
			"type": "function"
		},
		{
			"inputs": [
				{
					"internalType": "uint256",
					"name": "minerIndex",
					"type": "uint256"
				},
				{
					"internalType": "bool",
					"name": "inProduction",
					"type": "bool"
				}
			],
			"name": "toggleMinerProduction",
			"outputs": [],
			"stateMutability": "nonpayable",
			"type": "function"
		},
		{
			"inputs": [],
			"name": "totalHashrate",
			"outputs": [
				{
					"internalType": "uint256",
					"name": "",
					"type": "uint256"
				}
			],
			"stateMutability": "view",
			"type": "function"
		},
		{
			"inputs": [
				{
					"internalType": "address",
					"name": "newOwner",
					"type": "address"
				}
			],
			"name": "transferOwnership",
			"outputs": [],
			"stateMutability": "nonpayable",
			"type": "function"
		},
		{
			"inputs": [],
			"name": "uniqueMinerCount",
			"outputs": [
				{
					"internalType": "uint256",
					"name": "",
					"type": "uint256"
				}
			],
			"stateMutability": "view",
			"type": "function"
		},
		{
			"inputs": [],
			"name": "withdraw",
			"outputs": [],
			"stateMutability": "nonpayable",
			"type": "function"
		},
		{
			"inputs": [
				{
					"internalType": "uint256",
					"name": "amt",
					"type": "uint256"
				}
			],
			"name": "withdrawBitape",
			"outputs": [],
			"stateMutability": "nonpayable",
			"type": "function"
		}
	]
}